:020000040800F2
:1000000010280124AD020008C1180108D9FD00081C
:10001000B9180108B11F0008B1550108000000001F
:10002000000000000000000000000000E12C0108BA
:100030001941000800000000112701088933010858
:10004000CB020008CB020008CB020008CB0200085C
:10005000CB020008CB020008CB020008CB0200084C
:10006000CB020008CB020008CB020008F9340008DC
:10007000093500081935000829350008CB020008A9
:10008000CB020008CB020008CB020008CB0200081C
:10009000CB020008CB020008CB020008CB0200080C
:1000A000CB020008CB020008CB020008CB020008FC
:1000B000CB020008CB020008CB020008CB020008EC
:1000C000CB020008CB020008CB020008CB020008DC
:1000D000CB020008CB020008CB020008CB020008CC
:1000E000CB020008CB02000800000000CB02000891
:1000F000CB020008CB020008CB020008CB020008AC
:10010000CB020008CB020008CB020008CB0200089B
:10011000CB020008CB020008CB020008CB0200088B
:10012000CB020008CB020008CB020008CB0200087B
:10013000CB020008CB020008CB020008CB0200086B
:1001400000000000000000000000000000000000AF
:10015000CB020008CB020008CB020008CB0200084B
:10016000CB020008CB020008CB020008CB0200083B
:10017000CB020008CB020008CB0200080000000000
:10018000CB020008CB020008CB020008CB0200081B
:10019000CB020008CB020008CB020008CB0200080B
:1001A000CB020008CB020008CB020008CB020008FB
:1001B000CB020008CB020008CB020008CB020008EB
:1001C000CB020008CB020008CB020008CB020008DB
:1001D000CB020008CB020008CB020008CB020008CB
:1001E000CB020008CB020008CB020008CB020008BB
:1001F000CB020008CB020008CB020008CB020008AB
:10020000CB020008CB020008CB020008CB0200089A
:10021000CB020008CB020008CB020008CB0200088A
:10022000CB020008CB020008CB020008000000004F
:10023000CB020008CB02000800000000CB0200083F
:10024000CB020008CB020008CB020008CB0200085A
:10025000CB020008CB020008CB020008CB0200084A
:10026000CB020008CB020008CB020008CB0200083A
:10027000CB020008CB020008CB02000800000000FF
:10028000CB020008CB020008CB02000800000000EF
:1002900000000000CB020008DFF80CD000F0A0FA4C
:1002A00000480047D17C01081028012407488047F6
:1002B0000748804707480047FEE7FEE7FEE7FEE7FE
:1002C000FEE7FEE7FEE7FEE7FEE7FEE7094400087B
:1002D00079340108990200082DE9F05F05460020F5
:1002E00092469B4688460646814640241BE02846A7
:1002F00041464746224600F0ABF853465A46C01ADC
:10030000914110D311461846224600F092F82D1A5A
:1003100067EB01084F4622460120002100F089F8D2
:1003200017EB00094E41201EA4F10104DFDC484612
:1003300031462A464346BDE8F09F2DE9F0410024AE
:10034000061B254671F1000605DA01240027D0EBD3
:10035000070067EB0101161E73F1000605DA00279E
:10036000D2EB0702012567EB0303FFF7B5FF8646D3
:100370000E4617469C46AC4204D00025D0EB050E35
:1003800065EB010624B10020D2EB000760EB030C03
:10039000704631463A466346BDE8F081D2B201E08C
:1003A00000F8012B491EFBD270470022F6E710B57A
:1003B00013460A4604461946FFF7F0FF204610BDD3
:1003C00010B5044604E00B7800F8013B03B1491C6A
:1003D000521EF8D2204610BD10B5002200E0521C7B
:1003E000835C8C5CA34201D1002BF8D1D8B2E1B27E
:1003F000401A10BD034611F8012B00F8012B002A0A
:10040000F9D11846704730B50B460146002020222E
:10041000012409E021FA02F59D4205D303FA02F511
:10042000491B04FA02F52844151EA2F10102F1DC71
:1004300030BD202A04DB203A00FA02F10020704788
:100440009140C2F1200320FA03F319439040704712
:10045000202A04DB203A21FA02F00021704721FA19
:1004600002F3D040C2F12002914008431946704780
:100470002DE9FE4F804681EA0300C00F0C46009034
:1004800021F0004123F00045B8EB0200A94105D25C
:100490004046214690461C460B46024623F000404B
:1004A000104347D0270DC7F30A00C3F30A51029047
:1004B000401A019040286BDAC3F3130040F4801B0C
:1004C0000098924620B10023D2EB030A63EB0B0B9A
:1004D00001985946C0F140025046FFF7AAFF064670
:1004E0000D4650465946019A00F092F910EB08006B
:1004F0006141002487EA115284EAE7731A4340D02D
:10050000009A62B3019A012A4FEA075215DC001BD8
:1005100061EB02014FF0004202EA0752CDE90042CE
:10052000001C41F5801132462B4600F092F903B0D1
:10053000BDE8F08F40462146F9E7001B61EB020160
:10054000001C41F5801300185B412018A2F500172C
:1005500047EB030140EAD570B6196D4111E06D0813
:100560004FEA360645EAC0754FEA0752001B61EBB9
:100570000201001C41F5801149084FEA30000019C2
:10058000514132462B4603B0BDE8F04F00F052B95E
:100590000098012240000023D0EB020263EBE073DD
:1005A000009821464FEAE074B8EB000061EB0401CB
:1005B000E9E783F000435BE781F0004158E72DE96C
:1005C000FE4F81EA030404F0004421F0004100944E
:1005D0004FF0000B23F0004350EA01045ED052EAD2
:1005E00003045BD0C3F30A54C1F30A552C44A4F2AC
:1005F000F3340194A0FB0254C1F3130141F48011C0
:10060000C3F3130343F4801301FB024400FB034EC6
:10061000840A970A44EA815447EA8357A4FB07688F
:1006200002958D0A05FB07854FEA932C04FB0C54B9
:100630002705029D4FEA065847EA1637B5EB08052D
:100640006EEB070C870E920E47EA811742EA83127F
:10065000A7FB0201B6EB0B0164EB00042B0D43EA90
:100660000C335E1844EB1C50DA465146E7FB02019E
:10067000C5F313044FEA0B3343EA14534FEA043231
:10068000019C43EA0603A4F10C040294009CCDE90A
:1006900000B400F0DEF803B0BDE8F08F00200146A2
:1006A000F9E72DE9F04D81EA030404F0004B21F055
:1006B000004514464FF0000A23F0004150EA0502BD
:1006C00020D054EA01021DD0C5F30A570246C5F3F3
:1006D0001303C1F31300C1F30A5640F4801543F429
:1006E0008013A7EB0608101BD64608F2FD3873EB03
:1006F000050002D308F1010801E092185B41B8F14E
:10070000000F03DA00200146BDE8F08D00204FF411
:100710008011064684460EE0171B73EB050705D3D0
:10072000121B63EB050306434CEA010C49084FEA30
:10073000300092185B4150EA0107EDD152EA030004
:1007400012D082EA040083EA0501084305D0101B99
:10075000AB4106D20122002306E000224FF0004305
:1007600002E06FF0010253101AEB06004CEB085147
:1007700010EB0A0041EB0B01BDE8F04D00F05AB858
:10078000C1F30A52C1F3130140F2FF3341F4801167
:100790009A4202DA00200146704740F233439A42FF
:1007A000A2F2334202DC5242FFF752BEFFF741BED3
:1007B00030B5041E71F1000404DB4FF000444042E8
:1007C00064EB0101141E73F1000405DB1C464FF0BD
:1007D0000043524263EB0403994208BF904230BD8C
:1007E0001CB509480090094801900546009C06E0A8
:1007F000E06840F0010394E8070098471034AC42E9
:10080000F6D3FFF74DFD00005C5B03088C5B03082B
:10081000202A06DBCB17203A41FA02F043EAE073C4
:1008200006E041FA02F3D040C2F1200291400843B1
:100830001946704710B5141E73F1000408DA401C05
:1008400041F1000192185B411A4301D120F00100EF
:1008500010BD2DE9F04D92469B4611B1B1FA81F2DF
:1008600002E0B0FA80F220329046FFF7E2FD044643
:100870000F4640EA0A0041EA0B0153465A46084334
:1008800013D0114653EA010019D0C8F14002504676
:10089000FFF7DEFD05460E46504659464246FFF735
:1008A000C8FD084305D0012004E020463946BDE8D4
:1008B000F08D0020054346EAE0762C4337430A9842
:1008C0006305E40AA0EB08000022FD0A44EA47544D
:1008D0000A3002D500200146E9E7010510196941F7
:1008E000DDE9084500196941BDE8F04DA2E70000C7
:1008F00080B584B003900398006842F20001C4F20E
:100900000201884209D0FFE70398006842F2001113
:10091000C4F20201884209D1FFE742F20830C4F272
:100920000200006810F4403F09D129E046F2083087
:10093000C5F60200006810F4403F21D0FFE70DF03B
:1009400033FA0290039840680190B0F5803F0AD0D6
:10095000FFE70198B0F5003F05D0FFE70198B0F53B
:10096000403F07D00AE00398C1880298B0FBF1F03D
:10097000029004E002988008029000E0FFE75FE048
:100980004FF4002000210BF04BF9029003984068CF
:100990000090B0F5802F32D0FFE70098B0F5002F1F
:1009A0002DD0FFE70098B0F5402F28D0FFE7009842
:1009B000B0F5801F23D0FFE70098B0F5A01F1ED030
:1009C000FFE70098B0F5C01F19D0FFE70098B0F519
:1009D000E01F1FD0FFE70098B0F5001F1ED0FFE713
:1009E0000098B0F5101F1DD0FFE70098B0F5201F4C
:1009F0001CD0FFE70098B0F5301F1BD01EE0039815
:100A000041686FF0010000EA51410298B0FBF1F03B
:100A1000029014E002980009029010E00298400948
:100A200002900CE002988009029008E00298C00948
:100A3000029004E00298000A029000E0FFE7FFE75E
:100A400009F00EFE41F20301884217D8FFE7029831
:100A500042F60151C0F23111884207D3FFE70398F3
:100A60000168886840F48070886006E00398016837
:100A7000886820F480708860FFE743E002984008AF
:100A80000290029845F61061C0F25F01884209D8D1
:100A9000FFE703980068806820F4407003990968B4
:100AA00088602EE002984BF62041C0F2BE018842D9
:100AB0000AD8FFE7039800688068012161F30920E4
:100AC0000399096888601BE0029847F64001C0F26C
:100AD0007D1188420AD8FFE70398006880680221E8
:100AE00061F3092003990968886008E003980068A9
:100AF000806840F44070039909688860FFE7FFE769
:100B0000FFE7FFE704B080BD80B58AB00890079189
:100B10000020059007980490089800680FF034FFB3
:100B20000290089800680FF0E7FE0190029828B93B
:100B3000FFE70198002800F0A880FFE70898006808
:100B4000C0688001002836D5FFE70898407D01285D
:100B500031D1FFE70898007D01282CD1FFE7012063
:100B60000490FFE708980068006800F0400100204A
:100B7000B0EB911F1AD1FFE705984DF60041C0F286
:100B80000C0188420ED3FFE70899486D40F0100031
:100B900048650899886D40F00100886501208DF84E
:100BA000270076E0059801300590DBE7089801689A
:100BB00040200860FFE70498022813D0FFE7089858
:100BC00000680FF0E1FE60B1FFE7089800680FF0E1
:100BD000BBFE28B9FFE7089800680FF031FFFFE778
:100BE000FFE7FFE70498012813D0FFE708980068A3
:100BF0000FF082FE60B1FFE7089800680FF0A4FED6
:100C000028B9FFE7089800680FF07EFEFFE7FFE7CE
:100C1000FFE704980090022807D0FFE70098032818
:100C200006D1FFE70C20039005E00820039002E0C6
:100C300004200390FFE709F01BFD0690FFE70898EA
:100C400000688068039908421ED0FFE709F010FD94
:100C50000699401A062816D3FFE7089800688068AE
:100C6000039908420ED0FFE70899486D40F0100044
:100C700048650899886D40F00100886501208DF86D
:100C8000270006E0FFE7DAE7FFE700208DF82700FE
:100C9000FFE79DF827000AB080BD000000000000BB
:100CA00080B582B001900198806B00900098406DF3
:100CB00010F0500F4AD1FFE70099486D40F40070E2
:100CC00048650098006800680007002821D5FFE704
:100CD000009800680FF068FED0B1FFE70098006848
:100CE000C0688004002812D4FFE70099486D20F402
:100CF000807048650098406DC004002806D4FFE766
:100D00000099486D40F001004865FFE7FFE7FFE705
:100D100018E000980068C068800790B9FFE7009964
:100D2000486D20F4807048650098406DC00400282C
:100D300006D4FFE70099486D40F001004865FFE7E1
:100D4000FFE7FFE7009805F083F910E00098406D99
:100D5000C006002804D5FFE7009805F0C1F905E0BA
:100D60000098C06CC16C01988847FFE7FFE702B0AC
:100D700080BD00000000000080B582B001900198A5
:100D8000806B00900099486D40F0400048650099E4
:100D9000886D40F004008865009805F0A1F902B064
:100DA00080BD00000000000080B582B00190019875
:100DB000806B0090009805F06FF902B080BD0000D4
:100DC00080B584B00290029800680FF0BDFD0090DD
:100DD000029800680FF0C0FD00284BD0FFE7009894
:100DE000002847D1FFE702980068806800F00D00F6
:100DF000012809D1FFE7029800680FF031FD029841
:100E00000168032008600DE00299486D40F0100071
:100E100048650299886D40F00100886501208DF8D1
:100E20000F002BE009F024FC0190FFE70298006816
:100E30008068C007E8B1FFE709F01AFC0199401A81
:100E4000032815D3FFE7029800688068C00770B1D7
:100E5000FFE70299486D40F0100048650299886DDF
:100E600040F00100886501208DF80F0006E0FFE7E3
:100E7000DCE7FFE700208DF80F00FFE79DF80F008B
:100E800004B080BD0000000080B586B004900498D6
:100E900000680FF061FD002840F09280FFE70498A1
:100EA000006880683F21C8F2000108420ED0FFE7C9
:100EB0000499486D40F0100048650499886D40F031
:100EC0000100886501208DF817007DE00498006816
:100ED0000FF0E2FC09F0CCFB0390049801680120BC
:100EE00042F20002C4F20202914201900CD0FFE7EC
:100EF000049800684DF60071CBF6FD710844B0FA15
:100F000080F040090190FFE70198C10746F20030E8
:100F1000C5F6020000291CBF42F20030C4F20200F4
:100F20000FF0E2FC02900498006842F20011C4F253
:100F30000201884206D1FFE742F20000C4F202003B
:100F4000009003E0049800680090FFE7009804997F
:100F50000968884203D0FFE7029880BBFFE7FFE7FC
:100F6000049800680068C00740BBFFE70498006869
:100F70000FF0F2FC28B9FFE7049800680FF08CFC32
:100F8000FFE709F075FB0399401A032815D3FFE723
:100F9000049800680068C00770B9FFE70499486DBD
:100FA00040F0100048650499886D40F001008865A4
:100FB00001208DF8170007E0FFE7D1E7FFE7FFE723
:100FC00000208DF81700FFE79DF8170006B080BDE0
:100FD00080B584B040F20000C3F200004FF400611D
:100FE0000291FFF7E2F9029940F60000C3F2000017
:100FF000FFF7DBF940F20000C2F200404FF48041FD
:10100000FFF7D3F944F20000C2F200404FF4005160
:10101000FFF7CBF940F29000C2F201402821FFF720
:10102000C4F9029840F2D002C2F2014200210191BB
:1010300051611161D16091605160116040F2B8025C
:10104000C2F2014251611161D16091605160116041
:1010500016F006FE029940F2CC72C2F20142106014
:1010600040F2EC00C2F2014016F08EFD01208DF836
:101070000F00FFE79DF80F00022813DCFFE79DF843
:101080000F0011F0EDFF9DF80F004EF68061C0F2E9
:1010900036010FF069F9FFE79DF80F0001308DF878
:1010A0000F00E7E704B080BD80B582B001900198E1
:1010B0004FF47A71484300F003F802B080BD00009D
:1010C00083B0029041F20400CEF20000006801906B
:1010D000029840F20801C2F2014109684DF68362AC
:1010E000C4F21B32A1FB0221890C48430090FFE7A8
:1010F00041F20400CEF2000000680199401A009904
:10110000884201D2FFE7F3E703B070470000000018
:1011100041F20400CEF200000068704700000000B9
:1011200084B00390029102980399884205D3FFE7A7
:1011300002980399401A009005E003980299C04371
:1011400008440090FFE7009801909DED010AB8EE79
:10115000400A40F20800C2F2014090ED001AB8EED9
:10116000411A9FED042A81EE021A80EE010A04B0B2
:10117000704700BF002474494EF6FC51CEF20001C6
:10118000086840F08070086041F20401CEF200016E
:101190000020086041F20001CEF20001086840F032
:1011A000010008607047000080B582B0019001988E
:1011B0006946086000214FF448724FF4F073084606
:1011C00000F01AFB02B080BD82B0ADF80600ADF8A9
:1011D00004100092BDF80600B0F5487F06DAFFE77C
:1011E000BDF80400B0F5F07F01DBFFE70DE00098EB
:1011F000BDF80410BDF806304FF4487201FB02320E
:101200004FF0404141F82200FFE702B07047000074
:1012100080B58CB0DDF838C0ADF80E00ADF80C101C
:10122000ADF80A20ADF80830BDF80C00BDF80E206E
:101230004FF4487100FB0120800000F14040019014
:1012400040F24020C2F2014041F20001C5F200210B
:101250000160002141608160BDF80A10C1F548714C
:10126000C16005F091FF002873D1FFE70E99BDF82A
:101270000A00BDF8082050438000079106900698A8
:10128000012820DBFFE70698079901F01F010844B9
:10129000059007980490BFF34F8FFFE704984EF630
:1012A0006871CEF20001086004982030049005981F
:1012B0002038059005980028F0DCFFE7BFF34F8F3A
:1012C000BFF36F8FFFE70199BDF808004FF4486244
:1012D00050430B910A900A98012820DBFFE70A98F7
:1012E0000B9901F01F01084409900B980890BFF377
:1012F0004F8FFFE708984EF65C71CEF20001086050
:1013000008982030089009982038099009980028FA
:10131000F0DCFFE7BFF34F8FBFF36F8FFFE70E994E
:10132000019ABDF80A30BDF80800EC46CCF8000080
:1013300040F24020C2F2014006F0A6F840B9FFE7B3
:1013400040F24020C2F20140642105F09DFFFFE71A
:10135000FFE70CB080BD000080B588B084460B98D4
:101360000A98ADF81EC0ADF81C10069205938DF8D2
:101370001300FFE706980078002800F0D880FFE708
:101380000698411C069100788DF812009DF8120015
:10139000202805DBFFE79DF812007F2801DBFFE72F
:1013A000E8E79DF812009DF8131003F079FE039012
:1013B0009DF81300002856D1FFE700208DF80B00A0
:1013C000FFE79DF80B000F2847DCFFE703989DF827
:1013D0000B10405C8DF80A0000208DF80900FFE733
:1013E0009DF80900072831DCFFE79DF80A009DF809
:1013F0000910C1F10701C840C00780B1FFE7BDF87F
:101400001E009DF809100844BDF81C109DF80B2023
:101410001144059A80B289B2FFF7D6FE0FE0BDF8FD
:101420001E009DF809100844BDF81C109DF80B2003
:1014300011440B9A80B289B2FFF7C6FEFFE7FFE7BF
:101440009DF8090001308DF80900C9E7FFE79DF814
:101450000B0001308DF80B00B3E7BDF81E0008301B
:10146000ADF81E0062E09DF8130001285CD1FFE793
:1014700000208DF80800FFE79DF808001F284DDCCC
:10148000FFE703999DF8082001EB420011F81210C4
:10149000407840EA0120ADF8060000208DF80500F4
:1014A000FFE79DF805000F2831DCFFE7BDF80600D7
:1014B0009DF80510C1F10F01C840C00780B1FFE7DA
:1014C000BDF81E009DF805100844BDF81C109DF8DD
:1014D00008201144059A80B289B2FFF775FE0FE02B
:1014E000BDF81E009DF805100844BDF81C109DF8BD
:1014F000082011440B9A80B289B2FFF765FEFFE71E
:10150000FFE79DF8050001308DF80500C9E7FFE70A
:101510009DF8080001308DF80800ADE7BDF81E0009
:101520001030ADF81E0000E001E0FFE722E708B050
:1015300080BD00000000000080B592B0DDF850C012
:10154000ADF84600ADF84410ADF84220ADF840309B
:10155000BDF84600B0F5487F12DAFFE7BDF8440059
:10156000B0F5F07F0CDAFFE7BDF84200B0F5487F38
:1015700006DAFFE7BDF84000B0F5F07F01DBFFE7DA
:1015800035E1BDF84200BDF84610401A012807DBDE
:10159000FFE7BDF84200BDF84610401A069006E08D
:1015A000BDF84210BDF84600401A0690FFE70698C5
:1015B000ADF83E00BDF84000BDF84410401A0128C7
:1015C00007DBFFE7BDF84000BDF84410401A059066
:1015D00006E0BDF84010BDF84400401A0590FFE752
:1015E0000598ADF83C00BDF84610BDF842204FF01C
:1015F000FF3091420146B8BF0121ADF83A10BDF865
:101600004410BDF840209142B8BF0120ADF8380029
:10161000BDF84400BDF84010884247D1FFE7BDF84F
:101620004600BDF84210884204DAFFE7BDF84600E4
:10163000049003E0BDF842000490FFE70498ADF881
:101640003600BDF84600BDF84210884204DAFFE7D4
:10165000BDF84200039003E0BDF846000390FFE7A9
:101660000398ADF83400BDF84400BDF836204FF4BF
:10167000487100FB0120800000F140400C90BDF853
:101680003400BDF83610401A0130ADF82E00FFE7E7
:10169000BDF82E00411EADF82E1030B1FFE71498B2
:1016A0000C990A1D0C920860F2E7A0E0BDF8460014
:1016B000BDF84210884249D1FFE7BDF84400BDF8AB
:1016C0004010884204DAFFE7BDF84400029003E0CE
:1016D000BDF840000290FFE70298ADF82C00BDF87D
:1016E0004400BDF84010884204DAFFE7BDF840002E
:1016F000019003E0BDF844000190FFE70198ADF8C8
:101700002A00BDF82C00BDF846204FF4487100FBBC
:101710000120800000F140400990BDF82A00BDF88A
:101720002C10401A0130ADF82200FFE7BDF822006E
:10173000411EADF8221040B1FFE7149809990860E6
:10174000099800F548600990F0E750E0BDF83E00C8
:10175000BDF83C10401AADF82000FFE7BDF8460088
:10176000BDF84410149AFFF72FFDBDF84600BDF8F0
:101770004210884208D1FFE7BDF84400BDF8401090
:10178000884201D1FFE732E0BDF820004000ADF80B
:101790001E00BDF91E00BDF93C10494288420FDD14
:1017A000FFE7BDF83C10BDF82000401AADF820005E
:1017B000BDF83A10BDF846000844ADF84600FFE712
:1017C000BDF91E00BDF93E1088420FDAFFE7BDF8F3
:1017D0003E10BDF820000844ADF82000BDF83810D8
:1017E000BDF844000844ADF84400FFE7B6E712B086
:1017F00080BD00000000000080B588B0DDF828C082
:10180000ADF80E00ADF80C10ADF80A20ADF80830B8
:10181000BDF80E00B0F5487F06DAFFE7BDF80C0012
:10182000B0F5F07F01DBFFE789E0BDF80E00BDF801
:101830000A100844B0F5487F07DDFFE7BDF80E0049
:10184000C0F54870ADF80A00FFE7BDF80C00BDF820
:1018500008100844B0F5F07F07DDFFE7BDF80C0085
:10186000C0F5F070ADF80800FFE7BDF80C00BDF85A
:101870000E204FF4487100FB0120800000F1404031
:10188000019040F24020C2F2014041F20001C5F255
:10189000002101604FF44031416000218160BDF8BA
:1018A0000A10C1F54871C16005F06EFC002846D1F0
:1018B000FFE70199BDF808004FF4486250430791D3
:1018C00006900698012820DBFFE70698079901F0AB
:1018D0001F010844059007980490BFF34F8FFFE75E
:1018E00004984EF67071CEF2000108600498203022
:1018F000049005982038059005980028F0DCFFE753
:10190000BFF34F8FBFF36F8FFFE70A99019ABDF8BE
:101910000A30BDF80800EC46CCF8000040F2402048
:10192000C2F2014005F0B0FD40B9FFE740F24020AF
:10193000C2F20140322105F0A7FCFFE7FFE708B043
:1019400080BD00000000000080B582B040F2402061
:10195000C2F2014041F20001C5F2002101604FF4E2
:1019600040314160002181604FF44871C16005F051
:101970000BFCB0B9FFE769464FF4F070086040F225
:101980004020C2F2014001904FF0FF314FF0404241
:101990004FF4487305F078FD0198322105F074FC8E
:1019A000FFE702B080BD000080B540F28450C2F273
:1019B000014011F059F980BD80B58CB00B900A91AF
:1019C000099247F64000C0F27D10089000208DF883
:1019D0001F000B980690FFE7069900204AF21F129D
:1019E000C0F207029142039008DCFFE79DF81F1048
:1019F00000200729B8BF01200390FFE70398C00724
:101A000048B1FFE70698400006909DF81F0001309E
:101A10008DF81F00E0E79DF81F00099908730698EC
:101A200041F2FF11C0F27A01884209DCFFE7069912
:101A300044F20060C2F2C33090FBF1F0029008E083
:101A400006994EF60010C3F2A45090FBF1F00290FC
:101A5000FFE702980999086009980068B0F5006FDF
:101A600005DDFFE709994FF400600860FFE709987A
:101A70000023019343600999012088600698099921
:101A8000096880FB0101059104900498059947F6C7
:101A90004002C0F27D120092FEF74FFC009A019BBB
:101AA0000A99086004980599FEF747FC1046194604
:101AB000019B1922FEF741FC0A9948600A9944F2F9
:101AC0004020C0F20F0088600CB080BD0000000014
:101AD00080B582B08DF807008DF806109DF80600DD
:101AE00068B1FFE79DF80710012000FA01F240F20B
:101AF0001801C2F201410878104308700CE09DF80B
:101B00000710012000FA01F240F21801C2F201416F
:101B1000087890430870FFE740F21800C2F20140D5
:101B2000007880F0FF01032000F0EAF802B080BDE9
:101B300080B582B08DF807009DF8070080F0FF01A6
:101B4000032000F0DDF802B080BD000000000000BE
:101B500080B5B720802100F0D3F80020FFF7E8FF20
:101B600080BD00000000000080B58CB084460E9857
:101B70008DF82FC00A918DF827208DF826308DF82A
:101B800025000A9801684FF60060CFF6FF7000EB61
:101B9000C1100890002007900A9880680690069867
:101BA000000A8DF8100006988DF81100BDF822008B
:101BB00000F003000A99097B40EA01108DF8120039
:101BC0000898000A8DF8130008988DF814000699FB
:101BD000F02000EA1130BDF81E1001F00F0108449A
:101BE0008DF815000798000A8DF8160007988DF8F3
:101BF000170040F20400C2F2014000689DF82F2057
:101C00006B46642199600821596004A91960C021BC
:101C1000012308F061FE9DF825009DF82710490179
:101C2000C9B29DF82620114341F00C0100F068F87C
:101C30000CB080BD0000000080B584B08DF80F00AE
:101C40000291029A116850689268C00190FBF2F00C
:101C500000EBC110A0F50070019002984168806807
:101C6000CA0192FBF0F25043C0EBC11000909DF806
:101C70000F000199009A029B9B6800F061F8B12067
:101C8000A02100F03DF804B080BD0000000000007D
:101C900080B58CB00B908DF82B100B9807A9019193
:101CA00003AA0292FFF788FE01991A20FFF7C4FFEA
:101CB00002999DF82B306A46102010602A200022DD
:101CC000FFF752FF0CB080BD80B58CB00B908DF843
:101CD0002B100B9807A9019103AA0292FFF76CFE43
:101CE00001992220FFF7A8FF02999DF82B306A4640
:101CF000122010603A200122FFF736FF0CB080BDA1
:101D000080B584B08DF80F008DF80E1040F20400FD
:101D1000C2F2014000689DF80F20EC466421CCF827
:101D200008100123CCF804300DF10E01CCF800109E
:101D3000C02108F0D1FD04B080BD0000000000000B
:101D400080B58AB08DF8270008910792069306980F
:101D5000000A8DF8100006988DF81100BDF82200D9
:101D600000F003008DF812000898000A8DF81300A7
:101D700008988DF814000699F02000EA1130BDF89B
:101D80001E1001F00F0108448DF815000798000A95
:101D90008DF8160007988DF8170040F20400C2F283
:101DA000014000689DF827206B4664219960082156
:101DB000596004A91960C021012308F08DFD0AB003
:101DC00080BD00000000000083B00290029808B9B6
:101DD000FFE717E0029908894989484301900020EC
:101DE0000090FFE70098019988420BD2FFE7029923
:101DF0000868009A01EB82010863FFE70098013050
:101E00000090EFE703B0704780B588B084460B9828
:101E10000A98CDF81CC0ADF81A10ADF81820ADF82E
:101E20001630ADF81400BDF81600BDF81A10401AAF
:101E3000012807DBFFE7BDF81600BDF81A10401AAD
:101E4000019006E0BDF81610BDF81A00401A019086
:101E5000FFE70198ADF81200BDF81400BDF81810A6
:101E6000401A012807DBFFE7BDF81400BDF8181081
:101E7000401A009006E0BDF81410BDF81800401A92
:101E80000090FFE70098ADF81000BDF81A10BDF8FB
:101E900016204FF0FF3091420146B8BF0121ADF846
:101EA0000E10BDF81810BDF814209142B8BF0120E3
:101EB000ADF80C00BDF81200BDF81010401AADF8D6
:101EC0000A00FFE70798BDF81A10BDF818200B9B11
:101ED00000F046F8BDF81A00BDF81610884208D187
:101EE000FFE7BDF81800BDF81410884201D1FFE7E4
:101EF00032E0BDF80A004000ADF80800BDF9080066
:101F0000BDF91010494288420FDDFFE7BDF81010FF
:101F1000BDF80A00401AADF80A00BDF80E10BDF871
:101F20001A000844ADF81A00FFE7BDF90800BDF932
:101F3000121088420FDAFFE7BDF81210BDF80A0050
:101F40000844ADF80A00BDF80C10BDF818000844AC
:101F5000ADF81800FFE7B5E708B080BD000000004D
:101F600083B00290ADF80610ADF804200093BDF8E0
:101F7000060002990989884207DAFFE7BDF80400E4
:101F800002994989884201DBFFE70CE00098029939
:101F9000BDF804200B89BDF806C002FB03C201EBAB
:101FA00082010863FFE703B07047000000000000F3
:101FB000FFE7FEE70000000080B5A8B02790279853
:101FC00008B9FFE7EFE027980C304EF20931C0F670
:101FD0000101FEF701FA58B1FFE727980C304EF2E5
:101FE0003431C0F60101FEF7F7F9002863D1FFE7AD
:101FF000279848F20001CFF6007143F23332CFF652
:10200000337210F0B1FB012003F0A6F82690279858
:102010000C304EF20931C0F60101FEF7DDF958B976
:10202000FFE72698013026902698642803D3FFE71F
:1020300063202690FFE709E026980138269026982D
:1020400018B9FFE701202690FFE7FFE79DF89810F9
:102050000120079010F048FE0DF166000A90322131
:10206000FEF7A3F9079803F0BFF80798B7EEC00A88
:102070008DED080B03F094F89DED080B01460A98CE
:10208000269B4EF2821CC0F6010C6A46C2F808C0BC
:102090005360116053EC102B4EF21141C0F6010158
:1020A00016F054F80A9940F2F470C2F20140006848
:1020B000C26D904777E027980C304EF26531C0F63C
:1020C0000101FEF789F958B1FFE727980C304EF26D
:1020D0009031C0F60101FEF77FF9002862D1FFE7D9
:1020E00027980021CFF6FF7143F23332CFF63372D7
:1020F00010F03AFB022003F02FF8189027980C30CC
:102100004EF26531C0F60101FEF766F958B9FFE7F6
:102110001898013018901898642803D3FFE76320BB
:102120001890FFE709E0189801381890189818B926
:10213000FFE701201890FFE7FFE79DF860100220FD
:10214000039010F0D1FD0DF12E0006903221FEF724
:102150002CF9039803F048F80398B7EEC00A8DED08
:10216000040B03F01DF89DED040B01460698189B27
:102170004EF2821CC0F6010C6A46C2F808C05360D9
:10218000116053EC102B4EF23641C0F6010115F0F0
:10219000DDFF069940F2FC70C2F201400068C26D9A
:1021A0009047FFE7FFE728B080BD00000000000077
:1021B00080B5AEB01EA910912D902D9808B9FFE7FB
:1021C00005E12D980C304EF2FB21C0F60101FEF71F
:1021D00003F958B1FFE72D980C304EF22531C0F6C7
:1021E0000101FEF7F9F800286ED1FFE72D9848F2BB
:1021F0000001CFF6007143F23332CFF6337210F0A4
:10220000B3FA012002F0CCFF2C902D980C304EF246
:10221000FB21C0F60101FEF7DFF870B9FFE72C984B
:1022200064302C902C984CF25131884204D3FFE753
:102230004CF250302C90FFE70CE02C9864382C9036
:102240002C98C0087C2804D8FFE74FF47A702C90B3
:10225000FFE7FFE7109890ED0E0AB8EE400A012064
:102260000A9010F06DFD0DF17E000F903221FEF707
:102270009CF80A9802F0B8FF0A98B7EEC00A8DEDF4
:102280000C0B2C990B9102F067FF0B999DED0C0B39
:1022900003460F984EF2821CC0F6010C6A46C2F843
:1022A00008C05360116053EC102B4EF21141C0F680
:1022B000010115F04BFF0F9940F2F470C2F201409A
:1022C0000068C26D904782E02D980C304EF2573175
:1022D000C0F60101FEF780F858B1FFE72D980C30E9
:1022E0004EF28131C0F60101FEF776F800286DD17B
:1022F000FFE72D980021CFF6FF7143F23332CFF67E
:10230000337210F031FA022002F04AFF1E902D982D
:102310000C304EF25731C0F60101FEF75DF870B98E
:10232000FFE71E9864301E901E984CF2513188428F
:1023300004D3FFE74CF250301E90FFE70CE01E98EC
:1023400064381E901E98C0087C2804D8FFE74FF41C
:102350007A701E90FFE7FFE7109890ED000AB8EE44
:10236000400A0220049010F0EBFC0DF146000990A9
:102370003221FEF71AF8049802F036FF0498B7EEFF
:10238000C00A8DED060B1E99059102F0E5FE059938
:102390009DED060B034609984EF2821CC0F6010C17
:1023A0006A46C2F808C05360116053EC102B4EF21D
:1023B0003641C0F6010115F0C9FE099940F2FC70E2
:1023C000C2F201400068C26D9047FFE7FFE72EB000
:1023D00080BD00000000000080B5AEB01EA91091C5
:1023E0002D902D9808B9FFE73BE12D980C304EF267
:1023F000EE21C0F60101FDF7EFFF60B1FFE72D9878
:102400000C304EF21731C0F60101FDF7E5FF002850
:1024100040F08980FFE72D9848F20001CFF6007167
:1024200043F23332CFF6337210F09EF9012002F0FE
:10243000DBFE109880ED0E0A2D980C304EF2EE2146
:10244000C0F60101FDF7C8FFD0B9FFE7109890ED85
:102450000E0A9FED851A30EE010A80ED0E0A90ED0E
:102460000E0A9FED821AB4EE410AF1EE10FA06DD73
:10247000FFE743F23330C4F253002C90FFE717E03C
:10248000109890ED0E0A9FED781A30EE410A80ED1B
:102490000E0A90ED0E0AB4EE410AF1EE10FA06DAD9
:1024A000FFE74CF6CD40C3F6CC502C90FFE7FFE79A
:1024B000109890ED0E0A01200A9010F089FC0DF1A1
:1024C0007E000F903221FDF770FF10990A9891ED70
:1024D0000E0AB7EEC00A8DED0C0B02F061FE01464C
:1024E0000A980B9102F038FE0B999DED0C0B0346F8
:1024F0000F984EF2821CC0F6010C6A46C2F808C062
:102500005360116053EC102B4EF21141C0F60101E3
:1025100015F01CFE0F9940F2F470C2F20140006801
:10252000C26D90479DE02D980C304EF24A31C0F6B6
:102530000101FDF751FF60B1FFE72D980C304EF21D
:102540007331C0F60101FDF747FF002840F0888095
:10255000FFE72D980021CFF6FF7143F23332CFF61B
:10256000337210F001F9022002F03EFE109880ED67
:10257000000A2D980C304EF24A31C0F60101FDF7E9
:102580002BFFD0B9FFE7109890ED000A9FED361AA7
:1025900030EE010A80ED000A90ED000A9FED331A3B
:1025A000B4EE410AF1EE10FA06DDFFE743F23330F4
:1025B000C4F253001E90FFE717E0109890ED000A58
:1025C0009FED291A30EE410A80ED000A90ED000AD5
:1025D000B4EE410AF1EE10FA06DAFFE74CF6CD4010
:1025E000C3F6CC501E90FFE7FFE7109890ED000A6D
:1025F0000220049010F0ECFB0DF14600099032210E
:10260000FDF7D3FE1099049891ED000AB7EEC00AC9
:102610008DED060B02F0C4FD01460498059102F011
:102620009BFD05999DED060B034609984EF2821C11
:10263000C0F6010C6A46C2F808C05360116053EC42
:10264000102B4EF23641C0F6010115F07FFD0999BD
:1026500040F2FC70C2F201400068C26D9047FFE793
:10266000FFE72EB080BD00BFCDCCCC3D333353400F
:1026700010B584B00390039808B9FFE7FFE0039812
:102680000C304EF2E721C0F60101FDF7A5FE00284F
:1026900075D1FFE7039848F20001CFF6007143F2CD
:1026A0003332CFF6337211F017FE00208DF80B0095
:1026B000039890F85C0078B9FFE70399012081F84E
:1026C0005C008DF80B00039824304EF2A731C0F661
:1026D0000101FDF78FFE2BE0039890F85C000128C4
:1026E0000FD1FFE70399022081F85C008DF80B0001
:1026F000039824304EF29F31C0F60101FDF77AFEB7
:1027000015E0039890F85C0002280FD1FFE70399C9
:10271000002081F85C008DF80B00039824304EF205
:10272000A331C0F60101FDF765FEFFE7FFE7FFE714
:10273000DDF80CE0BEF804000530BEF806100531E7
:102740000EF12402DEF858309EF856C0DEF8004044
:10275000EE46CEF80440CEF800C080B289B2FEF753
:10276000FBFD9DF80B1040F20C10C2F2014010F07E
:10277000A3FC9DF80B10012010F07AFB7FE003987A
:102780000C304EF24331C0F60101FDF725FE002862
:1027900074D1FFE703980021CFF6FF7143F2333283
:1027A000CFF6337211F098FD00208DF80A000398DF
:1027B00090F85C0078B9FFE70399012081F85C008C
:1027C0008DF80A00039824304EF2A731C0F60101BB
:1027D000FDF710FE2BE0039890F85C0001280FD164
:1027E000FFE70399022081F85C008DF80A00039846
:1027F00024304EF29F31C0F60101FDF7FBFD15E0DC
:10280000039890F85C0002280FD1FFE7039900209D
:1028100081F85C008DF80A00039824304EF2A33151
:10282000C0F60101FDF7E6FDFFE7FFE7FFE7DDF892
:102830000CE0BEF804000530BEF8061005310EF1BC
:102840002402DEF858309EF856C0DEF80040EE460E
:10285000CEF80440CEF800C080B289B2FEF77CFD0D
:102860009DF80A1040F23810C2F2014010F024FC2A
:102870009DF80A10022010F0FBFAFFE7FFE704B012
:1028800010BD00000000000080B58EB08DF837004C
:102890009DF8370002F0E8FB8DF836009DF9360010
:1028A000B0F1FF3F01DCFFE791E100200C909DF9C2
:1028B000360041F20002C3F20002D82110FB0120D1
:1028C00090F8C80000284ED1FFE79DF9360041F28C
:1028D0000002C3F20002D82110FB012090ED340A5F
:1028E0009FEDBC1A20EE010A9FEDBC1A80EE010A92
:1028F0008DED0C0A00200B90FFE70B98632831D870
:10290000FFE79DED0C0A8DED030A9DED0B0AB8EE75
:10291000C00A9FEDB31A20EE010A9FEDB21A80EEB5
:10292000010A15F03BFCB0EE401A9DED030AB7EE2C
:10293000002A31EE021A20EE010ABCEEC00A10EEA7
:10294000100A9DF9361041F20003C3F20003D822A9
:1029500011FB02310B9A21F81200FFE70B980130AE
:102960000B90CAE726E19DF9360041F20002C3F25E
:102970000002D82110FB012090F8C800012850D196
:10298000FFE79DF9360041F20002C3F20002D821B0
:1029900010FB012090ED340A9FED8E1A20EE010A03
:1029A0009FED8D1A80EE010A8DED0C0A9DF936001F
:1029B00010FB012090F8C9006421484345F62941E5
:1029C000C0F28F21A0FB0110ADF82A000020099071
:1029D000FFE70998632823D8FFE70998BDF82A1074
:1029E000884208DAFFE79DED0C0ABCEEC00A10EE43
:1029F000100A029002E000200290FFE702989DF981
:102A0000361041F20003C3F20003D82211FB023159
:102A1000099A21F81200FFE7099801300990D8E7D8
:102A2000C7E09DF9360041F20002C3F20002D8214E
:102A300010FB012090F8C800022840F0B980FFE7A1
:102A40009DF9360041F20002C3F20002D82110FBCA
:102A5000012090ED340A9FED5F1A20EE010A9FEDF0
:102A60005E1A80EE010A8DED0C0A9DF9360010FB0E
:102A7000012090F8C900642803DBFFE76320019080
:102A80001FE09DF9360041F20002C3F20002D82196
:102A900010FB012090F8C90018B9FFE70120009051
:102AA0000CE09DF9360041F20002C3F20002D82189
:102AB00010FB012090F8C9000090FFE700980190FA
:102AC000FFE701988DF823009DF823006421484317
:102AD00045F62941C0F28F21A0FB0110ADF820007E
:102AE0009DED0C0ABDF8200001EE100AB8EE411A67
:102AF00080EE010A8DED070A9DED0C0ABDF820005D
:102B0000C0F1640001EE100AB8EE411A80EE010A2D
:102B10008DED060A00200590FFE70598BDF820100E
:102B200088421DDAFFE79DED070A059A01EE102A9B
:102B3000B8EEC11A20EE010ABCEEC00A10EE100A6F
:102B40009DF9361041F2000CC3F2000CD82311FBA2
:102B500003C121F81200FFE7059801300590DCE77A
:102B6000BDF820000490FFE7049863281FD8FFE712
:102B70009DED060A049AC2F1640001EE100AB8EE57
:102B8000411A20EE010ABCEEC00A10EE100A9DF9AF
:102B9000361041F2000CC3F2000CD82311FB03C124
:102BA00021F81200FFE7049801300490DCE7FFE70A
:102BB000FFE7FFE79DF9360041F20002C3F2000291
:102BC000D82110FB0121002081F8D400FFE70EB0CE
:102BD00080BD00BF00F07F45333353403333D340D3
:102BE000DB0FC9400000C84280B586B08DF81300E5
:102BF0009DF8130002F01CFA8DF812009DF91200E6
:102C0000B0F1FF3F03DCFFE70020059041E000202A
:102C100003909DF9121001EB410240F2D001C2F283
:102C2000014101EB8201097A49088DF80B100190EE
:102C3000FFE7019840F2FE31884227D8FFE79DF96F
:102C4000121040F60000C3F2000000EB8120019951
:102C5000405C9DF80B10884213DCFFE79DF91210D1
:102C600040F60000C3F2000000EB81210198084407
:102C700040789DF80B10884203DBFFE70198039032
:102C800004E0FFE7019801300190D2E70398059036
:102C9000FFE7059806B080BD80B584B08DF80E00C2
:102CA0009DF80E0002F0C4F98DF80D009DF90D009D
:102CB000B0F1FF3F04DCFFE700208DF80F0054E087
:102CC00000208DF80C00FF218DF80B100190FFE71C
:102CD00001990020B0EB912F29D1FFE79DF90D104C
:102CE00040F60000C3F2000000EB81200199405C37
:102CF0008DF803009DF803009DF80C10884205DD57
:102D0000FFE79DF803008DF80C00FFE79DF8030036
:102D10009DF80B10884205DAFFE79DF803008DF857
:102D20000B00FFE7FFE7019801300190D0E79DF825
:102D30000C009DF80B10411A9DF90D0000EB4002AC
:102D400040F2D000C2F2014000EB820211729DF904
:102D50000D1001EB410100EB8100017A00200529F3
:102D6000C8BF01208DF80F00FFE79DF80F0004B0E9
:102D700080BD00000000000080B588B08DF81F0005
:102D8000069105929DF81F0002F052F98DF813008C
:102D90009DF91300B0F1FF3F01DCFFE7FFE09DF973
:102DA000130000EB400140F2B800C2F2014000EB1A
:102DB0008100807A012873D1FFE79DF9130000EBB1
:102DC000400140F2B800C2F2014050F8211000204A
:102DD000B0EBD12F64D1FFE79DF9130000EB400168
:102DE00040F2B800C2F2014050F8210003900020E8
:102DF0000290FFE702980599884225D2FFE79DF9E6
:102E0000131040F20000C3F2000000EB8120069A8C
:102E1000029B1A446FF39F22805C00EE100AB8EE0A
:102E2000400A40F20000C2F2004000EB413003993A
:102E300000EB810080ED000A039801300390FFE76A
:102E4000029801300290D5E703989DF9131001EB29
:102E5000410240F2B801C2F2014141F82200039858
:102E6000B0F5006F1BD3FFE79DF9130000EB4001A5
:102E700040F2B800C2F2014000EB810200219172E1
:102E80009DF9132002EB420240F822109DF9131025
:102E900001EB410100EB810101200872FFE77EE0B8
:102EA0009DF9130000EB400140F2B800C2F201406E
:102EB00000EB8100807A022870D1FFE79DF91300B2
:102EC00000EB400140F2B800C2F2014000EB81008B
:102ED00041680020B0EB912F60D1FFE79DF913000E
:102EE00000EB400140F2B800C2F2014000EB81006B
:102EF0004068019000200090FFE700980599884203
:102F00001ED2FFE79DF9132040F20000C3F200003B
:102F100000EB82200699009B19446FF39F21405CCF
:102F200040F60001C3F2000101EB8221019A8854AE
:102F3000019801300190FFE7009801300090DCE734
:102F400001989DF9131001EB410240F2B801C2F261
:102F5000014101EB820148600198B0F5806F1CD3FC
:102F6000FFE79DF9130000EB400140F2B800C2F208
:102F7000014000EB8102002191729DF9132002EBC8
:102F8000420200EB820251609DF9131001EB4101F6
:102F900000EB810101204872FFE7FFE7FFE708B07F
:102FA00080BD00000000000080B582B08DF80700F1
:102FB0008DF806109DF8070002F03AF88DF805002C
:102FC0009DF90500B0F1FF3F01DCFFE723E09DF82C
:102FD000060068B9FFE79DF9050000EB400140F2EB
:102FE000B800C2F2014000EB81010020087212E03B
:102FF0009DF8060001280DD1FFE79DF9050000EBC3
:10300000400140F2B800C2F2014000EB8101002013
:103010004872FFE7FFE702B080BD0000000000003B
:1030200080B582B08DF807008DF806109DF8070076
:1030300001F0FEFF8DF805009DF90500B0F1FF3F9E
:1030400001DCFFE725E09DF8060088B1FFE79DF968
:10305000051040F20000C3F2000000EB81204FF4A5
:103060008061FDF7A2F99DF807000FF0B9FF10E0AD
:103070009DF9050000EB400140F2B800C2F20140AA
:1030800000EB8101002088729DF807000FF0E8FF37
:10309000FFE702B080BD000080B586B08DF8170054
:1030A0008DF816109DF8170001F0DEFF8DF8150061
:1030B0009DF91500B0F1FF3F01DCFFE749E09DF805
:1030C0001600A8B3FFE79DF81700FFF7DDFB9DF89A
:1030D000170002F035F8049004999DF9150041F2AB
:1030E0000003C3F200030193D822029210FB0232C4
:1030F0006B460020186040F22C20C2F2014064238D
:10310000039303F059FEDDF804C0029B039A9DF877
:1031100017009DF9151011FB03C1D1F8CC105143D4
:103120000FF032FF9DF81700012100F015F810E0B4
:103130009DF81700002100F00FF89DF8170001F02E
:10314000FFFF014640F22C20C2F2014003F008FFCD
:10315000FFE706B080BD000080B582B08DF80700A3
:103160008DF806109DF80700012822D1FFE79DF891
:10317000060040F28001C2F2014108719DF806008C
:1031800058B1FFE700200121FEF7A2FC40F20460E5
:10319000C2F201400BF0E4FF0AE000210846FEF70E
:1031A00097FC40F20460C2F201400CF055F8FFE7D2
:1031B00027E09DF80700022822D1FFE79DF80600CE
:1031C00040F28801C2F2014108719DF8060058B131
:1031D000FFE702200121FEF77BFC40F25060C2F2C3
:1031E00001400BF0BDFF0AE002200021FEF770FC59
:1031F00040F25060C2F201400CF02EF8FFE7FFE70A
:10320000FFE702B080BD0000B0B584B094468E46A2
:1032100004460C980B990A9A099A089A0394ADF8F7
:103220000AE0ADF808C0ADF80630ADF804208DF81E
:1032300003108DF80200039808B9FFE720E0BDF8FD
:103240000A0003998880BDF808000399C880BDF87A
:10325000060003990881BDF8040003994881099884
:10326000039908600A98039948629DF8030003993E
:1032700081F828009DF80200039981F82900FFE7F2
:1032800004B0B0BD0000000080B582B0019001988C
:10329000806B0090009803F0BBFC0099012008713E
:1032A00002B080BD0000000080B582B0019001989E
:1032B000806B0090009803F03FFB0099012008719B
:1032C00002B080BD0000000080B582B0019001987E
:1032D000806B00900099086940F004000861009834
:1032E00003F09EFC00990120087102B080BD00002F
:1032F00080B582B001900198806B009000990869B8
:1033000040F004000861009803F01EFB00990120C2
:10331000087102B080BD000080B582B001900198B4
:10332000806B0090009803F077FC02B080BD000035
:1033300080B582B001900198806B0090009803F0F6
:10334000FFFA02B080BD000080B582B041F20000FB
:10335000C3F200004FF4D871FDF727F80020019068
:10336000FFE7019801281FD8FFE7019841F200020A
:10337000C3F20002D82100FB0123322083F8C900E8
:10338000019800FB01234FF47A70C3F8CC00019838
:1033900000FB01210020C4F24000C1F8D000FFE78B
:1033A000019801300190DCE701208DF80300FFE770
:1033B0009DF80300022817DCFFE79DF803000021B9
:1033C000FFF7CAFE9DF8030001F0BAFE014640F285
:1033D0002C20C2F2014003F0C3FDFFE79DF803007B
:1033E00001308DF80300E3E702B080BD000000006B
:1033F000B0B58CB040F2E801C2F2014101200A9060
:1034000008700DF00DF84FF07F400690FDF7CCFEF0
:10341000069A0A9869460A61C8604EF2AD10C0F675
:10342000010088604FF0FF344C6028200B9008604A
:103430004EF2BA10C0F601004FF48C711422DC2356
:103440000DF062F80A9A01460B9840F60003C2F2AA
:103450000143196069460C61CA604EF28C12C0F6D5
:1034600001028A6048F20002CFF6007207924A60B9
:1034700008604EF2A010C0F60100B421C8220892E4
:10348000A02309930CF0D0FFDDF81CC0089A099B1B
:10349000DDF828E005460B9840F25C01C2F20141DC
:1034A0000D600D6842F29941C0F6010169666946F6
:1034B0000C61C1F80CE04EF2961EC0F6010EC1F888
:1034C00008E0C1F804C008604EF2C410C0F6010064
:1034D0004FF4F0710CF0A8FF014640F25800C2F220
:1034E00001400160016842F20140C0F601004866F7
:1034F0000DF0F2F80CB0B0BD80B540F2A820C2F2D9
:10350000014004F0B5FC80BD80B540F22030C2F22D
:10351000014004F0ADFC80BD80B540F29830C2F2AD
:10352000014004F0A5FC80BD80B540F21040C2F21D
:10353000014004F09DFC80BD89B0DDF824C00890F6
:1035400007910692059308980068406C00F040408F
:103550000999059A41EA02410843089909684864B3
:10356000069808990968C86308984068B0F5403F14
:103570007CD1FFE79DF81F00000603909DF81E0018
:10358000000402909DF81D00000201909DF81C00AF
:1035900000900898806848B9FFE7019802990843AD
:1035A000039908430099084304905AE008988068FA
:1035B000012807D1FFE701980299084300990843C1
:1035C00004904DE008988068022812D1FFE7029825
:1035D000C00C02900198800A01900098C0080090E9
:1035E00001984001029940EAC120009908430490E3
:1035F00035E008988068032818D1FFE70398C00FCA
:1036000003900298C00C02900198C00A01900098A3
:10361000C008009001984001029940EA8120039976
:1036200040EAC13000990843049017E00398000F66
:1036300003900298000D02900198000B01900098F1
:103640000009009001980001029940EA01200399C5
:1036500040EA0130009908430490FFE7FFE7FFE7E5
:10366000FFE7049808990968886310E008984068A3
:10367000B0F5802F05D1FFE70798089909684861E0
:1036800004E0079808990968C860FFE7FFE709B0F8
:10369000704700000000000083B0029002980168AB
:1036A00001201022C4F202029142009000F0A38097
:1036B000FFE70298016801202822C4F20202914229
:1036C000009000F09880FFE70298016801204022F6
:1036D000C4F202029142009000F08D80FFE7029850
:1036E000016801205822C4F202029142009000F0C9
:1036F0008280FFE70298016801207022C4F2020272
:103700009142009077D0FFE702980168012088225B
:10371000C4F20202914200906DD0FFE70298016866
:103720000120A022C4F202029142009063D0FFE780
:10373000029801680120B822C4F20202914200906E
:1037400059D0FFE702980168012040F21042C4F20C
:103750000202914200904ED0FFE7029801680120DA
:1037600040F22842C4F202029142009043D0FFE7A7
:1037700002980168012040F24042C4F202029142E4
:10378000009038D0FFE702980168012040F25842CB
:10379000C4F20202914200902DD0FFE70298016826
:1037A000012040F27042C4F202029142009022D005
:1037B000FFE702980168012040F28842C4F2020249
:1037C0009142009017D0FFE702980168012040F273
:1037D000A042C4F20202914200900CD0FFE702988E
:1037E00000684FF64831CBF6FD710844B0FA80F01E
:1037F00040090090FFE70098C00740B3FFE7029838
:10380000007810384AF6AB21CAF6AA21A0FB0110B5
:1038100000090190019800F0070148F6C050C0F679
:103820000100405C0299C8650198042807D3FFE7AE
:1038300002990868042262F30900886506E002998B
:10384000086840F2FF3290438865FFE705E002997F
:10385000086820F0FF008865FFE70298806D03B0DC
:10386000704700000000000084B0039003980068D7
:10387000019003980168012045F20842C5F6020252
:10388000914200904ED0FFE703980168012045F275
:103890001C42C5F602029142009043D0FFE7039814
:1038A0000168012045F23042C5F6020291420090C3
:1038B00038D0FFE703980168012045F24442C5F67D
:1038C0000202914200902DD0FFE703980168012089
:1038D00045F25842C5F602029142009022D0FFE71D
:1038E00003980168012045F26C42C5F6020291423C
:1038F000009017D0FFE703980168012045F280424D
:10390000C5F60202914200900CD0FFE703980068D0
:103910004AF66C31CAF2FD710844B0FA80F04009F1
:103920000090FFE70098C00710B3FFE70398007806
:1039300008384CF6CD41CCF6CC41A0FB0110000973
:103940000290029945F60000C5F6020000EB8100E6
:1039500003990866039945F68000C5F6020048669B
:10396000029800F01F01012088400399886635E025
:103970000398007810384AF6AB21CAF6AA21A0FBBA
:10398000011000090290019840F2B841C4F202010E
:1039900088420CD8FFE7019840F21041C4F20201BE
:1039A000884204D3FFE7029808300290FFE70299AB
:1039B00040F60000C4F2020000EB810003990866A3
:1039C000039940F68000C4F202004866029800F0B5
:1039D0001F010120884003998866FFE704B0704703
:1039E00083B002900298007901900198002800F0BD
:1039F0008A80FFE70198082800F28580FFE7029897
:103A00000168012045F20842C5F602029142009089
:103A10004ED0FFE702980168012045F21C42C5F62E
:103A200002029142009043D0FFE702980168012012
:103A300045F23042C5F602029142009038D0FFE7CD
:103A400002980168012045F24442C5F60202914203
:103A500000902DD0FFE702980168012045F25842FE
:103A6000C5F602029142009022D0FFE70298016859
:103A7000012045F26C42C5F602029142009017D037
:103A8000FFE702980168012045F28042C5F6020274
:103A9000914200900CD0FFE7029800684AF66C3122
:103AA000CAF2FD710844B0FA80F040090090FFE7C7
:103AB0000098C00780B1FFE7019945F6FC00C5F604
:103AC000020000EB81000299C866029945F6401099
:103AD000C5F6020008670FE0019940F6FC00C4F249
:103AE000020000EB81000299C866029940F640107E
:103AF000C4F202000867FFE70198411E01208840D8
:103B000002994867FFE703B070470000000000001B
:103B100085B0049000208DF80F000498806918BBD0
:103B2000FFE70498806A029003281BD80299DFE817
:103B300001F0020D0218049890F82F00C00720B180
:103B4000FFE701208DF80F00FFE70CE00498C06A42
:103B5000B0F1C07F04D1FFE701208DF80F00FFE72F
:103B600001E000E0FFE747E004988069B0F5005FFE
:103B700026D1FFE70498806A019003281ED8019996
:103B8000DFE801F00206021101208DF80F0016E0B7
:103B9000049890F82F00C00720B1FFE701208DF8AE
:103BA0000F00FFE70BE00498C06AB0F1C07F04D1BA
:103BB000FFE701208DF80F00FFE700E0FFE71AE0C4
:103BC0000498806A0090032804D3FFE70098032834
:103BD00004D00EE001208DF80F000BE0049890F85F
:103BE0002F00C00720B1FFE701208DF80F00FFE78D
:103BF00000E0FFE7FFE7FFE79DF80F0005B0704723
:103C000089B008900791069205930898806D0490FA
:103C10000898806D03900898016801201022C4F272
:103C200002029142029000F00381FFE708980168C8
:103C300001202822C4F202029142029000F0F88092
:103C4000FFE70898016801204022C4F20202914275
:103C5000029000F0ED80FFE70898016801205822EB
:103C6000C4F202029142029000F0E280FFE708985D
:103C7000016801207022C4F202029142029000F019
:103C8000D780FFE70898016801208822C4F2020269
:103C90009142029000F0CC80FFE708980168012073
:103CA000A022C4F202029142029000F0C180FFE71C
:103CB000089801680120B822C4F2020291420290E1
:103CC00000F0B680FFE708980168012040F210423A
:103CD000C4F202029142029000F0AA80FFE7089825
:103CE0000168012040F22842C4F20202914202908F
:103CF00000F09E80FFE708980168012040F24042F2
:103D0000C4F202029142029000F09280FFE708980C
:103D10000168012040F25842C4F20202914202902E
:103D200000F08680FFE708980168012040F27042A9
:103D3000C4F20202914202907AD0FFE7089801682B
:103D4000012040F28842C4F20202914202906FD0F8
:103D5000FFE708980168012040F2A042C4F2020285
:103D60009142029064D0FFE708980168012040F278
:103D7000B842C4F202029142029059D0FFE708987B
:103D80000168012045F20842C5F602029142029004
:103D90004ED0FFE708980168012045F21C42C5F6A5
:103DA00002029142029043D0FFE708980168012087
:103DB00045F23042C5F602029142029038D0FFE748
:103DC00008980168012045F24442C5F6020291427A
:103DD00002902DD0FFE708980168012045F2584273
:103DE000C5F602029142029022D0FFE708980168CE
:103DF000012045F26C42C5F602029142029017D0B2
:103E0000FFE708980168012045F28042C5F60202EA
:103E1000914202900CD0FFE7089800684AF66C3196
:103E2000CAF2FD710844B0FA80F040090290FFE741
:103E30000298C00770B1FFE70898416E806E486035
:103E40000898C06E28B1FFE70898016F406F48607E
:103E5000FFE7FFE70898016801201022C4F2020280
:103E60009142019000F0A380FFE7089801680120CB
:103E70002822C4F202029142019000F09880FFE7EC
:103E80000898016801204022C4F202029142019088
:103E900000F08D80FFE70898016801205822C4F2E5
:103EA00002029142019000F08280FFE708980168C9
:103EB00001207022C4F202029142019077D0FFE704
:103EC0000898016801208822C4F202029142019000
:103ED0006DD0FFE7089801680120A022C4F2020219
:103EE0009142019063D0FFE7089801680120B82251
:103EF000C4F202029142019059D0FFE7089801688C
:103F0000012040F21042C4F20202914201904ED0D0
:103F1000FFE708980168012040F22842C4F202023B
:103F20009142019043D0FFE708980168012040F2D8
:103F30004042C4F202029142019038D0FFE7089853
:103F40000168012040F25842C4F2020291420190FD
:103F50002DD0FFE708980168012040F27042C4F2BA
:103F600002029142019022D0FFE7089801680120E7
:103F700040F28842C4F202029142019017D0FFE75A
:103F800008980168012040F2A042C4F20202914266
:103F900001900CD0FFE7089800684FF64831CBF647
:103FA000FD710844B0FA80F040090190FFE70198E4
:103FB000C00750B3FFE70898C06D00F01F013F2015
:103FC00088400499886008980168086820F4802077
:103FD0000860059808990968486008988068402832
:103FE00009D1FFE706980899096888600798089939
:103FF0000968C86008E00798089909688860069809
:1040000008990968C860FFE782E008980168012004
:1040100045F20842C5F60202914200904ED0FFE7F9
:1040200008980168012045F21C42C5F6020291423F
:10403000009043D0FFE708980168012045F2304224
:10404000C5F602029142009038D0FFE70898016857
:10405000012045F24442C5F60202914200902DD063
:10406000FFE708980168012045F25842C5F60202B0
:104070009142009022D0FFE708980168012045F2A4
:104080006C42C5F602029142009017D0FFE70898F3
:104090000168012045F28042C5F60202914200907B
:1040A0000CD0FFE7089800684AF66C31CAF2FD713F
:1040B0000844B0FA80F040090090FFE70098C0077C
:1040C00020B3FFE70898C06D00F01F010120884071
:1040D00003994860059808990968486008988068BD
:1040E000402809D1FFE70698089909688860079871
:1040F00008990968C86008E0079808990968886005
:10410000069808990968C860FFE700E0FFE7FFE745
:1041100009B0704700000000704700000000000078
:1041200010B58EB00DF1180CCDF80CC0DDF844C000
:10413000DDF840C00D900C910B920A930D9848B198
:10414000FFE70C9830B1FFE7109818B1FFE70A9825
:1041500008B9FFE7AEE003989DED100AB8EE400AFB
:104160000D99098901EE101AB8EEC11A80EE010A04
:1041700080ED030A90ED030AB7EE001AB4EE410A8F
:10418000F1EE10FA04DAFFE74FF07E500990FFE7F6
:104190000020ADF82200ADF8200001218DF81F109D
:1041A000ADF81C00FFE7BDF81C000D990989884295
:1041B00080F28080FFE70398BDF81C1000EE101A13
:1041C000B8EEC00A90ED031A20EE010ABCEEC00A58
:1041D00080ED000A06981099884201D3FFE769E054
:1041E000002005900B98012805D1FFE70C9806994F
:1041F000405C059015E00B98022806D1FFE70C986B
:10420000069930F8110005900AE00B98042806D1B1
:10421000FFE70C98069950F821000590FFE7FFE7AB
:10422000FFE705980A99884203D9FFE70A980590A5
:10423000FFE70A9A0598111A0D9840890138C317AB
:10424000A1FB000C01FB03C10023FCF745F8ADF80E
:1042500012009DF81F0060B1FFE70D98BDF81C101B
:10426000BDF81220119BFDF77BFE00208DF81F008A
:1042700011E00D98BDF82210BDF82020BDF81C30CB
:10428000BDF812C0119CEE46CEF80440CEF800C036
:10429000FDF7BAFDFFE7BDF81C00ADF82200BDF840
:1042A0001200ADF82000FFE7BDF81C000130ADF8AA
:1042B0001C0078E70EB010BD80B582B00190019867
:1042C00008B9FFE71CE0DDF804C0BCF80400BCF846
:1042D0000610BCF80820BCF80A300CF1300CEE4691
:1042E000CEF800C0FCF794FF0198303047F28031DF
:1042F000C0F20C01FCF759F86420FCF7D5FEFFE78B
:1043000002B080BD0000000080B586B084460898E9
:10431000ADF816C0ADF81410ADF8122003938DF867
:104320000B009DF80B004008ADF80800BDF8080030
:104330004042ADF80600FFE7BDF90600BDF90810E0
:10434000884218DCFFE7BDF81600BDF81210BDF872
:1043500006201144BDF81420039BEC46CCF8003035
:104360008BB21946FDF7E8F8FFE7BDF8060001300B
:10437000ADF80600E0E706B080BD000000000000D8
:1043800080B586B084460898ADF816C0ADF8141014
:10439000ADF8122003938DF80B009DF80B00400838
:1043A000ADF80800BDF808004042ADF80600FFE790
:1043B000BDF90600BDF90810884218DCFFE7BDF81A
:1043C0001600BDF806100844BDF81410BDF81230F0
:1043D000039AEC46CCF8002082B21046FDF7ACF808
:1043E000FFE7BDF806000130ADF80600E0E706B0D3
:1043F00080BD00000000000081B0EFF3108072B6B5
:104400000090FFE7FEE7000044F60C01C5F602014C
:10441000086840F002000860FFE744F60400C5F6B3
:10442000020000688004002801D4FFE7F5E7704728
:1044300080B583B0029001910198006800BBFFE74E
:104440000298006847F6FF718843019A009251680C
:10445000D2F808E0D2F80CC0136941EA0E0141EA33
:104460000C0119435369194393691943D3691943DB
:10447000136A1943526A114308430299086025E000
:104480000298006820F4F840019AD169136A526AD0
:10449000194311430843029908600298406847F69F
:1044A000FF718843019A5168D2F808E0D2F80CC035
:1044B000136941EA0E0141EA0C011943536919439A
:1044C00092691143084302994860FFE7002003B056
:1044D00080BD00000000000082B0019000910198B2
:1044E000406943F6FE718843009940EA4100019912
:1044F0004861002002B0704783B0029001910092A1
:10450000029800696FF31500019A11685368D2F898
:1045100008C0D26819436FF01F0303EB4C13194313
:1045200041EA4221084302990861002003B0704724
:1045300010B583B00290019100920098A8BBFFE7EC
:104540000298806800F07040019A11685468D2F8AF
:1045500008E0D2F80CC001396FF00F0303EB04132D
:1045600019436FF0FF0303EB0E2319434FF20003CF
:10457000CFF6FF7303EB0C331943D2F810C00023BE
:10458000CFF6FF7303EB0C431943D2F814C000239A
:10459000CFF6F07303EB0C5319439269013A41EAE9
:1045A00002610843029988603CE00298806840F606
:1045B000FF71CFF60F7108400199CA684B694FF23D
:1045C0000001CFF6FF7101EB02310022CFF6F0724D
:1045D00002EB035211430843029988600298C068B5
:1045E00000F07040019A11685468D2F808E0D2F8DF
:1045F00010C001396FF00F0303EB041319436FF080
:10460000FF0303EB0E2319430023CFF6FF7303EBE5
:104610000C4319439269013A41EA02610843029945
:10462000C860FFE7002003B010BD000000000000DC
:1046300080B5FEF789FE80BD80B582B08DF8070099
:104640009DF8070038B1FFE70120FEF71DF90220B1
:10465000FEF71AF9FFE702B080BD0000000000007D
:104660002DE9F043B9B040F20810C2F20140012632
:1046700006700BF0D5FE4FF07F40FCF795FD6946C4
:104680004FF0FF3726970F61CE604EF2E910C0F66B
:104690000100886048F20000CFF60070209048606A
:1046A000282008604EF20020C0F601000A225023A4
:1046B0001C9311460BF0B8FE014640F26400C2F2B2
:1046C00001400160016842F2B950C0F6010048663D
:1046D00029A809904021FBF768FE09984EF2C531E0
:1046E000C0F601014EF28212C0F60102059213F0EB
:1046F0002DFD099869460F610025CD608860FF2077
:10470000CFF600700690486020200A9008604EF2B4
:10471000AB30C0F6010014212191AA2207924FF478
:10472000827308930BF0F0FE059A0346099840F255
:10473000F471C2F201410B600B6842F61941C0F6F8
:1047400001010B91D9654EF2EB31C0F6010113F076
:10475000FDFCDDF818C0079A089BDDF824E00A98F4
:1047600069460F61CD60C1F808E0C1F804C0086077
:104770004EF2B830C0F601004FF4E67123910BF011
:10478000C3FE0B9A1C9B21998646209840F2FC7C24
:10479000C2F2014CCCF800E0DCF800C0CCF85C20A0
:1047A0006A461761D6604EF2D11CC0F6010CC2F801
:1047B00008C0506032201E9010604EF2D510C0F636
:1047C0000100D2220F920BF02FFE0F9A1C9BDDF8F6
:1047D00080C086461E9840F22C01C2F20141C1F809
:1047E00000E0D1F800E042F2E121C0F601010D91B4
:1047F000CEF8641069460F61CE604EF2A33EC0F65B
:10480000010ECDF838E0C1F808E0C1F804C0086036
:104810004EF2E720C0F6010082210C910BF004FE5D
:104820001C9BDDF880C0219986461E9840F27802D4
:10483000C2F20142C2F800E0D2F800E042F2716236
:10484000C0F600021092CEF864206A461761D66066
:104850004EF2C72EC0F6010ECDF844E0C2F808E0D3
:10486000C2F804C010604EF2EE20C0F601004FF412
:10487000877212920BF0D8FD0C99129A1C9BDDF8EE
:1048800080E004461E9840F2700CC2F2014CCCF855
:104890000040DCF8004042F2D93CC0F6000CCDF8F4
:1048A00050C0C4F864C0EC46CCF81070CCF80C6072
:1048B0004EF2D924C0F601041394CCF80840CCF889
:1048C00004E0CCF800004EF21730C0F601000BF007
:1048D000ABFD149A1C9BDDF880C0219904461E98FC
:1048E00040F2680EC2F2014ECEF80040DEF800E061
:1048F000CEF864206A461761D6604EF2CE2EC0F61E
:10490000010ECDF854E0C2F808E0C2F804C010600F
:104910004EF2FB20C0F601004FF4A57216920BF088
:1049200083FD0C99169A1C9BDDF880E004461E98C6
:1049300040F2500CC2F2014CCCF80040DCF80040D0
:1049400042F2B11CC0F6000CCDF860C0C4F864C0DF
:10495000EC46CCF81070CCF80C604EF2E024C0F6B7
:1049600001041794CCF80840CCF804E0CCF800001F
:104970004EF22530C0F601000BF056FD189A1C9B34
:10498000DDF880C0219904461E9840F2480EC2F21C
:10499000014ECEF80040DEF800E0CEF864206A4612
:1049A0001761D6604EF2C32EC0F6010ECDF864E05A
:1049B000C2F808E0C2F804C010604EF20930C0F638
:1049C00001004FF4C3721B920BF02EFD0C991B9A41
:1049D0001C9BDDF880E004461E9840F2400CC2F2B9
:1049E000014CCCF80040DCF8004041F6B97CC0F640
:1049F000000CCDF87CC0C4F864C0EC46CCF8107054
:104A0000CCF80C604EF2D524C0F601041D94CCF80D
:104A10000840CCF804E0CCF800004EF23430C0F688
:104A200001000BF001FD0F9A1C9BDDF87CC023995F
:104A300004461E9840F2380EC2F2014ECEF80040F5
:104A4000DEF800E0CEF864C0EC46CCF81070CCF88C
:104A50000C604EF2DD1EC0F6010ECCF808E000241A
:104A6000CFF6FF74CCF80440CCF800004EF2E11011
:104A7000C0F601000BF0D8FC0D99DDF838C00F9A94
:104A80001C9B80461E9840F2340EC2F2014ECEF8B6
:104A90000080DEF800E0CEF8641069460F61CE6059
:104AA000C1F808C04C6008604EF24330C0F6010007
:104AB00040F23A211A910BF0B7FCDDF840C0129A8F
:104AC0001C9B2399DDF844E081461E9840F27C0847
:104AD000C2F20148C8F80090D8F80080C8F864C055
:104AE000EC46CCF81070CCF80C60CCF808E0CCF8B0
:104AF0000440CCF800004EF24A30C0F601000BF042
:104B000093FC129ADDF850C01A991C9BDDF84CE01A
:104B100081461E9840F27408C2F20148C8F800901D
:104B2000D8F80080C8F864C0EC46CCF81070CCF817
:104B30000C60CCF808E0CCF80440CCF800004EF251
:104B40007330C0F601000BF06FFCDDF850C0169A10
:104B50001C9B2399DDF854E081461E9840F26C08B6
:104B6000C2F20148C8F80090D8F80080C8F864C0C4
:104B7000EC46CCF81070CCF80C60CCF808E0CCF81F
:104B80000440CCF800004EF25730C0F601000BF0A4
:104B90004BFC169ADDF860C01A991C9BDDF85CE0AE
:104BA00081461E9840F25408C2F20148C8F80090AD
:104BB000D8F80080C8F864C0EC46CCF81070CCF887
:104BC0000C60CCF808E0CCF80440CCF800004EF2C1
:104BD0008130C0F601000BF027FCDDF860C01B9AA5
:104BE0001C9B2399DDF864E081461E9840F24C0836
:104BF000C2F20148C8F80090D8F80080C8F864C034
:104C0000EC46CCF81070CCF80C60CCF808E0CCF88E
:104C10000440CCF800004EF26530C0F601000BF005
:104C200003FC1A991B9A1C9BDDF87CC0DDF874E02C
:104C300081461E9840F24408C2F20148C8F800902C
:104C4000D8F80080C8F864C0EC46CCF81070CCF8F6
:104C50000C60CCF808E0CCF80440CCF800004EF230
:104C60009030C0F601000BF0DFFB1F9A209B2199CA
:104C70008646269840F23C0CC2F2014CCCF800E08B
:104C8000DCF800C0CCF864206A4603261661D560C3
:104C90009360506064202290106040F20C10C2F2C9
:104CA000014027903C222492F0232593FEF7ACFA92
:104CB00022982399249A259BDDF898E0EC46CCF8BD
:104CC0001060CCF80C50CCF80840CCF804E0CCF8DC
:104CD000000040F23810C2F201402890FEF794FA2A
:104CE000279890F828100EF0E7F9289890F82810E7
:104CF0000EF0E2F90BF0F0FC39B0BDE8F0830000F3
:104D000080B584B0ADF80E0002918DF807200FF049
:104D100027FCBA200FF0BCFC9DF80F000FF0B8FC88
:104D20009DF80E000FF0B4FC0FF042FC0FF018FCE1
:104D3000BB200FF0ADFC00208DF80600FFE79DF8CA
:104D400006009DF80710884215DAFFE79DF8060077
:104D50009DF807100139401A18BF01200FF088FB99
:104D600002999DF806208854FFE79DF8060001305F
:104D70008DF80600E3E70FF01BFC04B080BD0000D7
:104D800080B58EB0002006900D900C900B900A908C
:104D90000990082001900990012004900A9041F6A2
:104DA0000000C5F60200079009A9089105F044FA31
:104DB000069A41F60040C5F60200029010210391C8
:104DC00005F036FC0199069A079805F031FC0A2097
:104DD000059005F065F902980399049A05F028FCFE
:104DE000059805F05DF9069A079808990A920B92C2
:104DF00005F022FA322005F053F90EB080BD000014
:104E000080B58CB000208DF8050048F24E100DF1F1
:104E10002E010122FFF774FF9DF82E0000060028E6
:104E200004D4FFE700208DF82F0075E09DF82E00D8
:104E300000F00F008DF804009DF80400012855DBF8
:104E4000FFE79DF80400052850DCFFE79DF804000B
:104E5000C000C2B248F24F100DF10601FFF750FF3B
:104E60009DF8040040F2D071C2F2014108700020A8
:104E70008DF80300FFE79DF803009DF804108842B9
:104E800030DAFFE79DF803300DF1060000EBC302B6
:104E90005178927841EA022240F2D071C2F2014187
:104EA00001EB43035A809DF8033000EBC30C9CF8E0
:104EB00003209CF804C042EA0C2201EB43039A81D0
:104EC0009DF8032000EBC20358799B7940EA032048
:104ED00001EB4201C882FFE79DF8030001308DF825
:104EE0000300C8E701208DF8050006E040F2D0710C
:104EF000C2F2014100200870FFE700208DF8020097
:104F000048F24E100DF10201012200F009F89DF85F
:104F100005008DF82F00FFE79DF82F000CB080BD35
:104F200080B584B0ADF80E0002918DF807200FF027
:104F300017FBBA200FF0ACFB9DF80F000FF0A8FB99
:104F40009DF80E000FF0A4FB00208DF80600FFE78F
:104F50009DF806009DF8071088420DDAFFE70298D9
:104F60009DF80610405C0FF093FBFFE79DF80600EC
:104F700001308DF80600EBE70FF01AFB04B080BD9E
:104F800080B582B08DF806008DF805109DF80600FA
:104F900000F04EF88DF804009DF90400B0F1FF3FD9
:104FA00004DCFFE700208DF8070029E09DF80500EC
:104FB00070B9FFE79DF9040000EB400140F2B80032
:104FC000C2F2014000EB8100007A8DF8070017E083
:104FD0009DF8050001280ED1FFE79DF9040000EBC4
:104FE000400140F2B800C2F2014000EB8100407A7B
:104FF0008DF8070004E0FFE700208DF80700FFE7C9
:105000009DF8070002B080BD81B08DF803009DF8C7
:10501000032040F26411C2F2014140F2C810C2F212
:105020000140012A08BF084601B070470000000097
:1050300081B08DF802009DF80200012809D0FFE739
:105040009DF80200022804D0FFE7FF208DF803003E
:1050500005E09DF8020001388DF80300FFE79DF997
:10506000030001B07047000081B08DF802009DF888
:105070000200012809D0FFE79DF80200022804D0B1
:10508000FFE7FF208DF8030005E09DF802000138DE
:105090008DF80300FFE79DF9030001B070470000A1
:1050A00083B08DF807008DF806109DF807002028C2
:1050B00005DBFFE79DF807007F2803DBFFE7002003
:1050C000029024E09DF806000146009180B1FFE7C0
:1050D0000098012818D1FFE79DF807104CF2C8305E
:1050E000C0F6010000EB8110A0F5006002900EE018
:1050F0009DF807104DF68830C0F6010000EB011056
:10510000A0F50070029002E000200290FFE70298F4
:1051100003B070470000000083B002900298C0F511
:1051200080600190019818B1FFE70198009002E0BB
:1051300000200090FFE7009803B0704700000000D7
:1051400081B08DF803009DF80300013818BF0120DD
:10515000000101B07047000080B582B08DF80700F3
:105160009DF80700FFF780FF8DF806009DF9060007
:1051700000280DD4FFE79DF9060041F20002C3F2BA
:105180000002D82110FB012090F8C900009002E035
:1051900000200090FFE70098C0B202B080BD000080
:1051A00080B582B08DF807009DF80700FFF75CFF1F
:1051B0008DF806009DF9060000280DD4FFE79DF943
:1051C000060041F20002C3F20002D82110FB0120C8
:1051D000D0F8CC00009002E000200090FFE700989B
:1051E00002B080BD0000000080B582B08DF80700DD
:1051F0009DF80700FFF738FF8DF806009DF90600BF
:1052000000280ED4FFE79DF9060041F20002C3F228
:105210000002D82110FB012090ED340A8DED000A28
:1052200004E09FED040A8DED000AFFE79DED000A02
:1052300002B080BD0000000080B582B08DF807008C
:105240009DF80700FFF7F4FE8DF806009DF90600B3
:1052500000280FD4FFE79DF9060000EB400140F263
:10526000D000C2F2014000EB810090ED000A8DED0C
:10527000000A04E09FED040A8DED000AFFE79DEDB2
:10528000000A02B080BD00BF000000000000000066
:1052900080B582B08DF807009DF80700FFF7C8FEC3
:1052A0008DF806009DF9060000280FD4FFE79DF950
:1052B000060000EB400140F2D000C2F2014000EBDA
:1052C000810090ED010A8DED000A04E09FED040AD3
:1052D0008DED000AFFE79DED000A02B080BD00BF22
:1052E000000000000000000080B582B08DF80700CB
:1052F0009DF80700FFF79CFE8DF806009DF906005B
:1053000000280AD4FFE79DF9061040F60000C3F21A
:10531000000000EB8120009002E000200090FFE7F9
:10532000009802B080BD000080B586B002AB00934B
:1053300003460098ADF81630ADF81410ADF8122001
:10534000BDF8161000EE101AB8EE400ABDF81410A1
:10535000013901EE101AB8EEC11A80EE010A80ED93
:10536000010A90ED010A30EE000A9FED151A20EEB9
:10537000010A12F013FF0098B0EE401AB7EE000ACF
:1053800031EE001AB0EE002A81EE021A80ED001A0A
:1053900090ED001A30EE410ABDF81200013801EE1E
:1053A000100AB8EEC11A20EE010ABCEEC00A10EED7
:1053B000100AADF80600BDF8060006B080BD00BFBB
:1053C000D00F49400000000082B08DF803009DF826
:1053D0000300012807D1FFE740F28000C2F201403C
:1053E000006801900FE09DF80300022807D1FFE755
:1053F00040F28800C2F201400068019003E0FFE73C
:1054000000200190FFE7019802B070470000000003
:1054100080B582B08DF807009DF80700FFF708FE01
:105420008DF806009DF9060000280DD4FFE79DF9D0
:10543000060000EB400140F2D000C2F2014000EB58
:105440008100007A009002E000200090FFE70098C1
:10545000C0B202B080BD000080B586B00490039158
:10546000029200200090FFE7049890F85000012875
:1054700004D1FFE702208DF817005BE004990120BA
:1054800081F85000FFE7FFE70498FBF799FC8DF8DF
:1054900007009DF80700E0BBFFE70498406D40F06F
:1054A000020020F488500499486504980068039924
:1054B000029A0BF0A1FBFFE7049800680BF034FAA6
:1054C000F0B1FFE700980130009000984FF600011E
:1054D000C2F2C351884212D3FFE70498406D40F0F6
:1054E000100020F0020004994865FFE704990020AD
:1054F00081F85000FFE701208DF817001AE0DBE784
:105500000498406D40F0010020F0020004994865C5
:1055100005E00499486D40F010004865FFE7FFE79B
:105520000499002081F85000FFE79DF807008DF8EE
:105530001700FFE79DF8170006B080BD00000000CF
:1055400080B5A6B02490239100208DF88B0023987D
:10555000006808B1FFE7FFE7FFE7249890F85000E4
:10556000012804D1FFE702208DF897002DE124994E
:10557000012081F85000FFE7FFE700201D901E90FA
:105580002498006842F20001C4F20201884206D168
:10559000FFE742F20010C4F20200089002E000208F
:1055A0000890FFE7089878B9FFE72499486D40F024
:1055B00020004865FFE72499002081F85000FFE7AC
:1055C00001208DF8970000E108980BF0E5F90790AD
:1055D000249800680BF0E0F9002840F0E280FFE733
:1055E0000798002840F0DD80FFE72498016801203B
:1055F00042F20002C4F20202914206900CD0FFE790
:10560000249800684DF60071CBF6FD710844B0FA9D
:1056100080F040090690FFE70698C10746F2003087
:10562000C5F6020000291CBF42F20030C4F202009D
:1056300021902398006800285ED0FFE721988068B9
:1056400020F44040239949680843219988602498B0
:105650000168012042F20002C4F202029142059068
:105660000CD0FFE7249800684DF60071CBF6FD7171
:105670000844B0FA80F040090590FFE70598C1079B
:1056800046F20030C5F6020000291CBF42F200308D
:10569000C4F2020042F20031C4F20201884212D187
:1056A000FFE742F20000C4F202000BF05DF9039044
:1056B00042F20010C4F202000BF056F901460398C2
:1056C0000843049007E046F20000C5F602000BF024
:1056D0004BF90490FFE7049868B9FFE721988068C8
:1056E00040F61F718843239A11689268114308435A
:1056F00021998860FFE753E02199886820F44040B1
:10570000886024980168012042F20002C4F202027B
:10571000914202900CD0FFE7249800684DF600718A
:10572000CBF6FD710844B0FA80F040090290FFE723
:105730000298C10746F20030C5F6020000291CBFDE
:1057400042F20030C4F2020042F20031C4F202011F
:10575000884212D1FFE742F20000C4F202000BF0CF
:1057600003F9009042F20010C4F202000BF0FCF8C2
:10577000014600980843019007E046F20000C5F694
:1057800002000BF0F1F80190FFE7019838B9FFE74C
:105790002199886840F61F7290438860FFE7FFE711
:1057A00008E02499486D40F02000486501208DF8FC
:1057B0008B00FFE7FFE72499002081F85000FFE706
:1057C0009DF88B008DF89700FFE79DF8970026B0B5
:1057D00080BD00000000000080B5AAB02690259191
:1057E00000208DF893002190269890F83800012829
:1057F00001D1FFE700E0FFE72598C0680021C4F26F
:10580000FF71884201D0FFE71EE02698006842F24F
:105810000001C4F20201884201D1FFE7FFE72698A8
:10582000006842F20011C4F20201884201D1FFE790
:10583000FFE72698006846F20001C5F6020188429B
:1058400001D1FFE7FFE7FFE7FFE7269890F8500058
:10585000012804D1FFE702208DF89F00F1E326998B
:10586000012081F85000FFE7FFE7269800680BF061
:105870008BF8002840F0D183FFE72598C078000618
:1058800000282DD4FFE725980068000330B9FFE712
:1058900025980068C0F384601E9015E02598006884
:1058A00090FAA0F02890289820B9FFE720208DF8E2
:1058B000A70005E02898B0FA80F08DF8A700FFE770
:1058C0009DF8A7001E90FFE71E9800F01F01012021
:1058D00000FA01F226980168C8691043C861FFE721
:1058E0002698006825990A6849680BF079F8269887
:1058F00000680BF049F82090269800680AF0FCFF39
:105900001F902098002840F0B580FFE71F980028DE
:1059100040F0B080FFE726980068259A11689268E9
:105920000BF0CEF841F20000C5F60040006800F030
:105930007040B0F1805F0BD1FFE725984069269950
:105940000968C96801F01C01490888401D901FE0E2
:1059500026980068C068C00600280BD4FFE7259889
:10596000406926990968C96801F01C014908884006
:105970001C900AE02598406926990968C96801F0D9
:105980001001490888401C90FFE71C981D90FFE714
:105990001D98239025980069042821D0FFE72698B8
:1059A000006825990A680969239B0BF0F5F8269889
:1059B0000068259A1169527E013AB2FA82F25209C0
:1059C000D2070BF005F926980068259A1169127E16
:1059D000013AB2FA82F25209D2020BF0C9F848E059
:1059E00026980068006E00F0F84025990968B0EB31
:1059F000816F07D1FFE726980168086E20F000400C
:105A00000866FFE726980068406E00F0F840259988
:105A10000968B0EB816F07D1FFE726980168486EEF
:105A200020F000404866FFE726980068806E00F08E
:105A3000F84025990968B0EB816F07D1FFE72698F8
:105A40000168886E20F000408866FFE726980068AD
:105A5000C06E00F0F84025990968B0EB816F07D15E
:105A6000FFE726980168C86E20F00040C866FFE78F
:105A7000FFE7FFE7269800680AF06EFF002840F075
:105A8000CB82FFE726980068259A1168D2680BF050
:105A900033F82598C0680021C4F2FF71884240F0B5
:105AA0005781FFE7269800681B9042F20001C4F27C
:105AB0000201884240F0A480FFE725980068022197
:105AC000C0F23041884203D1FFE701201A9094E0F0
:105AD000259800680421C0F66001884205D1FFE7DF
