:020000040800F2
:1000000018270024AD0200088116010889FC0008A9
:1000100079160108B91D0008E94A0108000000002E
:10002000000000000000000000000000092401089A
:100030004142000800000000111F0108A929010821
:10004000CB020008CB020008CB020008CB0200085C
:10005000CB020008CB020008CB020008CB0200084C
:10006000CB020008CB020008CB02000821360008B2
:10007000313600084136000851360008CB0200082E
:10008000CB020008CB020008CB020008CB0200081C
:10009000CB020008CB020008CB020008CB0200080C
:1000A000CB020008CB020008CB020008CB020008FC
:1000B000CB020008CB020008CB020008CB020008EC
:1000C000CB020008CB020008CB020008CB020008DC
:1000D000CB020008CB020008CB020008CB020008CC
:1000E000CB020008CB02000800000000CB02000891
:1000F000CB020008CB020008CB020008CB020008AC
:10010000CB020008CB020008CB020008CB0200089B
:10011000CB020008CB020008CB020008CB0200088B
:10012000CB020008CB020008CB020008CB0200087B
:10013000CB020008CB020008CB020008CB0200086B
:1001400000000000000000000000000000000000AF
:10015000CB020008CB020008CB020008CB0200084B
:10016000CB020008CB020008CB020008CB0200083B
:10017000CB020008CB020008CB0200080000000000
:10018000CB020008CB020008CB020008CB0200081B
:10019000CB020008CB020008CB020008CB0200080B
:1001A000CB020008CB020008CB020008CB020008FB
:1001B000CB020008CB020008CB020008CB020008EB
:1001C000CB020008CB020008CB020008CB020008DB
:1001D000CB020008CB020008CB020008CB020008CB
:1001E000CB020008CB020008CB020008CB020008BB
:1001F000CB020008CB020008CB020008CB020008AB
:10020000CB020008CB020008CB020008CB0200089A
:10021000CB020008CB020008CB020008CB0200088A
:10022000CB020008CB020008CB020008000000004F
:10023000CB020008CB02000800000000CB0200083F
:10024000CB020008CB020008CB020008CB0200085A
:10025000CB020008CB020008CB020008CB0200084A
:10026000CB020008CB020008CB020008CB0200083A
:10027000CB020008CB020008CB02000800000000FF
:10028000CB020008CB020008CB02000800000000EF
:1002900000000000CB020008DFF80CD000F0A0FA4C
:1002A00000480047E14B0108182700240748804711
:1002B0000748804707480047FEE7FEE7FEE7FEE7FE
:1002C000FEE7FEE7FEE7FEE7FEE7FEE7194500086A
:1002D000992A0108990200082DE9F05F05460020DF
:1002E00092469B4688460646814640241BE02846A7
:1002F00041464746224600F0ABF853465A46C01ADC
:10030000914110D311461846224600F092F82D1A5A
:1003100067EB01084F4622460120002100F089F8D2
:1003200017EB00094E41201EA4F10104DFDC484612
:1003300031462A464346BDE8F09F2DE9F0410024AE
:10034000061B254671F1000605DA01240027D0EBD3
:10035000070067EB0101161E73F1000605DA00279E
:10036000D2EB0702012567EB0303FFF7B5FF8646D3
:100370000E4617469C46AC4204D00025D0EB050E35
:1003800065EB010624B10020D2EB000760EB030C03
:10039000704631463A466346BDE8F081D2B201E08C
:1003A00000F8012B491EFBD270470022F6E710B57A
:1003B00013460A4604461946FFF7F0FF204610BDD3
:1003C00010B5044604E00B7800F8013B03B1491C6A
:1003D000521EF8D2204610BD10B5002200E0521C7B
:1003E000835C8C5CA34201D1002BF8D1D8B2E1B27E
:1003F000401A10BD034611F8012B00F8012B002A0A
:10040000F9D11846704730B50B460146002020222E
:10041000012409E021FA02F59D4205D303FA02F511
:10042000491B04FA02F52844151EA2F10102F1DC71
:1004300030BD202A04DB203A00FA02F10020704788
:100440009140C2F1200320FA03F319439040704712
:10045000202A04DB203A21FA02F00021704721FA19
:1004600002F3D040C2F12002914008431946704780
:100470002DE9FE4F804681EA0300C00F0C46009034
:1004800021F0004123F00045B8EB0200A94105D25C
:100490004046214690461C460B46024623F000404B
:1004A000104347D0270DC7F30A00C3F30A51029047
:1004B000401A019040286BDAC3F3130040F4801B0C
:1004C0000098924620B10023D2EB030A63EB0B0B9A
:1004D00001985946C0F140025046FFF7AAFF064670
:1004E0000D4650465946019A00F092F910EB08006B
:1004F0006141002487EA115284EAE7731A4340D02D
:10050000009A62B3019A012A4FEA075215DC001BD8
:1005100061EB02014FF0004202EA0752CDE90042CE
:10052000001C41F5801132462B4600F092F903B0D1
:10053000BDE8F08F40462146F9E7001B61EB020160
:10054000001C41F5801300185B412018A2F500172C
:1005500047EB030140EAD570B6196D4111E06D0813
:100560004FEA360645EAC0754FEA0752001B61EBB9
:100570000201001C41F5801149084FEA30000019C2
:10058000514132462B4603B0BDE8F04F00F052B95E
:100590000098012240000023D0EB020263EBE073DD
:1005A000009821464FEAE074B8EB000061EB0401CB
:1005B000E9E783F000435BE781F0004158E72DE96C
:1005C000FE4F81EA030404F0004421F0004100944E
:1005D0004FF0000B23F0004350EA01045ED052EAD2
:1005E00003045BD0C3F30A54C1F30A552C44A4F2AC
:1005F000F3340194A0FB0254C1F3130141F48011C0
:10060000C3F3130343F4801301FB024400FB034EC6
:10061000840A970A44EA815447EA8357A4FB07688F
:1006200002958D0A05FB07854FEA932C04FB0C54B9
:100630002705029D4FEA065847EA1637B5EB08052D
:100640006EEB070C870E920E47EA811742EA83127F
:10065000A7FB0201B6EB0B0164EB00042B0D43EA90
:100660000C335E1844EB1C50DA465146E7FB02019E
:10067000C5F313044FEA0B3343EA14534FEA043231
:10068000019C43EA0603A4F10C040294009CCDE90A
:1006900000B400F0DEF803B0BDE8F08F00200146A2
:1006A000F9E72DE9F04D81EA030404F0004B21F055
:1006B000004514464FF0000A23F0004150EA0502BD
:1006C00020D054EA01021DD0C5F30A570246C5F3F3
:1006D0001303C1F31300C1F30A5640F4801543F429
:1006E0008013A7EB0608101BD64608F2FD3873EB03
:1006F000050002D308F1010801E092185B41B8F14E
:10070000000F03DA00200146BDE8F08D00204FF411
:100710008011064684460EE0171B73EB050705D3D0
:10072000121B63EB050306434CEA010C49084FEA30
:10073000300092185B4150EA0107EDD152EA030004
:1007400012D082EA040083EA0501084305D0101B99
:10075000AB4106D20122002306E000224FF0004305
:1007600002E06FF0010253101AEB06004CEB085147
:1007700010EB0A0041EB0B01BDE8F04D00F05AB858
:10078000C1F30A52C1F3130140F2FF3341F4801167
:100790009A4202DA00200146704740F233439A42FF
:1007A000A2F2334202DC5242FFF752BEFFF741BED3
:1007B00030B5041E71F1000404DB4FF000444042E8
:1007C00064EB0101141E73F1000405DB1C464FF0BD
:1007D0000043524263EB0403994208BF904230BD8C
:1007E0001CB509480090094801900546009C06E0A8
:1007F000E06840F0010394E8070098471034AC42E9
:10080000F6D3FFF74DFD0000F0790108107A0108DA
:10081000202A06DBCB17203A41FA02F043EAE073C4
:1008200006E041FA02F3D040C2F1200291400843B1
:100830001946704710B5141E73F1000408DA401C05
:1008400041F1000192185B411A4301D120F00100EF
:1008500010BD2DE9F04D92469B4611B1B1FA81F2DF
:1008600002E0B0FA80F220329046FFF7E2FD044643
:100870000F4640EA0A0041EA0B0153465A46084334
:1008800013D0114653EA010019D0C8F14002504676
:10089000FFF7DEFD05460E46504659464246FFF735
:1008A000C8FD084305D0012004E020463946BDE8D4
:1008B000F08D0020054346EAE0762C4337430A9842
:1008C0006305E40AA0EB08000022FD0A44EA47544D
:1008D0000A3002D500200146E9E7010510196941F7
:1008E000DDE9084500196941BDE8F04DA2E70000C7
:1008F00080B584B003900398006842F20001C4F20E
:100900000201884209D0FFE70398006842F2001113
:10091000C4F20201884209D1FFE742F20830C4F272
:100920000200006810F4403F09D129E046F2083087
:10093000C5F60200006810F4403F21D0FFE70DF03B
:1009400037F90290039840680190B0F5803F0AD0D3
:10095000FFE70198B0F5003F05D0FFE70198B0F53B
:10096000403F07D00AE00398C1880298B0FBF1F03D
:10097000029004E002988008029000E0FFE75FE048
:100980004FF4002000210BF04FF8029003984068CC
:100990000090B0F5802F32D0FFE70098B0F5002F1F
:1009A0002DD0FFE70098B0F5402F28D0FFE7009842
:1009B000B0F5801F23D0FFE70098B0F5A01F1ED030
:1009C000FFE70098B0F5C01F19D0FFE70098B0F519
:1009D000E01F1FD0FFE70098B0F5001F1ED0FFE713
:1009E0000098B0F5101F1DD0FFE70098B0F5201F4C
:1009F0001CD0FFE70098B0F5301F1BD01EE0039815
:100A000041686FF0010000EA51410298B0FBF1F03B
:100A1000029014E002980009029010E00298400948
:100A200002900CE002988009029008E00298C00948
:100A3000029004E00298000A029000E0FFE7FFE75E
:100A400009F012FD41F20301884217D8FFE702982E
:100A500042F60151C0F23111884207D3FFE70398F3
:100A60000168886840F48070886006E00398016837
:100A7000886820F480708860FFE743E002984008AF
:100A80000290029845F61061C0F25F01884209D8D1
:100A9000FFE703980068806820F4407003990968B4
:100AA00088602EE002984BF62041C0F2BE018842D9
:100AB0000AD8FFE7039800688068012161F30920E4
:100AC0000399096888601BE0029847F64001C0F26C
:100AD0007D1188420AD8FFE70398006880680221E8
:100AE00061F3092003990968886008E003980068A9
:100AF000806840F44070039909688860FFE7FFE769
:100B0000FFE7FFE704B080BD80B58AB00890079189
:100B10000020059007980490089800680FF060FE88
:100B20000290089800680FF013FE0190029828B90F
:100B3000FFE70198002800F0A880FFE70898006808
:100B4000C0688001002836D5FFE70898407D01285D
:100B500031D1FFE70898007D01282CD1FFE7012063
:100B60000490FFE708980068006800F0400100204A
:100B7000B0EB911F1AD1FFE705984DF60041C0F286
:100B80000C0188420ED3FFE70899486D40F0100031
:100B900048650899886D40F00100886501208DF84E
:100BA000270076E0059801300590DBE7089801689A
:100BB00040200860FFE70498022813D0FFE7089858
:100BC00000680FF00DFE60B1FFE7089800680FF0B5
:100BD000E7FD28B9FFE7089800680FF05DFEFFE722
:100BE000FFE7FFE70498012813D0FFE708980068A3
:100BF0000FF0AEFD60B1FFE7089800680FF0D0FD80
:100C000028B9FFE7089800680FF0AAFDFFE7FFE7A3
:100C1000FFE704980090022807D0FFE70098032818
:100C200006D1FFE70C20039005E00820039002E0C6
:100C300004200390FFE709F01FFC0690FFE70898E7
:100C400000688068039908421ED0FFE709F014FC91
:100C50000699401A062816D3FFE7089800688068AE
:100C6000039908420ED0FFE70899486D40F0100044
:100C700048650899886D40F00100886501208DF86D
:100C8000270006E0FFE7DAE7FFE700208DF82700FE
:100C9000FFE79DF827000AB080BD000000000000BB
:100CA00080B582B001900198806B00900098406DF3
:100CB00010F0500F4AD1FFE70099486D40F40070E2
:100CC00048650098006800680007002821D5FFE704
:100CD000009800680FF094FDD0B1FFE7009800681D
:100CE000C0688004002812D4FFE70099486D20F402
:100CF000807048650098406DC004002806D4FFE766
:100D00000099486D40F001004865FFE7FFE7FFE705
:100D100018E000980068C068800790B9FFE7009964
:100D2000486D20F4807048650098406DC00400282C
:100D300006D4FFE70099486D40F001004865FFE7E1
:100D4000FFE7FFE7009805F087F810E00098406D96
:100D5000C006002804D5FFE7009805F0C5F805E0B7
:100D60000098C06CC16C01988847FFE7FFE702B0AC
:100D700080BD00000000000080B582B001900198A5
:100D8000806B00900099486D40F0400048650099E4
:100D9000886D40F004008865009805F0A5F802B061
:100DA00080BD00000000000080B582B00190019875
:100DB000806B0090009805F073F802B080BD0000D1
:100DC00080B584B00290029800680FF0E9FC0090B2
:100DD000029800680FF0ECFC00284BD0FFE7009869
:100DE000002847D1FFE702980068806800F00D00F6
:100DF000012809D1FFE7029800680FF05DFC029816
:100E00000168032008600DE00299486D40F0100071
:100E100048650299886D40F00100886501208DF8D1
:100E20000F002BE009F028FB0190FFE70298006813
:100E30008068C007E8B1FFE709F01EFB0199401A7E
:100E4000032815D3FFE7029800688068C00770B1D7
:100E5000FFE70299486D40F0100048650299886DDF
:100E600040F00100886501208DF80F0006E0FFE7E3
:100E7000DCE7FFE700208DF80F00FFE79DF80F008B
:100E800004B080BD0000000080B586B004900498D6
:100E900000680FF08DFC002840F09280FFE7049876
:100EA000006880683F21C8F2000108420ED0FFE7C9
:100EB0000499486D40F0100048650499886D40F031
:100EC0000100886501208DF817007DE00498006816
:100ED0000FF00EFC09F0D0FA03900498016801208D
:100EE00042F20002C4F20202914201900CD0FFE7EC
:100EF000049800684DF60071CBF6FD710844B0FA15
:100F000080F040090190FFE70198C10746F20030E8
:100F1000C5F6020000291CBF42F20030C4F20200F4
:100F20000FF00EFC02900498006842F20011C4F227
:100F30000201884206D1FFE742F20000C4F202003B
:100F4000009003E0049800680090FFE7009804997F
:100F50000968884203D0FFE7029880BBFFE7FFE7FC
:100F6000049800680068C00740BBFFE70498006869
:100F70000FF01EFC28B9FFE7049800680FF0B8FBDB
:100F8000FFE709F079FA0399401A032815D3FFE720
:100F9000049800680068C00770B9FFE70499486DBD
:100FA00040F0100048650499886D40F001008865A4
:100FB00001208DF8170007E0FFE7D1E7FFE7FFE723
:100FC00000208DF81700FFE79DF8170006B080BDE0
:100FD00080B582B0019001984FF47A71484300F0D7
:100FE00003F802B080BD000083B0029041F204001B
:100FF000CEF2000000680190029840F20C01C2F2AB
:10100000004109684DF68362C4F21B32A1FB022144
:10101000890C48430090FFE741F20400CEF2000043
:1010200000680199401A0099884201D2FFE7F3E76E
:1010300003B070470000000041F20400CEF200004F
:10104000006870470000000084B00390029102988D
:101050000399884205D3FFE702980399401A00904C
:1010600005E003980299C04308440090FFE7009808
:1010700001909DED010AB8EE400A40F20C00C2F268
:10108000004090ED001AB8EE411A9FED042A81EE5F
:10109000021A80EE010A04B0704700BF00247449B0
:1010A0004EF6FC51CEF20001086840F080700860F6
:1010B00041F20401CEF200010020086041F200017B
:1010C000CEF20001086840F001000860704700009F
:1010D00080B582B0019001986946086000214FF404
:1010E00048724FF4F073084600F0EAFA02B080BD8F
:1010F00082B0ADF80600ADF804100092BDF806000D
:10110000B0F5487F06DAFFE7BDF80400B0F5F07FE0
:1011100001DBFFE70DE00098BDF80410BDF80630D4
:101120004FF4487201FB02324FF0404141F8220077
:10113000FFE702B07047000080B58AB0DDF830C02C
:10114000ADF81600ADF81410ADF81220ADF810305F
:10115000BDF81400BDF816204FF4487100FB0120C3
:10116000800000F14040039040F2E410C2F20040E1
:1011700041F20001C5F2002101600021416081605F
:10118000BDF81210C1F54871C16005F001FF0028DB
:1011900042D1FFE70C99BDF81200BDF81020504372
:1011A0008000099108900898012820DBFFE7089843
:1011B000099901F01F010844079009980690BFF3B0
:1011C0004F8FFFE706984EF66871CEF20001086077
:1011D0000698203006900798203807900798002836
:1011E000F0DCFFE7BFF34F8FBFF36F8FFFE70C9982
:1011F000039ABDF81230BDF81000EC46CCF80000A0
:1012000040F2E410C2F20040029006F041F8029869
:101210000A2105F03DFFFFE70AB080BD0000000095
:1012200080B588B084460B980A98ADF81EC0ADF81A
:101230001C10069205938DF81300FFE706980078BE
:10124000002800F0D880FFE70698411C069100783E
:101250008DF812009DF81200202805DBFFE79DF8AD
:1012600012007F2801DBFFE7E8E79DF812009DF8F8
:10127000131003F0EDFE03909DF81300002856D1E3
:10128000FFE700208DF80B00FFE79DF80B000F280B
:1012900047DCFFE703989DF80B10405C8DF80A00CF
:1012A00000208DF80900FFE79DF80900072831DCD0
:1012B000FFE79DF80A009DF80910C1F10701C84039
:1012C000C00780B1FFE7BDF81E009DF80910084473
:1012D000BDF81C109DF80B201144059A80B289B20C
:1012E000FFF706FF0FE0BDF81E009DF80910084447
:1012F000BDF81C109DF80B2011440B9A80B289B2E6
:10130000FFF7F6FEFFE7FFE79DF8090001308DF8D3
:101310000900C9E7FFE79DF80B0001308DF80B00CD
:10132000B3E7BDF81E000830ADF81E0062E09DF87E
:10133000130001285CD1FFE700208DF80800FFE7CB
:101340009DF808001F284DDCFFE703999DF8082051
:1013500001EB420011F81210407840EA0120ADF88C
:10136000060000208DF80500FFE79DF805000F2816
:1013700031DCFFE7BDF806009DF80510C1F10F0153
:10138000C840C00780B1FFE7BDF81E009DF80510FA
:101390000844BDF81C109DF808201144059A80B23D
:1013A00089B2FFF7A5FE0FE0BDF81E009DF80510FD
:1013B0000844BDF81C109DF8082011440B9A80B217
:1013C00089B2FFF795FEFFE7FFE79DF805000130C2
:1013D0008DF80500C9E7FFE79DF8080001308DF89A
:1013E0000800ADE7BDF81E001030ADF81E0000E0AB
:1013F00001E0FFE722E708B080BD00000000000028
:1014000080B592B0DDF850C0ADF84600ADF844109C
:10141000ADF84220ADF84030BDF84600B0F5487F49
:1014200012DAFFE7BDF84400B0F5F07F0CDAFFE711
:10143000BDF84200B0F5487F06DAFFE7BDF840008E
:10144000B0F5F07F01DBFFE735E1BDF84200BDF804
:101450004610401A012807DBFFE7BDF84200BDF83F
:101460004610401A069006E0BDF84210BDF846004E
:10147000401A0690FFE70698ADF83E00BDF8400020
:10148000BDF84410401A012807DBFFE7BDF8400013
:10149000BDF84410401A059006E0BDF84010BDF8B4
:1014A0004400401A0590FFE70598ADF83C00BDF8F0
:1014B0004610BDF842204FF0FF3091420146B8BFC0
:1014C0000121ADF83A10BDF84410BDF8402091421A
:1014D000B8BF0120ADF83800BDF84400BDF8401099
:1014E000884247D1FFE7BDF84600BDF84210884268
:1014F00004DAFFE7BDF84600049003E0BDF84200BF
:101500000490FFE70498ADF83600BDF84600BDF83A
:101510004210884204DAFFE7BDF84200039003E07E
:10152000BDF846000390FFE70398ADF83400BDF81E
:101530004400BDF836204FF4487100FB01208000C4
:1015400000F140400C90BDF83400BDF83610401A50
:101550000130ADF82E00FFE7BDF82E00411EADF8BA
:101560002E1030B1FFE714980C990A1D0C920860F8
:10157000F2E7A0E0BDF84600BDF84210884249D12C
:10158000FFE7BDF84400BDF84010884204DAFFE7E9
:10159000BDF84400029003E0BDF840000290FFE770
:1015A0000298ADF82C00BDF84400BDF84010884208
:1015B00004DAFFE7BDF84000019003E0BDF8440005
:1015C0000190FFE70198ADF82A00BDF82C00BDF8A6
:1015D00046204FF4487100FB0120800000F140409C
:1015E0000990BDF82A00BDF82C10401A0130ADF862
:1015F0002200FFE7BDF82200411EADF8221040B1E5
:10160000FFE7149809990860099800F54860099067
:10161000F0E750E0BDF83E00BDF83C10401AADF8D0
:101620002000FFE7BDF84600BDF84410149AFFF70C
:101630005FFDBDF84600BDF84210884208D1FFE7C3
:10164000BDF84400BDF84010884201D1FFE732E008
:10165000BDF820004000ADF81E00BDF91E00BDF928
:101660003C10494288420FDDFFE7BDF83C10BDF851
:101670002000401AADF82000BDF83A10BDF8460031
:101680000844ADF84600FFE7BDF91E00BDF93E1065
:1016900088420FDAFFE7BDF83E10BDF8200008448D
:1016A000ADF82000BDF83810BDF844000844ADF88E
:1016B0004400FFE7B6E712B080BD00000000000064
:1016C00080B584B0DDF818C0ADF80E00ADF80C1090
:1016D000ADF80A20ADF80830BDF80E00B0F5487F2F
:1016E00006DAFFE7BDF80C00B0F5F07F01DBFFE79D
:1016F0004AE0BDF80E00BDF80A100844B0F5487F76
:1017000007DDFFE7BDF80E00C0F54870ADF80A0030
:10171000FFE7BDF80C00BDF808100844B0F5F07FF5
:1017200007DDFFE7BDF80C00C0F5F070ADF808006C
:10173000FFE7BDF80C00BDF80E204FF4487100FB28
:101740000120800000F140400190BDF80A00C0F582
:10175000487140F2E410C2F2004002681164069938
:10176000019ABDF80A30BDF808C0EE46CEF800C0B8
:1017700005F08EFD40B9FFE740F2E410C2F20040F0
:10178000322105F085FCFFE704B080BD00000000B9
:1017900080B582B040F2E410C2F2004041F2000194
:1017A000C5F2002101604FF44031416000218160A9
:1017B0004FF44871C16005F0EBFBB0B9FFE7694633
:1017C0004FF4F070086040F2E410C2F20040019063
:1017D0004FF0FF314FF040424FF4487305F058FD91
:1017E0000198322105F054FCFFE702B080BD0000F3
:1017F00080B540F22850C2F2004010F0C9FD80BD13
:1018000080B58CB00B900A91099247F64000C0F267
:101810007D10089000208DF81F000B980690FFE7C0
:10182000069900204AF21F12C0F20702914203906B
:1018300008DCFFE79DF81F1000200729B8BF012032
:101840000390FFE70398C00748B1FFE70698400000
:1018500006909DF81F0001308DF81F00E0E79DF80D
:101860001F0009990873069841F2FF11C0F27A012E
:10187000884209DCFFE7069944F20060C2F2C330F7
:1018800090FBF1F0029008E006994EF60010C3F2CA
:10189000A45090FBF1F00290FFE7029809990860CC
:1018A00009980068B0F5006F05DDFFE709994FF46E
:1018B00000600860FFE709980023019343600999DD
:1018C0000120886006980999096880FB010105914B
:1018D00004900498059947F64002C0F27D120092E8
:1018E000FEF72BFD009A019B0A9908600498059960
:1018F000FEF723FD10461946019B1922FEF71DFD38
:101900000A9948600A9944F24020C0F20F008860AA
:101910000CB080BD0000000080B582B08DF80700DB
:101920008DF806109DF8060068B1FFE79DF80710D6
:10193000012000FA01F240F22001C2F200410878D1
:10194000104308700CE09DF80710012000FA01F226
:1019500040F22001C2F20041087890430870FFE78E
:1019600040F22000C2F20040007880F0FF01032026
:1019700000F0EAF802B080BD80B582B08DF80700B3
:101980009DF8070080F0FF01032000F0DDF802B0B1
:1019900080BD00000000000080B5B720802100F06D
:1019A000D3F80020FFF7E8FF80BD00000000000032
:1019B00080B58CB084460E988DF82FC00A918DF8B2
:1019C00027208DF826308DF825000A9801684FF6FB
:1019D0000060CFF6FF7000EBC11008900020079068
:1019E0000A98806806900698000A8DF810000698FC
:1019F0008DF81100BDF8220000F003000A99097B60
:101A000040EA01108DF812000898000A8DF81300C2
:101A100008988DF814000699F02000EA1130BDF8FE
:101A20001E1001F00F0108448DF815000798000AF8
:101A30008DF8160007988DF8170040F20800C2F2E2
:101A4000004000689DF82F206B46642199600821B2
:101A5000596004A91960C021012308F041FE9DF8D6
:101A600025009DF827104901C9B29DF82620114391
:101A700041F00C0100F068F80CB080BD00000000DF
:101A800080B584B08DF80F000291029A11685068F9
:101A90009268C00190FBF2F000EBC110A0F500705D
:101AA0000190029841688068CA0192FBF0F25043AD
:101AB000C0EBC11000909DF80F000199009A029BA5
:101AC0009B6800F061F8B120A02100F03DF804B05F
:101AD00080BD00000000000080B58CB00B908DF838
:101AE0002B100B9807A9019103AA0292FFF788FE19
:101AF00001991A20FFF7C4FF02999DF82B306A461E
:101B0000102010602A200022FFF752FF0CB080BD89
:101B100080B58CB00B908DF82B100B9807A9019114
:101B200003AA0292FFF76CFE01992220FFF7A8FF9B
:101B300002999DF82B306A46122010603A2001224B
:101B4000FFF736FF0CB080BD80B584B08DF80F0074
:101B50008DF80E1040F20800C2F2004000689DF8B7
:101B60000F20EC466421CCF808100123CCF8043097
:101B70000DF10E01CCF80010C02108F0B1FD04B049
:101B800080BD00000000000080B58AB08DF82700FD
:101B90000891079206930698000A8DF8100006989F
:101BA0008DF81100BDF8220000F003008DF812003E
:101BB0000898000A8DF8130008988DF8140006990B
:101BC000F02000EA1130BDF81E1001F00F010844AA
:101BD0008DF815000798000A8DF8160007988DF803
:101BE000170040F20800C2F2004000689DF827206C
:101BF0006B46642199600821596004A91960C021CD
:101C0000012308F06DFD0AB080BD00000000000057
:101C100080B588B084460B980A98CDF81CC0ADF802
:101C20001A10ADF81820ADF81630ADF81400BDF854
:101C30001600BDF81A10401A012807DBFFE7BDF8AF
:101C40001600BDF81A10401A019006E0BDF81610F3
:101C5000BDF81A00401A0190FFE70198ADF8120094
:101C6000BDF81400BDF81810401A012807DBFFE783
:101C7000BDF81400BDF81810401A009006E0BDF839
:101C80001410BDF81800401A0090FFE70098ADF856
:101C90001000BDF81A10BDF816204FF0FF30914229
:101CA0000146B8BF0121ADF80E10BDF81810BDF8FF
:101CB00014209142B8BF0120ADF80C00BDF812000D
:101CC000BDF81010401AADF80A00FFE70798BDF8FC
:101CD0001A10BDF818200B9B00F046F8BDF81A004A
:101CE000BDF81610884208D1FFE7BDF81800BDF80E
:101CF0001410884201D1FFE732E0BDF80A0040002D
:101D0000ADF80800BDF90800BDF91010494288423D
:101D10000FDDFFE7BDF81010BDF80A00401AADF85E
:101D20000A00BDF80E10BDF81A000844ADF81A00FC
:101D3000FFE7BDF90800BDF9121088420FDAFFE78E
:101D4000BDF81210BDF80A000844ADF80A00BDF84D
:101D50000C10BDF818000844ADF81800FFE7B5E70F
:101D600008B080BD0000000083B00290ADF80610FE
:101D7000ADF804200093BDF8060002990989884255
:101D800007DAFFE7BDF8040002994989884201DBC0
:101D9000FFE70CE000980299BDF804200B89BDF81C
:101DA00006C002FB03C201EB82010863FFE703B038
:101DB0007047000000000000FFE7FEE700000000A1
:101DC00010B5AAB0299029980C3047F63311C0F607
:101DD0000101FEF701FB60B1FFE729980C3047F6DF
:101DE0005E11C0F60101FEF7F7FA002840F0AC8062
:101DF000FFE729990A6848F20000CFF600700C90BE
:101E0000824204BF43F23330CFF633700860DDF80E
:101E1000A4C0BCF80400BCF80610BCF80820BCF84C
:101E20000A30DCF800C0EE46CEF800C0FFF748FCF0
:101E30004FF03200FFF7CCF80C9829990A688242DB
:101E400004BF43F23330CFF633700860DDF8A4C02E
:101E5000BCF80400BCF80610BCF80820BCF80A3036
:101E6000DCF800C0EE46CEF800C0FFF729FC4FF0CA
:101E7000010003F029F92890299800F10C0047F699
:101E80003311C0F60101FEF7A7FA58B9FFE7289809
:101E9000013028902898642803D3FFE76320289016
:101EA000FFE709E0289801382890289818B9FFE73B
:101EB00001202890FFE7FFE7DDF8A4E0BEF804006A
:101EC0000530BEF8061005310EF12402DEF8583058
:101ED0009EF856C0DEF80040EE46CEF80440CEF83C
:101EE00000C080B289B2FFF79BF90DF16E000B9034
:101EF0003221FEF75AFA01200A9003F039F90A98C4
:101F0000B7EEC00A8DED080B03F00AF99DED080B42
:101F100001460B98289B6A465360116053EC102BC6
:101F200047F6A901C0F6010112F002FF0A989DF8D8
:101F3000A01010F06DFA0B9940F2FC60C2F2004064
:101F40000068C26D9047C2E029980C3047F68F11A7
:101F5000C0F60101FEF740FA60B1FFE729980C30A6
:101F600047F6BA11C0F60101FEF736FA002840F034
:101F7000AD80FFE729990A680020CFF6FF7007902F
:101F800012F5803F04BF43F23330CFF63370086060
:101F9000DDF8A4C0BCF80400BCF80610BCF80820AA
:101FA000BCF80A30DCF800C0EE46CEF800C0FFF7FF
:101FB00087FB4FF03200FFF70BF8079829990A6862
:101FC00012F5803F04BF43F23330CFF63370086020
:101FD000DDF8A4C0BCF80400BCF80610BCF808206A
:101FE000BCF80A30DCF800C0EE46CEF800C0FFF7BF
:101FF00067FB4FF0020003F067F81A90299800F190
:102000000C0047F68F11C0F60101FEF7E5F958B94B
:10201000FFE71A9801301A901A98642803D3FFE753
:1020200063201A90FFE709E01A9801381A901A986D
:1020300018B9FFE701201A90FFE7FFE7DDF8A4E0F9
:10204000BEF804000530BEF8061005310EF124027A
:10205000DEF858309EF856C0DEF80040EE46CEF866
:102060000440CEF800C080B289B2FFF7D9F80DF174
:10207000360006903221FEF798F90220059003F011
:1020800077F80598B7EEC00A8DED020B03F048F81B
:102090009DED020B014606981A9B6A46536011603B
:1020A00053EC102B47F6CC01C0F6010112F040FEB4
:1020B00005989DF8681010F0ABF9069940F204708D
:1020C000C2F200400068C26D9047FFE7FFE72AB008
:1020D00010BD00000000000010B5AEB01EA91091A8
:1020E0002D902D980C3047F62511C0F60101FEF712
:1020F00073F960B1FFE72D980C3047F64F11C0F629
:102100000101FEF769F9002840F0B980FFE72D9939
:102110000A6848F20000CFF600700F90824204BFB8
:1021200043F23330CFF633700860DDF8B4C0BCF84A
:102130000400BCF80610BCF80820BCF80A30DCF833
:1021400000C0EE46CEF800C0FFF7BAFA4FF03200FA
:10215000FEF73EFF0F982D990A68824204BF43F2B2
:102160003330CFF633700860DDF8B4C0BCF804003B
:10217000BCF80610BCF80820BCF80A30DCF800C037
:10218000EE46CEF800C0FFF79BFA4FF0010002F0D8
:10219000C7FF2C902D9800F10C0047F62511C0F6D2
:1021A0000101FEF719F978B9FFE72C9800F57A706C
:1021B0002C902C984CF25131884204D3FFE74CF21A
:1021C00050302C90FFE70DE02C98A0F57A702C9001
:1021D0002C98C0087C2804D8FFE74FF47A702C9024
:1021E000FFE7FFE7DDF8B4E0BEF804000530BEF815
:1021F000061005310EF12402DEF858309EF856C064
:10220000DEF80040EE46CEF80440CEF800C080B2C2
:1022100089B2FFF705F80DF17E000E903221FEF72E
:10222000C4F801200D9002F0A3FF0D98B7EEC00A8C
:102230008DED0A0B2C99099102F046FF09999DED4D
:102240000A0B03460E986A465360116053EC102B3C
:1022500047F6A901C0F6010112F06AFD10990D9828
:1022600091ED0E0AB8EE400A10F002F90E9940F214
:10227000FC60C2F200400068C26D9047CFE02D982C
:102280000C3047F68111C0F60101FEF7A5F860B1E8
:10229000FFE72D980C3047F6AB11C0F60101FEF7B1
:1022A0009BF8002840F0BA80FFE72D990A680020CB
:1022B000CFF6FF70089012F5803F04BF43F2333031
:1022C000CFF633700860DDF8B4C0BCF80400BCF889
:1022D0000610BCF80820BCF80A30DCF800C0EE4656
:1022E000CEF800C0FFF7ECF94FF03200FEF770FEB9
:1022F00008982D990A6812F5803F04BF43F23330E5
:10230000CFF633700860DDF8B4C0BCF80400BCF848
:102310000610BCF80820BCF80A30DCF800C0EE4615
:10232000CEF800C0FFF7CCF94FF0020002F0F8FE43
:102330001E902D9800F10C0047F68111C0F60101A6
:10234000FEF74AF878B9FFE71E9800F57A701E90FC
:102350001E984CF25131884204D3FFE74CF25030C2
:102360001E90FFE70DE01E98A0F57A701E901E9853
:10237000C0087C2804D8FFE74FF47A701E90FFE76E
:10238000FFE7DDF8B4E0BEF804000530BEF8061043
:1023900005310EF12402DEF858309EF856C0DEF802
:1023A0000040EE46CEF80440CEF800C080B289B2BC
:1023B000FEF736FF0DF1460007903221FDF7F5FFDD
:1023C0000220069002F0D4FE0698B7EEC00A8DED0A
:1023D000040B1E99039102F077FE03999DED040B07
:1023E000034607986A465360116053EC102B47F67A
:1023F000CC01C0F6010112F09BFC1099069891EDFA
:10240000000AB8EE400A10F033F8079940F2047061
:10241000C2F200400068C26D9047FFE7FFE72EB0B0
:1024200010BD00000000000010B5AEB01EA9109154
:102430002D902D980C3047F61811C0F60101FDF7CC
:10244000CBFF60B1FFE72D980C3047F64111C0F685
:102450000101FDF7C1FF002840F0D180FFE72D9971
:102460000A6848F20000CFF600700F90824204BF65
:1024700043F23330CFF633700860DDF8B4C0BCF8F7
:102480000400BCF80610BCF80820BCF80A30DCF8E0
:1024900000C0EE46CEF800C0FFF712F94FF0320050
:1024A000FEF796FD0F982D990A68824204BF43F209
:1024B0003330CFF633700860DDF8B4C0BCF80400E8
:1024C000BCF80610BCF80820BCF80A30DCF800C0E4
:1024D000EE46CEF800C0FFF7F3F84FF0010002F02F
:1024E00047FE109880ED0E0A2D9800F10C0047F67B
:1024F0001811C0F60101FDF76FFFD0B9FFE7109882
:1025000090ED0E0A9FEDB31A30EE010A80ED0E0A2F
:1025100090ED0E0A9FEDB01AB4EE410AF1EE10FAFA
:1025200006DDFFE743F23330C4F253002C90FFE79F
:1025300017E0109890ED0E0A9FEDA61A30EE410AB2
:1025400080ED0E0A90ED0E0AB4EE410AF1EE10FA9B
:1025500006DAFFE74CF6CD40C3F6CC502C90FFE7EF
:10256000FFE7DDF8B4E0BEF804000530BEF8061061
:1025700005310EF12402DEF858309EF856C0DEF820
:102580000040EE46CEF80440CEF800C080B289B2DA
:10259000FEF746FE0DF17E000E903221FDF705FF9D
:1025A000109890ED0E0AB7EEC00A8DED0A0B0120CF
:1025B0000D9002F0B5FD01460D98099102F084FDE1
:1025C00009999DED0A0B03460E986A465360116007
:1025D00053EC102B47F6A901C0F6010112F0A8FB3D
:1025E00010990D9891ED0E0A0FF08EFF0E9940F2A2
:1025F000FC60C2F200400068C26D9047E7E02D9891
:102600000C3047F67411C0F60101FDF7E5FE60B12C
:10261000FFE72D980C3047F69D11C0F60101FDF73C
:10262000DBFE002840F0D280FFE72D990A680020E9
:10263000CFF6FF70089012F5803F04BF43F23330AD
:10264000CFF633700860DDF8B4C0BCF80400BCF805
:102650000610BCF80820BCF80A30DCF800C0EE46D2
:10266000CEF800C0FFF72CF84FF03200FEF7B0FCB8
:1026700008982D990A6812F5803F04BF43F2333061
:10268000CFF633700860DDF8B4C0BCF80400BCF8C5
:102690000610BCF80820BCF80A30DCF800C0EE4692
:1026A000CEF800C0FFF70CF84FF0020002F060FD1A
:1026B000109880ED000A2D9800F10C0047F6741177
:1026C000C0F60101FDF788FED0B9FFE7109890ED44
:1026D000000A9FED401A30EE010A80ED000A90EDED
:1026E000000A9FED3D1AB4EE410AF1EE10FA06DD44
:1026F000FFE743F23330C4F253001E90FFE717E0C8
:10270000109890ED000A9FED331A30EE410A80EDEB
:10271000000A90ED000AB4EE410AF1EE10FA06DA72
:10272000FFE74CF6CD40C3F6CC501E90FFE7FFE725
:10273000DDF8B4E0BEF804000530BEF8061005313F
:102740000EF12402DEF858309EF856C0DEF8004044
:10275000EE46CEF80440CEF800C080B289B2FEF753
:102760005FFD0DF1460007903221FDF71EFE109827
:1027700090ED000AB7EEC00A8DED040B0220069022
:1027800002F0CEFC01460698039102F09DFC0399ED
:102790009DED040B034607986A465360116053ECA5
:1027A000102B47F6CC01C0F6010112F0C1FA1099C6
:1027B000069891ED000A0FF0A7FE079940F2047009
:1027C000C2F200400068C26D9047FFE7FFE72EB0FD
:1027D00010BD00BFCDCCCC3D3333534000000000D2
:1027E00010B586B0059005980C3047F61111C0F66B
:1027F0000101FDF7F1FD002840F0AA80FFE70599EF
:102800000A6848F20000CFF600700390824204BFCD
:1028100043F23330CFF633700860DDF814C0BCF8F3
:102820000400BCF80610BCF80820BCF80A30DCF83C
:1028300000C0EE46CEF800C0FEF742FF4FF0C800E1
:10284000FEF7C6FB039805990A68824204BF43F26B
:102850003330CFF633700860DDF814C0BCF80400E4
:10286000BCF80610BCF80820BCF80A30DCF800C040
:10287000EE46CEF800C0FEF723FF4FF000008DF8C3
:102880001300059890F85C0078B9FFE705990120DE
:1028900081F85C008DF813000598243047F6D111BB
:1028A000C0F60101FDF7A6FD2BE0059890F85C004D
:1028B00001280FD1FFE70599022081F85C008DF80F
:1028C00013000598243047F6C911C0F60101FDF741
:1028D00091FD15E0059890F85C0002280FD1FFE704
:1028E0000599002081F85C008DF8130005982430CC
:1028F00047F6CD11C0F60101FDF77CFDFFE7FFE7CC
:10290000FFE7DDF814E0BEF804000530BEF806105D
:1029100005310EF12402DEF858309EF856C0DEF87C
:102920000040EE46CEF80440CEF800C080B289B236
:10293000FEF776FC9DF8131040F2B000C2F20040A2
:102940000FF0CAFE9DF8131001200FF031FEB6E023
:1029500005980C3047F66D11C0F60101FDF73CFDFE
:10296000002840F0AB80FFE705990A680020CFF609
:10297000FF70029012F5803F04BF43F23330CFF670
:1029800033700860DDF814C0BCF80400BCF8061011
:10299000BCF80820BCF80A30DCF800C0EE46CEF8DF
:1029A00000C0FEF78DFE4FF0C800FEF711FB029845
:1029B00005990A6812F5803F04BF43F23330CFF621
:1029C00033700860DDF814C0BCF80400BCF80610D1
:1029D000BCF80820BCF80A30DCF800C0EE46CEF89F
:1029E00000C0FEF76DFE4FF000008DF81200059854
:1029F00090F85C0078B9FFE70599012081F85C0048
:102A00008DF812000598243047F6D111C0F6010167
:102A1000FDF7F0FC2BE0059890F85C0001280FD141
:102A2000FFE70599022081F85C008DF812000598F7
:102A3000243047F6C911C0F60101FDF7DBFC15E0B3
:102A4000059890F85C0002280FD1FFE70599002057
:102A500081F85C008DF812000598243047F6CD11FE
:102A6000C0F60101FDF7C6FCFFE7FFE7FFE7DDF871
:102A700014E0BEF804000530BEF8061005310EF172
:102A80002402DEF858309EF856C0DEF80040EE46CC
:102A9000CEF80440CEF800C080B289B2FEF7C0FB89
:102AA0009DF8121040F2DC00C2F200400FF014FE5C
:102AB0009DF8121002200FF07BFDFFE7FFE706B044
:102AC00010BD00000000000080B58EB08DF837000A
:102AD0009DF83700012806D0FFE79DF8370002284F
:102AE00001D0FFE797E19DF837000FF0D9FD8DF891
:102AF000360000200C909DF8360041F60002C3F22B
:102B00000002D82110FB012090F8C80000284ED107
:102B1000FFE79DF8360041F60002C3F20002D8211B
:102B200010FB012090ED340A9FEDBC1A20EE010A43
:102B30009FEDBC1A80EE010A8DED0C0A00200B906F
:102B4000FFE70B98632831D8FFE79DED0C0A8DED68
:102B5000030A9DED0B0AB8EEC00A9FEDB31A20EEF2
:102B6000010A9FEDB21A80EE010A12F009F9B0EEE7
:102B7000401A9DED030AB7EE002A31EE021A20EE4C
:102B8000010ABCEEC00A10EE100A9DF8361041F69C
:102B90000003C3F20003D82211FB02310B9A21F883
:102BA0001200FFE70B9801300B90CAE726E19DF871
:102BB000360041F60002C3F20002D82110FB0120CA
:102BC00090F8C800012850D1FFE79DF8360041F683
:102BD0000002C3F20002D82110FB012090ED340A5C
:102BE0009FED8E1A20EE010A9FED8D1A80EE010AEC
:102BF0008DED0C0A9DF8360010FB012090F8C900FD
:102C00006421484345F62941C0F28F21A0FB011001
:102C1000ADF82A0000200990FFE70998632823D81F
:102C2000FFE70998BDF82A10884208DAFFE79DED12
:102C30000C0ABCEEC00A10EE100A029002E000205E
:102C40000290FFE702989DF8361041F60003C3F2A8
:102C50000003D82211FB0231099A21F81200FFE784
:102C6000099801300990D8E7C7E09DF8360041F691
:102C70000002C3F20002D82110FB012090F8C80026
:102C8000022840F0B980FFE79DF8360041F60002C7
:102C9000C3F20002D82110FB012090ED340A9FED11
:102CA0005F1A20EE010A9FED5E1A80EE010A8DED9B
:102CB0000C0A9DF8360010FB012090F8C90064282A
:102CC00003DBFFE7632001901FE09DF8360041F62B
:102CD0000002C3F20002D82110FB012090F8C900C5
:102CE00018B9FFE7012000900CE09DF8360041F68E
:102CF0000002C3F20002D82110FB012090F8C900A5
:102D00000090FFE700980190FFE701988DF82300FD
:102D10009DF823006421484345F62941C0F28F21E4
:102D2000A0FB0110ADF820009DED0C0ABDF82000BD
:102D300001EE100AB8EE411A80EE010A8DED070A85
:102D40009DED0C0ABDF82000C0F1640001EE100AF0
:102D5000B8EE411A80EE010A8DED060A00200590BA
:102D6000FFE70598BDF8201088421DDAFFE79DEDCA
:102D7000070A059A01EE102AB8EEC11A20EE010AE0
:102D8000BCEEC00A10EE100A9DF8361041F6000C99
:102D9000C3F2000CD82311FB03C121F81200FFE796
:102DA000059801300590DCE7BDF820000490FFE7AE
:102DB000049863281FD8FFE79DED060A049AC2F124
:102DC000640001EE100AB8EE411A20EE010ABCEED2
:102DD000C00A10EE100A9DF8361041F6000CC3F23E
:102DE000000CD82311FB03C121F81200FFE704985F
:102DF00001300490DCE7FFE7FFE7FFE79DF83600CE
:102E000041F60002C3F20002D82110FB012100208C
:102E100081F8D400FFE70EB080BD00BF00F07F4511
:102E2000333353403333D340DB0FC9400000C84233
:102E300080B588B08DF81F00069105929DF81F009F
:102E4000012806D0FFE79DF81F00022801D0FFE708
:102E500005E19DF81F000FF007FC8DF813009DF8A9
:102E6000130000EB400140F29400C2F2004000EB7E
:102E70008100807A012873D1FFE79DF8130000EBF1
:102E8000400140F29400C2F2004050F821100020AE
:102E9000B0EB912F64D1FFE79DF8130000EB4001E8
:102EA00040F29400C2F2004050F82100039000204C
:102EB0000290FFE702980599884225D2FFE79DF826
:102EC000131040F20000C3F2000000EB8120069ACC
:102ED000029B1A446FF39F22805C00EE100AB8EE4A
:102EE000400A44F20000C2F2004000EB01300399B6
:102EF00000EB810080ED000A039801300390FFE7AA
:102F0000029801300290D5E703989DF8131001EB69
:102F1000410240F29401C2F2004141F822000398BC
:102F2000B0F5806F1BD3FFE79DF8130000EB400165
:102F300040F29400C2F2004000EB81020021917245
:102F40009DF8132002EB420240F822109DF8131066
:102F500001EB410100EB810101200872FFE77EE0F7
:102F60009DF8130000EB400140F29400C2F20040D3
:102F700000EB8100807A022870D1FFE79DF81300F2
:102F800000EB400140F29400C2F2004000EB8100EF
:102F900041680020B0EBD12F60D1FFE79DF813000E
:102FA00000EB400140F29400C2F2004000EB8100CF
:102FB0004068019000200090FFE700980599884242
:102FC0001ED2FFE79DF8132040F20000C3F200007C
:102FD00000EB82200699009B19446FF39F21405C0F
:102FE00040F60001C3F2000101EBC221019A8854AE
:102FF000019801300190FFE7009801300090DCE774
:1030000001989DF8131001EB410240F29401C2F2C5
:10301000004101EB820148600198B0F5006F1CD3BC
:10302000FFE79DF8130000EB400140F29400C2F26C
:10303000004000EB8102002191729DF8132002EB09
:10304000420200EB820251609DF8131001EB410136
:1030500000EB810101204872FFE7FFE7FFE708B0BE
:1030600080BD00000000000080B586B08DF817001C
:103070008DF816109DF81700012806D0FFE79DF87F
:103080001700022801D0FFE75BE09DF817000FF062
:10309000EBFA8DF815009DF8172040F20811C2F2E6
:1030A000004140F26C10C2F20040012A08BF0846FD
:1030B00004909DF8160080B3FFE79DF8151040F2CC
:1030C0000000C3F20000019000EB81204FF480610A
:1030D0000291FDF76AF99DF8150000EB400140F2FE
:1030E0009400C2F2004000EB81010120039088723D
:1030F0000498002140F2FF7202F0B2F80199029A9E
:1031000004989DF8153001EB832103F0B9F9039978
:103110009DF8170000F0C0F813E09DF8150000EBD3
:10312000400140F29400C2F2004000EB8100002117
:1031300081729DF8170000F0AFF8049803F090FA40
:10314000FFE706B080BD000080B58CB08DF82F0081
:103150008DF82E109DF82F00012806D0FFE79DF86E
:103160002F00022801D0FFE792E09DF82F000FF01A
:1031700097FA8DF82D009DF82E00002863D0FFE708
:103180009DF82F00FFF7A0FC9DF82F00012829D102
:10319000FFE79DF82D0041F60002C3F200020792FE
:1031A000D821089110FB012268460021016040F2FD
:1031B000D010C2F200406423099303F001FD079B85
:1031C000089A09999DF82D0010FB0230D0F8CC0028
:1031D000414301200A900FF01BFA0A99084600F0BB
:1031E0005BF82FE09DF82F0002282AD1FFE79DF819
:1031F0002D0041F60002C3F200020392D82104918F
:1032000010FB012269460020086040F2D010C2F293
:10321000004010216423059303F0D2FC039B049A21
:1032200005999DF82D0010FB0230D0F8CC004143E9
:10323000022006900FF0ECF90698012100F02CF81E
:10324000FFE7FFE724E09DF82F0001280DD1FFE7FD
:1032500001200021029100F01FF8029940F2D010E5
:10326000C2F2004003F080FD11E09DF82F0002281B
:103270000CD1FFE70220002100F00EF840F2D01040
:10328000C2F20040102103F06FFDFFE7FFE7FFE708
:103290000CB080BD0000000080B582B08DF8070042
:1032A0008DF806109DF80700012822D1FFE79DF850
:1032B000060040F28401C2F2004108719DF8060048
:1032C00058B1FFE700200121FEF726FB40F2A8508D
:1032D000C2F200400BF048FE0AE000210846FEF76B
:1032E0001BFB40F2A850C2F200400BF0B9FEFFE712
:1032F00027E09DF80700022822D1FFE79DF806008D
:1033000040F28C01C2F2004108719DF8060058B1EC
:10331000FFE702200121FEF7FFFA40F2F450C2F26B
:1033200000400BF021FE0AE002200021FEF7F4FA33
:1033300040F2F450C2F200400BF092FEFFE7FFE7CC
:10334000FFE702B080BD0000B0B584B094468E4661
:1033500004460C980B990A9A099A089A0394ADF8B6
:103360000AE0ADF808C0ADF80630ADF804208DF8DD
:1033700003108DF80200039808B9FFE720E0BDF8BC
:103380000A0003998880BDF808000399C880BDF839
:10339000060003990881BDF8040003994881099843
:1033A000039908600A98039948629DF803000399FD
:1033B00081F828009DF80200039981F82900FFE7B1
:1033C00004B0B0BD0000000080B582B0019001984B
:1033D000806B0090009803F01FFB0099012008719A
:1033E00002B080BD0000000080B582B0019001985D
:1033F000806B0090009803F0A3F9009901200871F8
:1034000002B080BD0000000080B582B0019001983C
:10341000806B00900099086940F0040008610098F2
:1034200003F002FB00990120087102B080BD00008A
:1034300080B582B001900198806B00900099086976
:1034400040F004000861009803F082F9009901201F
:10345000087102B080BD000080B582B00190019873
:10346000806B0090009803F0DBFA02B080BD000092
:1034700080B582B001900198806B0090009803F0B5
:1034800063F902B080BD000080B584B041F6000051
:10349000C3F200004FF4D871FCF787FF00200390BF
:1034A000FFE7039801281FD8FFE7039841F60002C1
:1034B000C3F20002D82100FB0123322083F8C900A7
:1034C000039800FB01234FF47A70C3F8CC000398F3
:1034D00000FB01210020C4F24000C1F8D000FFE74A
:1034E000039801300390DCE7012000210191FFF7F0
:1034F000D3FE019940F2D010C2F20040029003F0D6
:1035000033FC01990220FFF7C7FE0298102103F057
:103510002BFC04B080BD0000B0B58CB040F2AC0113
:10352000C2F2004101200A9008700CF0A9FE4FF091
:103530007F400690FDF7CCFD069A0A9869460A611D
:10354000C86047F2BA70C0F6010088604FF0FF34DF
:103550004C6028200B90086047F2C770C0F601004D
:103560004FF48C711422DC230CF0FEFE0A9A014603
:103570000B9840F20873C2F20043196069460C616F
:10358000CA6047F29972C0F601028A6048F20002EE
:10359000CFF6007207924A60086047F2AD70C0F63D
:1035A0000100B421C8220892A02309930CF06CFEFC
:1035B000DDF81CC0089A099BDDF828E005460B9849
:1035C00040F26001C2F200410D600D6841F6894190
:1035D000C0F60101696669460C61C1F80CE047F26A
:1035E000A37EC0F6010EC1F808E0C1F804C008606F
:1035F00047F2D170C0F601004FF4F0710CF044FEB8
:10360000014640F25C00C2F200400160016841F6F0
:10361000F130C0F6010048660CF08AFF0CB0B0BD76
:1036200080B540F24C20C2F2004004F025FB80BD82
:1036300080B540F2C420C2F2004004F01DFB80BD02
:1036400080B540F23C30C2F2004004F015FB80BD72
:1036500080B540F2B430C2F2004004F00DFB80BDF2
:1036600089B0DDF824C00890079106920593089868
:103670000068406C00F040400999059A41EA024117
:103680000843089909684864069808990968C86356
:1036900008984068B0F5403F7CD1FFE79DF81F00D7
:1036A000000603909DF81E00000402909DF81D0086
:1036B000000201909DF81C0000900898806848B9AD
:1036C000FFE70198029908430399084300990843CA
:1036D00004905AE008988068012807D1FFE7019814
:1036E000029908430099084304904DE008988068C7
:1036F000022812D1FFE70298C00C02900198800ABC
:1037000001900098C008009001984001029940EA99
:10371000C12000990843049035E008988068032888
:1037200018D1FFE70398C00F03900298C00C0290D5
:103730000198C00A01900098C008009001984001CB
:10374000029940EA8120039940EAC1300099084378
:10375000049017E00398000F03900298000D029068
:103760000198000B01900098000900900198000159
:10377000029940EA0120039940EA01300099084388
:103780000490FFE7FFE7FFE7FFE70498089909685F
:10379000886310E008984068B0F5802F05D1FFE7F6
:1037A000079808990968486104E00798089909682A
:1037B000C860FFE7FFE709B07047000000000000A5
:1037C00083B002900298016801201022C4F2020224
:1037D0009142009000F0A380FFE702980168012069
:1037E0002822C4F202029142009000F09880FFE784
:1037F0000298016801204022C4F202029142009026
:1038000000F08D80FFE70298016801205822C4F281
:1038100002029142009000F08280FFE70298016866
:1038200001207022C4F202029142009077D0FFE79B
:103830000298016801208822C4F20202914200909D
:103840006DD0FFE7029801680120A022C4F20202B5
:103850009142009063D0FFE7029801680120B822EE
:10386000C4F202029142009059D0FFE70298016829
:10387000012040F21042C4F20202914200904ED068
:10388000FFE702980168012040F22842C4F20202D8
:103890009142009043D0FFE702980168012040F276
:1038A0004042C4F202029142009038D0FFE70298F1
:1038B0000168012040F25842C4F202029142009095
:1038C0002DD0FFE702980168012040F27042C4F257
:1038D00002029142009022D0FFE702980168012085
:1038E00040F28842C4F202029142009017D0FFE7F2
:1038F00002980168012040F2A042C4F20202914203
:1039000000900CD0FFE7029800684FF64831CBF6E4
:10391000FD710844B0FA80F040090090FFE700987C
:10392000C00740B3FFE70298007810384AF6AB2191
:10393000CAF6AA21A0FB011000090190019800F02D
:10394000070145F6A410C0F60100405C0299C86565
:103950000198042807D3FFE702990868042262F35C
:103960000900886506E00299086840F2FF3290433A
:103970008865FFE705E00299086820F0FF00886588
:10398000FFE70298806D03B0704700000000000060
:1039900084B00390039800680190039801680120A7
:1039A00045F20842C5F60202914200904ED0FFE770
:1039B00003980168012045F21C42C5F602029142BB
:1039C000009043D0FFE703980168012045F23042A0
:1039D000C5F602029142009038D0FFE703980168D3
:1039E000012045F24442C5F60202914200902DD0DA
:1039F000FFE703980168012045F25842C5F602022C
:103A00009142009022D0FFE703980168012045F21F
:103A10006C42C5F602029142009017D0FFE703986E
:103A20000168012045F28042C5F6020291420090F1
:103A30000CD0FFE7039800684AF66C31CAF2FD71BA
:103A40000844B0FA80F040090090FFE70098C007F2
:103A500010B3FFE70398007808384CF6CD41CCF658
:103A6000CC41A0FB011000090290029945F600002C
:103A7000C5F6020000EB810003990866039945F63C
:103A80008000C5F602004866029800F01F01012080
:103A900088400399886635E00398007810384AF624
:103AA000AB21CAF6AA21A0FB0110000902900198DF
:103AB00040F2B841C4F2020188420CD8FFE70198F5
:103AC00040F21041C4F20201884204D3FFE7029899
:103AD00008300290FFE7029940F60000C4F20200AD
:103AE00000EB810003990866039940F68000C4F258
:103AF00002004866029800F01F01012088400399E7
:103B00008866FFE704B0704783B00290029800799E
:103B100001900198002800F08A80FFE701980828AA
:103B200000F28580FFE702980168012045F2084213
:103B3000C5F60202914200904ED0FFE7029801685C
:103B4000012045F21C42C5F602029142009043D08A
:103B5000FFE702980168012045F23042C5F60202F3
:103B60009142009038D0FFE702980168012045F2A9
:103B70004442C5F60202914200902DD0FFE7029820
:103B80000168012045F25842C5F6020291420090B8
:103B900022D0FFE702980168012045F26C42C5F689
:103BA00002029142009017D0FFE7029801680120BD
:103BB00045F28042C5F60202914200900CD0FFE728
:103BC000029800684AF66C31CAF2FD710844B0FAF6
:103BD00080F040090090FFE70098C00780B1FFE740
:103BE000019945F6FC00C5F6020000EB8100029940
:103BF000C866029945F64010C5F6020008670FE056
:103C0000019940F6FC00C4F2020000EB8100029929
:103C1000C866029940F64010C4F202000867FFE748
:103C20000198411E0120884002994867FFE703B0D0
:103C3000704700000000000085B0049000208DF85F
:103C40000F000498806918BBFFE70498806A02900F
:103C500003281BD80299DFE801F0020D021804982E
:103C600090F82F00C00720B1FFE701208DF80F006A
:103C7000FFE70CE00498C06AB0F1C07F04D1FFE711
:103C800001208DF80F00FFE701E000E0FFE747E0CB
:103C900004988069B0F5005F26D1FFE70498806A38
:103CA000019003281ED80199DFE801F002060211F5
:103CB00001208DF80F0016E0049890F82F00C0073F
:103CC00020B1FFE701208DF80F00FFE70BE004981B
:103CD000C06AB0F1C07F04D1FFE701208DF80F006A
:103CE000FFE700E0FFE71AE00498806A00900328ED
:103CF00004D3FFE70098032804D00EE001208DF8DC
:103D00000F000BE0049890F82F00C00720B1FFE7E8
:103D100001208DF80F00FFE700E0FFE7FFE7FFE776
:103D20009DF80F0005B0704789B008900791069282
:103D300005930898806D04900898806D039008980A
:103D4000016801201022C4F202029142029000F0A8
:103D50000381FFE70898016801202822C4F20202CB
:103D60009142029000F0F880FFE708980168012076
:103D70004022C4F202029142029000F0ED80FFE77F
:103D80000898016801205822C4F202029142029070
:103D900000F0E280FFE70898016801207022C4F279
:103DA00002029142029000F0D780FFE70898016874
:103DB00001208822C4F202029142029000F0CC80DD
:103DC000FFE7089801680120A022C4F20202914294
:103DD000029000F0C180FFE7089801680120B82236
:103DE000C4F202029142029000F0B680FFE7089808
:103DF0000168012040F21042C4F202029142029096
:103E000000F0AA80FFE708980168012040F22842EC
:103E1000C4F202029142029000F09E80FFE70898EF
:103E20000168012040F24042C4F202029142029035
:103E300000F09280FFE708980168012040F25842A4
:103E4000C4F202029142029000F08680FFE70898D7
:103E50000168012040F27042C4F2020291420290D5
:103E60007AD0FFE708980168012040F28842C4F246
:103E70000202914202906FD0FFE70898016801208A
:103E800040F2A042C4F202029142029064D0FFE7E5
:103E900008980168012040F2B842C4F2020291423F
:103EA000029059D0FFE708980168012045F20842C6
:103EB000C5F60202914202904ED0FFE708980168D1
:103EC000012045F21C42C5F602029142029043D005
:103ED000FFE708980168012045F23042C5F602026A
:103EE0009142029038D0FFE708980168012045F21E
:103EF0004442C5F60202914202902DD0FFE7089895
:103F00000168012045F25842C5F602029142029032
:103F100022D0FFE708980168012045F26C42C5F6FF
:103F200002029142029017D0FFE708980168012031
:103F300045F28042C5F60202914202900CD0FFE7A2
:103F4000089800684AF66C31CAF2FD710844B0FA6C
:103F500080F040090290FFE70298C00770B1FFE7C8
:103F60000898416E806E48600898C06E28B1FFE7DF
:103F70000898016F406F4860FFE7FFE70898016805
:103F800001201022C4F202029142019000F0A380AD
:103F9000FFE70898016801202822C4F2020291423A
:103FA000019000F09880FFE7089801680120402206
:103FB000C4F202029142019000F08D80FFE7089860
:103FC000016801205822C4F202029142019000F0DF
:103FD0008280FFE70898016801207022C4F2020283
:103FE0009142019077D0FFE708980168012088226C
:103FF000C4F20202914201906DD0FFE70898016877
:104000000120A022C4F202029142019063D0FFE796
:10401000089801680120B822C4F20202914201907E
:1040200059D0FFE708980168012040F21042C4F21D
:104030000202914201904ED0FFE7089801680120EA
:1040400040F22842C4F202029142019043D0FFE7BD
:1040500008980168012040F24042C4F202029142F5
:10406000019038D0FFE708980168012040F25842DB
:10407000C4F20202914201902DD0FFE70898016836
:10408000012040F27042C4F202029142019022D01B
:10409000FFE708980168012040F28842C4F202025A
:1040A0009142019017D0FFE708980168012040F283
:1040B000A042C4F20202914201900CD0FFE708989E
:1040C00000684FF64831CBF6FD710844B0FA80F035
:1040D00040090190FFE70198C00750B3FFE7089837
:1040E000C06D00F01F013F20884004998860089847
:1040F0000168086820F4802008600598089909681C
:10410000486008988068402809D1FFE70698089918
:1041100009688860079808990968C86008E00798E6
:10412000089909688860069808990968C860FFE7D7
:1041300082E008980168012045F20842C5F60202B3
:10414000914200904ED0FFE708980168012045F2A7
:104150001C42C5F602029142009043D0FFE7089846
:104160000168012045F23042C5F6020291420090FA
:1041700038D0FFE708980168012045F24442C5F6AF
:104180000202914200902DD0FFE7089801680120BB
:1041900045F25842C5F602029142009022D0FFE754
:1041A00008980168012045F26C42C5F6020291426E
:1041B000009017D0FFE708980168012045F280427F
:1041C000C5F60202914200900CD0FFE70898006803
:1041D0004AF66C31CAF2FD710844B0FA80F0400929
:1041E0000090FFE70098C00720B3FFE70898C06D74
:1041F00000F01F0101208840039948600598089944
:104200000968486008988068402809D1FFE7069847
:10421000089909688860079808990968C86008E0E3
:104220000798089909688860069808990968C8601D
:10423000FFE700E0FFE7FFE709B07047000000007C
:10424000704700000000000010B58EB00DF1180C92
:10425000CDF80CC0DDF844C0DDF840C00D900C91E5
:104260000B920A930D9848B1FFE70C9830B1FFE725
:10427000109818B1FFE70A9808B9FFE7AEE0039875
:104280009DED100AB8EE400A0D99098901EE101A49
:10429000B8EEC11A80EE010A80ED030A90ED030A20
:1042A000B7EE001AB4EE410AF1EE10FA04DAFFE7B5
:1042B0004FF07E500990FFE70020ADF82200ADF8E6
:1042C000200001218DF81F10ADF81C00FFE7BDF89C
:1042D0001C000D990989884280F28080FFE70398CD
:1042E000BDF81C1000EE101AB8EEC00A90ED031ACB
:1042F00020EE010ABCEEC00A80ED000A0698109973
:10430000884201D3FFE769E0002005900B9801285F
:1043100005D1FFE70C980699405C059015E00B98D5
:10432000022806D1FFE70C98069930F81100059095
:104330000AE00B98042806D1FFE70C98069950F87C
:1043400021000590FFE7FFE7FFE705980A998842FB
:1043500003D9FFE70A980590FFE70A9A0598111A12
:104360000D9840890138C317A1FB000C01FB03C164
:104370000023FBF7B1FFADF812009DF81F0060B1FC
:10438000FFE70D98BDF81C10BDF81220119BFDF73A
:10439000EBFC00208DF81F0011E00D98BDF82210F5
:1043A000BDF82020BDF81C30BDF812C0119CEE46AF
:1043B000CEF80440CEF800C0FDF72AFCFFE7BDF8B8
:1043C0001C00ADF82200BDF81200ADF82000FFE798
:1043D000BDF81C000130ADF81C0078E70EB010BD30
:1043E00080B582B00190019808B9FFE711E0DDF8CF
:1043F00004C0BCF80400BCF80610BCF80820BCF8E7
:104400000A300CF1300CEE46CEF800C0FCF794FEFA
:10441000FFE702B080BD000080B586B084460898F2
:10442000ADF816C0ADF81410ADF8122003938DF856
:104430000B009DF80B004008ADF80800BDF808001F
:104440004042ADF80600FFE7BDF90600BDF90810CF
:10445000884218DCFFE7BDF81600BDF81210BDF861
:1044600006201144BDF81420039BEC46CCF8003024
:104470008BB21946FCF7C4FFFFE7BDF80600013018
:10448000ADF80600E0E706B080BD000000000000C7
:1044900080B586B084460898ADF816C0ADF8141003
:1044A000ADF8122003938DF80B009DF80B00400827
:1044B000ADF80800BDF808004042ADF80600FFE77F
:1044C000BDF90600BDF90810884218DCFFE7BDF809
:1044D0001600BDF806100844BDF81410BDF81230DF
:1044E000039AEC46CCF8002082B21046FCF788FF15
:1044F000FFE7BDF806000130ADF80600E0E706B0C2
:1045000080BD00000000000081B0EFF3108072B6A3
:104510000090FFE7FEE7000044F60C01C5F602013B
:10452000086840F002000860FFE744F60400C5F6A2
:10453000020000688004002801D4FFE7F5E7704717
:1045400080B583B0029001910198006800BBFFE73D
:104550000298006847F6FF718843019A00925168FB
:10456000D2F808E0D2F80CC0136941EA0E0141EA22
:104570000C0119435369194393691943D3691943CA
:10458000136A1943526A114308430299086025E0EF
:104590000298006820F4F840019AD169136A526ABF
:1045A000194311430843029908600298406847F68E
:1045B000FF718843019A5168D2F808E0D2F80CC024
:1045C000136941EA0E0141EA0C0119435369194389
:1045D00092691143084302994860FFE7002003B045
:1045E00080BD00000000000082B0019000910198A1
:1045F000406943F6FE718843009940EA4100019901
:104600004861002002B0704783B00290019100928F
:10461000029800696FF31500019A11685368D2F887
:1046200008C0D26819436FF01F0303EB4C13194302
:1046300041EA4221084302990861002003B0704713
:1046400010B583B00290019100920098A8BBFFE7DB
:104650000298806800F07040019A11685468D2F89E
:1046600008E0D2F80CC001396FF00F0303EB04131C
:1046700019436FF0FF0303EB0E2319434FF20003BE
:10468000CFF6FF7303EB0C331943D2F810C00023AD
:10469000CFF6FF7303EB0C431943D2F814C0002389
:1046A000CFF6F07303EB0C5319439269013A41EAD8
:1046B00002610843029988603CE00298806840F6F5
:1046C000FF71CFF60F7108400199CA684B694FF22C
:1046D0000001CFF6FF7101EB02310022CFF6F0723C
:1046E00002EB035211430843029988600298C068A4
:1046F00000F07040019A11685468D2F808E0D2F8CE
:1047000010C001396FF00F0303EB041319436FF06E
:10471000FF0303EB0E2319430023CFF6FF7303EBD4
:104720000C4319439269013A41EA02610843029934
:10473000C860FFE7002003B010BD000000000000CB
:1047400080B582B08DF807009DF8070038B1FFE70B
:104750000120FEF7B9F90220FEF7B6F9FFE702B033
:1047600080BD0000000000002DE9F0479EB040F23F
:10477000AD00C2F20040012606700BF081FD4FF043
:104780007F40FCF7A5FC69464FF0FF3717970F6194
:10479000CE6047F2F670C0F60100886048F2000073
:1047A000CFF60070119048602820086047F600009E
:1047B000C0F601000A225023189311460BF064FD45
:1047C0000246119840F26801C2F200410A600A688C
:1047D00041F6A951C0F60101516669460F61CE60EC
:1047E00047F2DE72C0F601028A60486032201590FE
:1047F000086047F2E270C0F6010014211091A02277
:1048000007923C2319930BF03FFD079A199B8446AE
:10481000159840F23001C2F20041C1F800C0D1F851
:1048200000C041F69121C0F601010591CCF8641059
:1048300069460F61CE6047F2EA7CC0F6010CC1F810
:1048400008C040F2000CCFF6FF7CCDF86CC0C1F878
:1048500004C0086047F2EE70C0F601004FF4C87162
:1048600014910BF011FD079A18998446059840F2AF
:104870003803C2F20043C3F800C01B6858666B4699
:104880001F610024DC6047F66100C0F601009860FB
:10489000FF20CFF600700690586020200890186026
:1048A00047F6D510C0F60100DC230A930BF05CFD3F
:1048B000DDF818C0079A0A9B8646089840F2FC610A
:1048C000C2F20041C1F800E0D1F800E042F2493103
:1048D000C0F601010991CEF85C1069460F61CC6009
:1048E00047F6850EC0F6010EC1F808E0C1F804C015
:1048F000086047F6E210C0F601004FF4E67113912C
:104900000BF032FDDDF824C00A9A1099199BDDF8EE
:1049100044E08046159840F20475C2F20045C5F89F
:1049200000802D68C5F85CC0EC46CCF81070CCF85F
:104930000C6047F6CD15C0F60105CCF80850CCF850
:1049400004E0CCF8000047F61110C0F601000BF0AF
:104950009BFC0A9A1499199BDDF86CE08046159827
:1049600040F27C0CC2F2004CCCF80080DCF80080F5
:1049700042F2E17CC0F6000CCDF82CC0C8F864C04F
:10498000EC46CCF81070CCF80C60CCF80850CCF8A1
:1049900004E0CCF8000047F66D10C0F601000BF003
:1049A00073FC0B9A1099DDF844C0199B05461598C5
:1049B00040F2800EC2F2004ECEF80050DEF800E069
:1049C000CEF864206A461761D66047F6F308C0F651
:1049D0000108C2F80880C2F804C0106047F6181039
:1049E000C0F601004FF48C720C920BF04DFC0C9A47
:1049F0001899199BDDF844E00546159840F2740CAF
:104A0000C2F2004CCCF80050DCF8005042F2294CC5
:104A1000C0F6000CCDF834C0C5F864C0EC46CCF844
:104A20001070CCF80C6047F60415C0F60105CCF800
:104A30000850CCF804E0CCF8000047F64110C0F66E
:104A400001000BF021FC0C9ADDF834C01499199B7D
:104A5000DDF86CE08246159840F26C09C2F200491C
:104A6000C9F800A0D9F80090C9F864C0EC46CCF8A9
:104A70001070CCF80C60CCF80880CCF804E0CCF8CE
:104A8000000047F67410C0F601000BF0FDFB0C9A15
:104A9000DDF834C01399199BDDF86CE08146159858
:104AA00040F27808C2F20048C8F80090D8F80080B8
:104AB000C8F864C0EC46CCF81070CCF80C60CCF8A8
:104AC0000850CCF804E0CCF8000047F69D10C0F682
:104AD00001000BF0D9FB0D9A1099DDF844C0199B29
:104AE0000546159840F2700EC2F2004ECEF8005006
:104AF000DEF800E0CEF864206A461761D66047F61B
:104B0000FA08C0F60108C2F80880C2F804C01060B4
:104B100047F62510C0F601004FF4AA720E920BF072
:104B2000B3FB0E9A1899199BDDF844E005461598D9
:104B300040F2540CC2F2004CCCF80050DCF80050AB
:104B400042F2D90CC0F6000CCDF83CC0C5F864C0E8
:104B5000EC46CCF81070CCF80C6047F60B15C0F69C
:104B60000105CCF80850CCF804E0CCF8000047F67A
:104B70004F10C0F601000BF087FB0E9ADDF83CC029
:104B80001499199BDDF86CE08246159840F24C09A7
:104B9000C2F20049C9F800A0D9F80090C9F864C071
:104BA000EC46CCF81070CCF80C60CCF80880CCF84F
:104BB00004E0CCF8000047F68110C0F601000BF0CD
:104BC00063FB0E9ADDF83CC01399199BDDF86CE08D
:104BD0008146159840F25808C2F20048C8F8009083
:104BE000D8F80080C8F864C0EC46CCF81070CCF857
:104BF0000C60CCF80850CCF804E0CCF8000047F684
:104C0000AB10C0F601000BF03FFBDDF83CC0109983
:104C1000149A199BDDF844E08046159840F250053F
:104C2000C2F20045C5F800802D68C5F864C0EC46A6
:104C3000CCF81070CCF80C6047F6EF05C0F6010513
:104C40001295CCF80850CCF804E0CCF8000047F6F8
:104C50003310C0F601000BF017FB149A1899199B3A
:104C6000DDF844E00546159840F2440CC2F2004CD1
:104C7000CCF80050DCF8005041F6C15CC0F6000CE6
:104C8000CDF858C0C5F864C0EC46CCF81070CCF82C
:104C90000C6047F60015C0F60105CCF80850CCF8BA
:104CA00004E0CCF8000047F65E10C0F601000BF0FF
:104CB000EBFA149A1699DDF86CC0199BDDF848E000
:104CC0008146159840F23C08C2F20048C8F80090AE
:104CD000D8F80080C8F8641069460F61CE60C1F84A
:104CE00008E0C1F804C0086047F68F10C0F6010064
:104CF00011460BF0C9FA1399149ADDF858C0199BA4
:104D0000DDF86CE08146159840F24808C2F2004890
:104D1000C8F80090D8F80080C8F864C0EC46CCF819
:104D20001070CCF80C60CCF80850CCF804E0CCF84B
:104D3000000047F6BA10C0F601000BF0A5FADDF846
:104D40006CC0179B1899199A0546169840F2400EA8
:104D5000C2F2004ECEF80050DEF800E0CEF864005B
:104D6000684603250561C460C0F808C0436001605F
:104D700040F2B000C2F200401C9078231A93FEF774
:104D8000E3FADDF85CC01898199A1A9BDDF86CE01C
:104D900069460D61CC60C1F808E0C1F804C0086044
:104DA00040F2DC00C2F200401D904FF4DC71FEF7CF
:104DB000CBFA1C9890F828100DF08EFC1D9890F8F6
:104DC00028100DF089FC0BF0B3FB1EB0BDE8F08796
:104DD00080B584B0ADF80E0002918DF807200EF07A
:104DE0005BFEBA200EF0F0FE9DF80F000EF0ECFE18
:104DF0009DF80E000EF0E8FE0EF076FE0EF04CFE72
:104E0000BB200EF0E1FE00208DF80600FFE79DF8C4
:104E100006009DF80710884215DAFFE79DF80600A6
:104E20009DF807100139401A18BF01200EF0BCFD93
:104E300002999DF806208854FFE79DF8060001308E
:104E40008DF80600E3E70EF04FFE04B080BD0000D1
:104E500080B58EB0002006900D900C900B900A90BB
:104E60000990082001900990012004900A9041F6D1
:104E70000000C5F60200079009A9089105F0E0F8C6
:104E8000069A41F60040C5F60200029010210391F7
:104E900005F0D2FA0199069A079805F0CDFA0A2092
:104EA000059005F001F802980399049A05F0C4FAF8
:104EB000059804F0F9FF069A079808990A920B9250
:104EC00005F0BEF8322004F0EFFF0EB080BD000008
:104ED00080B58CB000208DF8050048F24E100DF121
:104EE0002E010122FFF774FF9DF82E000006002816
:104EF00004D4FFE700208DF82F0075E09DF82E0008
:104F000000F00F008DF804009DF80400012855DB27
:104F1000FFE79DF80400052850DCFFE79DF804003A
:104F2000C000C2B248F24F100DF10601FFF750FF6A
:104F30009DF8040040F2D661C2F2004108700020E2
:104F40008DF80300FFE79DF803009DF804108842E8
:104F500030DAFFE79DF803300DF1060000EBC302E5
:104F60005178927841EA022240F2D661C2F20041C1
:104F700001EB43035A809DF8033000EBC30C9CF80F
:104F800003209CF804C042EA0C2201EB43039A81FF
:104F90009DF8032000EBC20358799B7940EA032077
:104FA00001EB4201C882FFE79DF8030001308DF854
:104FB0000300C8E701208DF8050006E040F2D66145
:104FC000C2F2004100200870FFE700208DF80200C7
:104FD00048F24E100DF10201012200F009F89DF88F
:104FE00005008DF82F00FFE79DF82F000CB080BD65
:104FF00080B584B0ADF80E0002918DF807200EF058
:105000004BFDBA200EF0E0FD9DF80F000EF0DCFD28
:105010009DF80E000EF0D8FD00208DF80600FFE789
:105020009DF806009DF8071088420DDAFFE7029808
:105030009DF80610405C0EF0C7FDFFE79DF80600E6
:1050400001308DF80600EBE70EF04EFD04B080BD98
:1050500083B08DF807008DF806109DF80700202812
:1050600005DBFFE79DF807007F2803DBFFE7002053
:10507000029024E09DF806000146009180B1FFE710
:105080000098012818D1FFE79DF8071045F6D410C5
:10509000C0F6010000EB8110A0F5006002900EE068
:1050A0009DF8071047F29410C0F6010000EB0110C4
:1050B000A0F50070029002E000200290FFE7029845
:1050C00003B070470000000080B582B08DF8060084
:1050D0009DF80600012809D0FFE79DF80600022888
:1050E00004D0FFE700208DF8070013E09DF80600CC
:1050F0000DF0D6FA8DF805009DF8050041F6000286
:10510000C3F20002D82110FB012090F8C9008DF8ED
:105110000700FFE79DF8070002B080BD0000000017
:1051200080B582B08DF803009DF80300012808D0F7
:10513000FFE79DF80300022803D0FFE7002001905D
:1051400012E09DF803000DF0ABFA8DF802009DF817
:10515000020041F60002C3F20002D82110FB012038
:10516000D0F8CC000190FFE7019802B080BD0000AC
:1051700080B582B08DF803009DF80300012808D0A7
:10518000FFE79DF80300022803D0FFE7002001900D
:1051900012E09DF803000DF083FA8DF802009DF8EF
:1051A000020041F60002C3F20002D82110FB0120E8
:1051B000D0F8D0000190FFE79DED010A02B080BD5C
:1051C00080B586B002AB009303460098ADF8163068
:1051D000ADF81410ADF81220BDF8161000EE101A3C
:1051E000B8EE400ABDF81410013901EE101AB8EEFD
:1051F000C11A80EE010A80ED010A90ED010A30EE3D
:10520000000A9FED151A20EE010A0FF0B9FD009873
:10521000B0EE401AB7EE000A31EE001AB0EE002AE6
:1052200081EE021A80ED001A90ED001A30EE410A6C
:10523000BDF81200013801EE100AB8EEC11A20EED6
:10524000010ABCEEC00A10EE100AADF80600BDF867
:10525000060006B080BD00BFD00F4940000000002E
:1052600080B586B004900391029200200090FFE781
:10527000049890F85000012804D1FFE702208DF82F
:1052800017005BE00499012081F85000FFE7FFE779
:105290000498FBF795FD8DF807009DF80700E0BB2B
:1052A000FFE70498406D40F0020020F48850049914
:1052B0004865049800680399029A0BF0C9FBFFE760
:1052C000049800680BF05CFAF0B1FFE70098013039
:1052D000009000984FF60001C2F2C351884212D3E9
:1052E000FFE70498406D40F0100020F002000499A0
:1052F0004865FFE70499002081F85000FFE701208E
:105300008DF817001AE0DBE70498406D40F00100CB
:1053100020F002000499486505E00499486D40F0CA
:1053200010004865FFE7FFE70499002081F850006E
:10533000FFE79DF807008DF81700FFE79DF81700BD
:1053400006B080BD0000000080B5A6B02490239177
:1053500000208DF88B002398006808B1FFE7FFE775
:10536000FFE7249890F85000012804D1FFE70220BD
:105370008DF897002DE12499012081F85000FFE776
:10538000FFE700201D901E902498006842F2000163
:10539000C4F20201884206D1FFE742F20010C4F2D3
:1053A0000200089002E000200890FFE7089878B912
:1053B000FFE72499486D40F020004865FFE72499F5
:1053C000002081F85000FFE701208DF8970000E1F0
:1053D00008980BF00DFA0790249800680BF008FA73
:1053E000002840F0E280FFE70798002840F0DD80C9
:1053F000FFE724980168012042F20002C4F2020291
:10540000914206900CD0FFE7249800684DF6007199
:10541000CBF6FD710844B0FA80F040090690FFE732
:105420000698C10746F20030C5F6020000291CBFED
:1054300042F20030C4F20200219023980068002854
:105440005ED0FFE72198806820F4404023994968A6
:1054500008432199886024980168012042F20002E3
:10546000C4F20202914205900CD0FFE72498006834
:105470004DF60071CBF6FD710844B0FA80F040099A
:105480000590FFE70598C10746F20030C5F6020017
:1054900000291CBF42F20030C4F2020042F2003187
:1054A000C4F20201884212D1FFE742F20000C4F2C6
:1054B00002000BF085F9039042F20010C4F20200E2
:1054C0000BF07EF9014603980843049007E046F28A
:1054D0000000C5F602000BF073F90490FFE7049892
:1054E00068B9FFE72198806840F61F718843239AC6
:1054F000116892681143084321998860FFE753E0DF
:105500002199886820F4404088602498016801202F
:1055100042F20002C4F20202914202900CD0FFE774
:10552000249800684DF60071CBF6FD710844B0FA7E
:1055300080F040090290FFE70298C10746F2003070
:10554000C5F6020000291CBF42F20030C4F202007E
:1055500042F20031C4F20201884212D1FFE742F266
:105560000000C4F202000BF02BF9009042F2001090
:10557000C4F202000BF024F90146009808430190A0
:1055800007E046F20000C5F602000BF019F90190A1
:10559000FFE7019838B9FFE72199886840F61F7244
:1055A00090438860FFE7FFE708E02499486D40F0EA
:1055B0002000486501208DF88B00FFE7FFE7249964
:1055C000002081F85000FFE79DF88B008DF89700D0
:1055D000FFE79DF8970026B080BD000000000000A6
:1055E00080B5AAB02690259100208DF893002190D7
:1055F000269890F83800012801D1FFE700E0FFE786
:105600002598C0680021C4F2FF71884201D0FFE7ED
:105610001EE02698006842F20001C4F202018842AE
:1056200001D1FFE7FFE72698006842F20011C4F2BB
:105630000201884201D1FFE7FFE72698006846F2A1
:105640000001C5F60201884201D1FFE7FFE7FFE74D
:10565000FFE7269890F85000012804D1FFE70220C8
:105660008DF89F00F1E32699012081F85000FFE7B3
:10567000FFE7269800680BF0B3F8002840F0D183CC
:10568000FFE72598C078000600282DD4FFE725986D
:105690000068000330B9FFE725980068C0F3846014
:1056A0001E9015E02598006890FAA0F028902898A0
:1056B00020B9FFE720208DF8A70005E02898B0FA70
:1056C00080F08DF8A700FFE79DF8A7001E90FFE788
:1056D0001E9800F01F01012000FA01F226980168CF
:1056E000C8691043C861FFE72698006825990A68D1
:1056F00049680BF0A1F8269800680BF071F820902B
:10570000269800680BF024F81F902098002840F09D
:10571000B580FFE71F98002840F0B080FFE726988B
:105720000068259A116892680BF0F6F841F20000C3
:10573000C5F60040006800F07040B0F1805F0BD10A
:10574000FFE72598406926990968C96801F01C019E
:10575000490888401D901FE026980068C068C00670
:1057600000280BD4FFE72598406926990968C96885
:1057700001F01C01490888401C900AE02598406906
:1057800026990968C96801F01001490888401C90F1
:10579000FFE71C981D90FFE71D982390259800694E
:1057A000042821D0FFE72698006825990A6809692E
:1057B000239B0BF01DF926980068259A1169527EEB
:1057C000013AB2FA82F25209D2070BF02DF926986B
:1057D0000068259A1169127E013AB2FA82F25209E2
:1057E000D2020BF0F1F848E026980068006E00F055
:1057F000F84025990968B0EB816F07D1FFE726983B
:105800000168086E20F000400866FFE726980068EF
:10581000406E00F0F84025990968B0EB816F07D120
:10582000FFE726980168486E20F000404866FFE7D1
:1058300026980068806E00F0F84025990968B0EB62
:10584000816F07D1FFE726980168886E20F000403D
:105850008866FFE726980068C06E00F0F84025993A
:105860000968B0EB816F07D1FFE726980168C86E21
:1058700020F00040C866FFE7FFE7FFE726980068D2
:105880000AF096FF002840F0CB82FFE726980068D8
:10589000259A1168D2680BF05BF82598C068002142
:1058A000C4F2FF71884240F05781FFE726980068F4
:1058B0001B9042F20001C4F20201884240F0A48031
:1058C000FFE7259800680221C0F23041884203D1E9
:1058D000FFE701201A9094E0259800680421C0F6A3
:1058E0006001884205D1FFE74020C1F620101990E1
:1058F00084E0259800680821C0F69041884205D1CF
:10590000FFE78020C1F65050189074E02598006899
:105910001021C1F2C001884206D1FFE740F2001019
:10592000C2F28010179063E0259800682021C1F230
:10593000F041884206D1FFE740F20020C2F2B050A9
:10594000169052E02598006840F20041C2F600210E
:10595000884206D1FFE740F60000C2F6306015909D
:1059600040E02598006840F60001C2F630618842A8
:1059700006D1FFE741F20000C3F2602014902EE050
:105980002598006841F20001C3F26021884206D1E7
:10599000FFE742F20000C3F2906013901CE02598EC
:1059A00000680021C4F22131884205D1FFE70020C0
:1059B000C4F2527012900CE0259801680022C4F6DF
:1059C00084320020914204BF0020C4F6B8701290C7
:1059D000FFE712981390FFE713981490FFE71498CD
:1059E0001590FFE715981690FFE716981790FFE7B8
:1059F00017981890FFE718981990FFE719981A90D0
:105A0000FFE71A981190A2E02698006842F2001170
:105A1000C4F20201884240F09480FFE725980068B4
:105A20000221C0F23041884203D1FFE701201090EB
:105A300084E0259800680421C0F66001884205D101
:105A4000FFE74020C1F620100F9074E02598006811
:105A50000821C0F69041884205D1FFE78020C1F6B9
:105A600050500E9064E0259800681021C1F2C001EA
:105A7000884206D1FFE740F20010C2F280100D907C
:105A800053E0259800682021C1F2F041884206D1F8
:105A9000FFE740F20020C2F2B0500C9042E025989F
:105AA000006840F20041C2F60021884206D1FFE7BB
:105AB00040F60000C2F630600B9030E02598006898
:105AC00040F60001C2F63061884206D1FFE741F29C
:105AD0000000C3F260200A901EE02598006841F2A1
