:020000040800F2
:1000000080270024AD020008E91F010891050108BE
:10001000E11F0108A11E0008895901080000000025
:100020000000000000000000000000007131010825
:10003000B948000800000000792C01084138010887
:10004000CB020008CB020008CB020008CB0200085C
:10005000CB020008CB020008CB020008CB0200084C
:10006000CB020008CB020008CB020008993C000834
:10007000A93C0008B93C0008C93C0008CB020008B4
:10008000CB020008CB020008CB020008CB0200081C
:10009000CB020008CB020008CB020008CB0200080C
:1000A000CB020008CB020008CB020008CB020008FC
:1000B000CB020008CB020008CB020008CB020008EC
:1000C000CB020008CB020008CB020008CB020008DC
:1000D000CB020008CB020008CB020008CB020008CC
:1000E000CB020008CB02000800000000CB02000891
:1000F000CB020008CB020008CB020008CB020008AC
:10010000CB020008CB020008CB020008CB0200089B
:10011000CB020008CB020008CB020008CB0200088B
:10012000CB020008CB020008CB020008CB0200087B
:10013000CB020008CB020008CB020008CB0200086B
:1001400000000000000000000000000000000000AF
:10015000CB020008CB020008CB020008CB0200084B
:10016000CB020008CB020008CB020008CB0200083B
:10017000CB020008CB020008CB0200080000000000
:10018000CB020008CB020008CB020008CB0200081B
:10019000CB020008CB020008CB020008CB0200080B
:1001A000CB020008CB020008CB020008CB020008FB
:1001B000CB020008CB020008CB020008CB020008EB
:1001C000CB020008CB020008CB020008CB020008DB
:1001D000CB020008CB020008CB020008CB020008CB
:1001E000CB020008CB020008CB020008CB020008BB
:1001F000CB020008CB020008CB020008CB020008AB
:10020000CB020008CB020008CB020008CB0200089A
:10021000CB020008CB020008CB020008CB0200088A
:10022000CB020008CB020008CB020008000000004F
:10023000CB020008CB02000800000000CB0200083F
:10024000CB020008CB020008CB020008CB0200085A
:10025000CB020008CB020008CB020008CB0200084A
:10026000CB020008CB020008CB020008CB0200083A
:10027000CB020008CB020008CB02000800000000FF
:10028000CB020008CB020008CB02000800000000EF
:1002900000000000CB020008DFF80CD000F0A0FA4C
:1002A00000480047D1800108802700240748804784
:1002B0000748804707480047FEE7FEE7FEE7FEE7FE
:1002C000FEE7FEE7FEE7FEE7FEE7FEE7D94B0008A4
:1002D00031390108990200082DE9F05F0546002038
:1002E00092469B4688460646814640241BE02846A7
:1002F00041464746224600F0ABF853465A46C01ADC
:10030000914110D311461846224600F092F82D1A5A
:1003100067EB01084F4622460120002100F089F8D2
:1003200017EB00094E41201EA4F10104DFDC484612
:1003300031462A464346BDE8F09F2DE9F0410024AE
:10034000061B254671F1000605DA01240027D0EBD3
:10035000070067EB0101161E73F1000605DA00279E
:10036000D2EB0702012567EB0303FFF7B5FF8646D3
:100370000E4617469C46AC4204D00025D0EB050E35
:1003800065EB010624B10020D2EB000760EB030C03
:10039000704631463A466346BDE8F081D2B201E08C
:1003A00000F8012B491EFBD270470022F6E710B57A
:1003B00013460A4604461946FFF7F0FF204610BDD3
:1003C00010B5044604E00B7800F8013B03B1491C6A
:1003D000521EF8D2204610BD10B5002200E0521C7B
:1003E000835C8C5CA34201D1002BF8D1D8B2E1B27E
:1003F000401A10BD034611F8012B00F8012B002A0A
:10040000F9D11846704730B50B460146002020222E
:10041000012409E021FA02F59D4205D303FA02F511
:10042000491B04FA02F52844151EA2F10102F1DC71
:1004300030BD202A04DB203A00FA02F10020704788
:100440009140C2F1200320FA03F319439040704712
:10045000202A04DB203A21FA02F00021704721FA19
:1004600002F3D040C2F12002914008431946704780
:100470002DE9FE4F804681EA0300C00F0C46009034
:1004800021F0004123F00045B8EB0200A94105D25C
:100490004046214690461C460B46024623F000404B
:1004A000104347D0270DC7F30A00C3F30A51029047
:1004B000401A019040286BDAC3F3130040F4801B0C
:1004C0000098924620B10023D2EB030A63EB0B0B9A
:1004D00001985946C0F140025046FFF7AAFF064670
:1004E0000D4650465946019A00F092F910EB08006B
:1004F0006141002487EA115284EAE7731A4340D02D
:10050000009A62B3019A012A4FEA075215DC001BD8
:1005100061EB02014FF0004202EA0752CDE90042CE
:10052000001C41F5801132462B4600F092F903B0D1
:10053000BDE8F08F40462146F9E7001B61EB020160
:10054000001C41F5801300185B412018A2F500172C
:1005500047EB030140EAD570B6196D4111E06D0813
:100560004FEA360645EAC0754FEA0752001B61EBB9
:100570000201001C41F5801149084FEA30000019C2
:10058000514132462B4603B0BDE8F04F00F052B95E
:100590000098012240000023D0EB020263EBE073DD
:1005A000009821464FEAE074B8EB000061EB0401CB
:1005B000E9E783F000435BE781F0004158E72DE96C
:1005C000FE4F81EA030404F0004421F0004100944E
:1005D0004FF0000B23F0004350EA01045ED052EAD2
:1005E00003045BD0C3F30A54C1F30A552C44A4F2AC
:1005F000F3340194A0FB0254C1F3130141F48011C0
:10060000C3F3130343F4801301FB024400FB034EC6
:10061000840A970A44EA815447EA8357A4FB07688F
:1006200002958D0A05FB07854FEA932C04FB0C54B9
:100630002705029D4FEA065847EA1637B5EB08052D
:100640006EEB070C870E920E47EA811742EA83127F
:10065000A7FB0201B6EB0B0164EB00042B0D43EA90
:100660000C335E1844EB1C50DA465146E7FB02019E
:10067000C5F313044FEA0B3343EA14534FEA043231
:10068000019C43EA0603A4F10C040294009CCDE90A
:1006900000B400F0DEF803B0BDE8F08F00200146A2
:1006A000F9E72DE9F04D81EA030404F0004B21F055
:1006B000004514464FF0000A23F0004150EA0502BD
:1006C00020D054EA01021DD0C5F30A570246C5F3F3
:1006D0001303C1F31300C1F30A5640F4801543F429
:1006E0008013A7EB0608101BD64608F2FD3873EB03
:1006F000050002D308F1010801E092185B41B8F14E
:10070000000F03DA00200146BDE8F08D00204FF411
:100710008011064684460EE0171B73EB050705D3D0
:10072000121B63EB050306434CEA010C49084FEA30
:10073000300092185B4150EA0107EDD152EA030004
:1007400012D082EA040083EA0501084305D0101B99
:10075000AB4106D20122002306E000224FF0004305
:1007600002E06FF0010253101AEB06004CEB085147
:1007700010EB0A0041EB0B01BDE8F04D00F05AB858
:10078000C1F30A52C1F3130140F2FF3341F4801167
:100790009A4202DA00200146704740F233439A42FF
:1007A000A2F2334202DC5242FFF752BEFFF741BED3
:1007B00030B5041E71F1000404DB4FF000444042E8
:1007C00064EB0101141E73F1000405DB1C464FF0BD
:1007D0000043524263EB0403994208BF904230BD8C
:1007E0001CB509480090094801900546009C06E0A8
:1007F000E06840F0010394E8070098471034AC42E9
:10080000F6D3FFF74DFD00000C6003082C600308D1
:10081000202A06DBCB17203A41FA02F043EAE073C4
:1008200006E041FA02F3D040C2F1200291400843B1
:100830001946704710B5141E73F1000408DA401C05
:1008400041F1000192185B411A4301D120F00100EF
:1008500010BD2DE9F04D92469B4611B1B1FA81F2DF
:1008600002E0B0FA80F220329046FFF7E2FD044643
:100870000F4640EA0A0041EA0B0153465A46084334
:1008800013D0114653EA010019D0C8F14002504676
:10089000FFF7DEFD05460E46504659464246FFF735
:1008A000C8FD084305D0012004E020463946BDE8D4
:1008B000F08D0020054346EAE0762C4337430A9842
:1008C0006305E40AA0EB08000022FD0A44EA47544D
:1008D0000A3002D500200146E9E7010510196941F7
:1008E000DDE9084500196941BDE8F04DA2E70000C7
:1008F00080B584B003900398006842F20001C4F20E
:100900000201884209D0FFE70398006842F2001113
:10091000C4F20201884209D1FFE742F20830C4F272
:100920000200006810F4403F09D129E046F2083087
:10093000C5F60200006810F4403F21D0FFE70DF03B
:10094000BBFD0290039840680190B0F5803F0AD04B
:10095000FFE70198B0F5003F05D0FFE70198B0F53B
:10096000403F07D00AE00398C1880298B0FBF1F03D
:10097000029004E002988008029000E0FFE75FE048
:100980004FF4002000210BF0D3FC02900398406844
:100990000090B0F5802F32D0FFE70098B0F5002F1F
:1009A0002DD0FFE70098B0F5402F28D0FFE7009842
:1009B000B0F5801F23D0FFE70098B0F5A01F1ED030
:1009C000FFE70098B0F5C01F19D0FFE70098B0F519
:1009D000E01F1FD0FFE70098B0F5001F1ED0FFE713
:1009E0000098B0F5101F1DD0FFE70098B0F5201F4C
:1009F0001CD0FFE70098B0F5301F1BD01EE0039815
:100A000041686FF0010000EA51410298B0FBF1F03B
:100A1000029014E002980009029010E00298400948
:100A200002900CE002988009029008E00298C00948
:100A3000029004E00298000A029000E0FFE7FFE75E
:100A40000AF096F941F20301884217D8FFE70298AD
:100A500042F60151C0F23111884207D3FFE70398F3
:100A60000168886840F48070886006E00398016837
:100A7000886820F480708860FFE743E002984008AF
:100A80000290029845F61061C0F25F01884209D8D1
:100A9000FFE703980068806820F4407003990968B4
:100AA00088602EE002984BF62041C0F2BE018842D9
:100AB0000AD8FFE7039800688068012161F30920E4
:100AC0000399096888601BE0029847F64001C0F26C
:100AD0007D1188420AD8FFE70398006880680221E8
:100AE00061F3092003990968886008E003980068A9
:100AF000806840F44070039909688860FFE7FFE769
:100B0000FFE7FFE704B080BD80B58AB00890079189
:100B100000200590079804900898006810F014FBD6
:100B200002900898006810F0C7FA0190029828B95E
:100B3000FFE70198002800F0A880FFE70898006808
:100B4000C0688001002836D5FFE70898407D01285D
:100B500031D1FFE70898007D01282CD1FFE7012063
:100B60000490FFE708980068006800F0400100204A
:100B7000B0EB911F1AD1FFE705984DF60041C0F286
:100B80000C0188420ED3FFE70899486D40F0100031
:100B900048650899886D40F00100886501208DF84E
:100BA000270076E0059801300590DBE7089801689A
:100BB00040200860FFE70498022813D0FFE7089858
:100BC000006810F0C1FA60B1FFE70898006810F003
:100BD0009BFA28B9FFE70898006810F011FBFFE7BF
:100BE000FFE7FFE70498012813D0FFE708980068A3
:100BF00010F062FA60B1FFE70898006810F084FA1C
:100C000028B9FFE70898006810F05EFAFFE7FFE7F1
:100C1000FFE704980090022807D0FFE70098032818
:100C200006D1FFE70C20039005E00820039002E0C6
:100C300004200390FFE70AF0A3F80690FFE7089866
:100C400000688068039908421ED0FFE70AF098F810
:100C50000699401A062816D3FFE7089800688068AE
:100C6000039908420ED0FFE70899486D40F0100044
:100C700048650899886D40F00100886501208DF86D
:100C8000270006E0FFE7DAE7FFE700208DF82700FE
:100C9000FFE79DF827000AB080BD000000000000BB
:100CA00080B582B001900198806B00900098406DF3
:100CB00010F0500F4AD1FFE70099486D40F40070E2
:100CC00048650098006800680007002821D5FFE704
:100CD0000098006810F048FAD0B1FFE7009800686B
:100CE000C0688004002812D4FFE70099486D20F402
:100CF000807048650098406DC004002806D4FFE766
:100D00000099486D40F001004865FFE7FFE7FFE705
:100D100018E000980068C068800790B9FFE7009964
:100D2000486D20F4807048650098406DC00400282C
:100D300006D4FFE70099486D40F001004865FFE7E1
:100D4000FFE7FFE7009805F00BFD10E00098406D0D
:100D5000C006002804D5FFE7009805F049FD05E02E
:100D60000098C06CC16C01988847FFE7FFE702B0AC
:100D700080BD00000000000080B582B001900198A5
:100D8000806B00900099486D40F0400048650099E4
:100D9000886D40F004008865009805F029FD02B0D8
:100DA00080BD00000000000080B582B00190019875
:100DB000806B0090009805F0F7FC02B080BD000049
:100DC00080B584B002900298006810F09DF9009000
:100DD0000298006810F0A0F900284BD0FFE70098B7
:100DE000002847D1FFE702980068806800F00D00F6
:100DF000012809D1FFE70298006810F011F9029864
:100E00000168032008600DE00299486D40F0100071
:100E100048650299886D40F00100886501208DF8D1
:100E20000F002BE009F0ACFF0190FFE7029800688B
:100E30008068C007E8B1FFE709F0A2FF0199401AF6
:100E4000032815D3FFE7029800688068C00770B1D7
:100E5000FFE70299486D40F0100048650299886DDF
:100E600040F00100886501208DF80F0006E0FFE7E3
:100E7000DCE7FFE700208DF80F00FFE79DF80F008B
:100E800004B080BD0000000080B586B004900498D6
:100E9000006810F041F9002840F09280FFE70498C4
:100EA000006880683F21C8F2000108420ED0FFE7C9
:100EB0000499486D40F0100048650499886D40F031
:100EC0000100886501208DF817007DE00498006816
:100ED00010F0C2F809F054FF039004980168012053
:100EE00042F20002C4F20202914201900CD0FFE7EC
:100EF000049800684DF60071CBF6FD710844B0FA15
:100F000080F040090190FFE70198C10746F20030E8
:100F1000C5F6020000291CBF42F20030C4F20200F4
:100F200010F0C2F802900498006842F20011C4F276
:100F30000201884206D1FFE742F20000C4F202003B
:100F4000009003E0049800680090FFE7009804997F
:100F50000968884203D0FFE7029880BBFFE7FFE7FC
:100F6000049800680068C00740BBFFE70498006869
:100F700010F0D2F828B9FFE70498006810F06CF878
:100F8000FFE709F0FDFE0399401A032815D3FFE798
:100F9000049800680068C00770B9FFE70499486DBD
:100FA00040F0100048650499886D40F001008865A4
:100FB00001208DF8170007E0FFE7D1E7FFE7FFE723
:100FC00000208DF81700FFE79DF8170006B080BDE0
:100FD00080B586B040F20000C3F200004FF400611B
:100FE000FFF7E3F940F60000C3F200004FF4805130
:100FF0000091FFF7DAF944F20000C2F200404FF42A
:101000000051FFF7D2F9009946F20000C2F2004009
:10101000FFF7CBF940F29400C2F200402821FFF71D
:10102000C4F940F2D401C2F20041002003904861AB
:101030000861C86088604860086040F2BC01C2F284
:10104000004148610861C8608860486008604FF4EA
:101050008060019017F004F8019940F23C72C2F2EE
:101060000042106040F2F000C2F2004016F078FF3B
:1010700003990120029002F04BFC02984EF6806129
:10108000C0F2360105910FF04BFD40F26810C2F23C
:10109000004005F069FF03990220049002F038FC3B
:1010A000049805990FF03CFD40F2CC10C2F20040CC
:1010B00005F05AFF06B080BD80B582B0019001985E
:1010C0004FF47A71484300F003F802B080BD00008D
:1010D00083B0029041F20400CEF20000006801905B
:1010E000029840F20C01C2F2004109684DF6836299
:1010F000C4F21B32A1FB0221890C48430090FFE798
:1011000041F20400CEF2000000680199401A0099F3
:10111000884201D2FFE7F3E703B070470000000008
:1011200041F20400CEF200000068704700000000A9
:1011300084B00390029102980399884205D3FFE797
:1011400002980399401A009005E003980299C04361
:1011500008440090FFE7009801909DED010AB8EE69
:10116000400A40F20C00C2F2004090ED001AB8EEC6
:10117000411A9FED042A81EE021A80EE010A04B0A2
:10118000704700BF002474494EF6FC51CEF20001B6
:10119000086840F08070086041F20401CEF200015E
:1011A0000020086041F20001CEF20001086840F022
:1011B000010008607047000080B582B0019001987E
:1011C0006946086000214FF448724FF4F0730846F6
:1011D00000F0EAFA02B080BD82B0ADF80600ADF8CA
:1011E00004100092BDF80600B0F5487F06DAFFE76C
:1011F000BDF80400B0F5F07F01DBFFE70DE00098DB
:10120000BDF80410BDF806304FF4487201FB0232FD
:101210004FF0404141F82200FFE702B07047000064
:1012200080B58AB0DDF830C0ADF81600ADF8141006
:10123000ADF81220ADF81030BDF81400BDF816203E
:101240004FF4487100FB0120800000F14040039002
:1012500040F24420C2F2004041F20001C5F20021F8
:101260000160002141608160BDF81210C1F5487134
:10127000C16006F011FB002842D1FFE70C99BDF8D0
:101280001200BDF810205043800009910890089882
:10129000012820DBFFE70898099901F01F010844A5
:1012A000079009980690BFF34F8FFFE706984EF618
:1012B0006871CEF200010860069820300690079809
:1012C0002038079007980028F0DCFFE7BFF34F8F26
:1012D000BFF36F8FFFE70C99039ABDF81230BDF88A
:1012E0001000EC46CCF8000040F24420C2F200406E
:1012F000029006F051FC02980A2106F04DFBFFE730
:101300000AB080BD0000000080B588B084460B980C
:101310000A98ADF81EC0ADF81C10069205938DF822
:101320001300FFE706980078002800F0D880FFE758
:101330000698411C069100788DF812009DF8120065
:10134000202805DBFFE79DF812007F2801DBFFE77F
:10135000E8E79DF812009DF8131004F025FA0390B9
:101360009DF81300002856D1FFE700208DF80B00F0
:10137000FFE79DF80B000F2847DCFFE703989DF877
:101380000B10405C8DF80A0000208DF80900FFE783
:101390009DF80900072831DCFFE79DF80A009DF859
:1013A0000910C1F10701C840C00780B1FFE7BDF8CF
:1013B0001E009DF809100844BDF81C109DF80B2074
:1013C0001144059A80B289B2FFF706FF0FE0BDF81D
:1013D0001E009DF809100844BDF81C109DF80B2054
:1013E00011440B9A80B289B2FFF7F6FEFFE7FFE7E0
:1013F0009DF8090001308DF80900C9E7FFE79DF865
:101400000B0001308DF80B00B3E7BDF81E0008306B
:10141000ADF81E0062E09DF8130001285CD1FFE7E3
:1014200000208DF80800FFE79DF808001F284DDC1C
:10143000FFE703999DF8082001EB420011F8121014
:10144000407840EA0120ADF8060000208DF8050044
:10145000FFE79DF805000F2831DCFFE7BDF8060027
:101460009DF80510C1F10F01C840C00780B1FFE72A
:10147000BDF81E009DF805100844BDF81C109DF82D
:1014800008201144059A80B289B2FFF7A5FE0FE04B
:10149000BDF81E009DF805100844BDF81C109DF80D
:1014A000082011440B9A80B289B2FFF795FEFFE73E
:1014B000FFE79DF8050001308DF80500C9E7FFE75B
:1014C0009DF8080001308DF80800ADE7BDF81E005A
:1014D0001030ADF81E0000E001E0FFE722E708B0A1
:1014E00080BD00000000000080B592B0DDF850C063
:1014F000ADF84600ADF84410ADF84220ADF84030EC
:10150000BDF84600B0F5487F12DAFFE7BDF84400A9
:10151000B0F5F07F0CDAFFE7BDF84200B0F5487F88
:1015200006DAFFE7BDF84000B0F5F07F01DBFFE72A
:1015300035E1BDF84200BDF84610401A012807DB2E
:10154000FFE7BDF84200BDF84610401A069006E0DD
:10155000BDF84210BDF84600401A0690FFE7069815
:10156000ADF83E00BDF84000BDF84410401A012817
:1015700007DBFFE7BDF84000BDF84410401A0590B6
:1015800006E0BDF84010BDF84400401A0590FFE7A2
:101590000598ADF83C00BDF84610BDF842204FF06C
:1015A000FF3091420146B8BF0121ADF83A10BDF8B5
:1015B0004410BDF840209142B8BF0120ADF838007A
:1015C000BDF84400BDF84010884247D1FFE7BDF8A0
:1015D0004600BDF84210884204DAFFE7BDF8460035
:1015E000049003E0BDF842000490FFE70498ADF8D2
:1015F0003600BDF84600BDF84210884204DAFFE725
:10160000BDF84200039003E0BDF846000390FFE7F9
:101610000398ADF83400BDF84400BDF836204FF40F
:10162000487100FB0120800000F140400C90BDF8A3
:101630003400BDF83610401A0130ADF82E00FFE737
:10164000BDF82E00411EADF82E1030B1FFE7149802
:101650000C990A1D0C920860F2E7A0E0BDF8460064
:10166000BDF84210884249D1FFE7BDF84400BDF8FB
:101670004010884204DAFFE7BDF84400029003E01E
:10168000BDF840000290FFE70298ADF82C00BDF8CD
:101690004400BDF84010884204DAFFE7BDF840007E
:1016A000019003E0BDF844000190FFE70198ADF818
:1016B0002A00BDF82C00BDF846204FF4487100FB0D
:1016C0000120800000F140400990BDF82A00BDF8DB
:1016D0002C10401A0130ADF82200FFE7BDF82200BF
:1016E000411EADF8221040B1FFE714980999086037
:1016F000099800F548600990F0E750E0BDF83E0019
:10170000BDF83C10401AADF82000FFE7BDF84600D8
:10171000BDF84410149AFFF75FFDBDF84600BDF810
:101720004210884208D1FFE7BDF84400BDF84010E0
:10173000884201D1FFE732E0BDF820004000ADF85B
:101740001E00BDF91E00BDF93C10494288420FDD64
:10175000FFE7BDF83C10BDF82000401AADF82000AE
:10176000BDF83A10BDF846000844ADF84600FFE762
:10177000BDF91E00BDF93E1088420FDAFFE7BDF843
:101780003E10BDF820000844ADF82000BDF8381028
:10179000BDF844000844ADF84400FFE7B6E712B0D6
:1017A00080BD00000000000080B584B0DDF818C0E6
:1017B000ADF80E00ADF80C10ADF80A20ADF8083009
:1017C000BDF80E00B0F5487F06DAFFE7BDF80C0063
:1017D000B0F5F07F01DBFFE74AE0BDF80E00BDF891
:1017E0000A100844B0F5487F07DDFFE7BDF80E009A
:1017F000C0F54870ADF80A00FFE7BDF80C00BDF871
:1018000008100844B0F5F07F07DDFFE7BDF80C00D5
:10181000C0F5F070ADF80800FFE7BDF80C00BDF8AA
:101820000E204FF4487100FB0120800000F1404081
:101830000190BDF80A00C0F5487140F24420C2F2A0
:101840000040026811640699019ABDF80A30BDF89B
:1018500008C0EE46CEF800C006F09EF940B9FFE79A
:1018600040F24420C2F20040322106F095F8FFE732
:1018700004B080BD0000000080B582B040F244207A
:10188000C2F2004041F20001C5F2002101604FF4B4
:1018900040314160002181604FF44871C16005F022
:1018A000FBFFB0B9FFE769464FF4F070086040F203
:1018B0004420C2F2004001904FF0FF314FF040420F
:1018C0004FF4487306F068F90198322106F064F885
:1018D000FFE702B080BD000080B540F28850C2F240
:1018E000004011F009FC80BD80B58CB00B900A91CE
:1018F000099247F64000C0F27D10089000208DF854
:101900001F000B980690FFE7069900204AF21F126D
:10191000C0F207029142039008DCFFE79DF81F1018
:1019200000200729B8BF01200390FFE70398C007F4
:1019300048B1FFE70698400006909DF81F0001306F
:101940008DF81F00E0E79DF81F00099908730698BD
:1019500041F2FF11C0F27A01884209DCFFE70699E3
:1019600044F20060C2F2C33090FBF1F0029008E054
:1019700006994EF60010C3F2A45090FBF1F00290CD
:10198000FFE702980999086009980068B0F5006FB0
:1019900005DDFFE709994FF400600860FFE709984B
:1019A00000230193436009990120886006980999F2
:1019B000096880FB0101059104900498059947F698
:1019C0004002C0F27D120092FEF7B7FC009A019B24
:1019D0000A99086004980599FEF7AFFC104619466D
:1019E000019B1922FEF7A9FC0A9948600A9944F262
:1019F0004020C0F20F0088600CB080BD00000000E5
:101A000080B582B08DF807008DF806109DF80600AD
:101A100068B1FFE79DF80710012000FA01F240F2DB
:101A20002001C2F200410878104308700CE09DF8D4
:101A30000710012000FA01F240F22001C2F2004139
:101A4000087890430870FFE740F22000C2F200409F
:101A5000007880F0FF01032000F0EAF802B080BDBA
:101A600080B582B08DF807009DF8070080F0FF0177
:101A7000032000F0DDF802B080BD0000000000008F
:101A800080B5B720802100F0D3F80020FFF7E8FFF1
:101A900080BD00000000000080B58CB084460E9828
:101AA0008DF82FC00A918DF827208DF826308DF8FB
:101AB00025000A9801684FF60060CFF6FF7000EB32
:101AC000C1100890002007900A9880680690069838
:101AD000000A8DF8100006988DF81100BDF822005C
:101AE00000F003000A99097B40EA01108DF812000A
:101AF0000898000A8DF8130008988DF814000699CC
:101B0000F02000EA1130BDF81E1001F00F0108446A
:101B10008DF815000798000A8DF8160007988DF8C3
:101B2000170040F20800C2F2004000689DF82F2024
:101B30006B46642199600821596004A91960C0218D
:101B4000012309F051FA9DF825009DF8271049015D
:101B5000C9B29DF82620114341F00C0100F068F84D
:101B60000CB080BD0000000080B584B08DF80F007F
:101B70000291029A116850689268C00190FBF2F0DD
:101B800000EBC110A0F500700190029841688068D8
:101B9000CA0192FBF0F25043C0EBC11000909DF8D7
:101BA0000F000199009A029B9B6800F061F8B12038
:101BB000A02100F03DF804B080BD0000000000004E
:101BC00080B58CB00B908DF82B100B9807A9019164
:101BD00003AA0292FFF788FE01991A20FFF7C4FFBB
:101BE00002999DF82B306A46102010602A200022AE
:101BF000FFF752FF0CB080BD80B58CB00B908DF814
:101C00002B100B9807A9019103AA0292FFF76CFE13
:101C100001992220FFF7A8FF02999DF82B306A4610
:101C2000122010603A200122FFF736FF0CB080BD71
:101C300080B584B08DF80F008DF80E1040F20800CA
:101C4000C2F2004000689DF80F20EC466421CCF8F9
:101C500008100123CCF804300DF10E01CCF800106F
:101C6000C02109F0C1F904B080BD000000000000EF
:101C700080B58AB08DF827000891079206930698E0
:101C8000000A8DF8100006988DF81100BDF82200AA
:101C900000F003008DF812000898000A8DF8130078
:101CA00008988DF814000699F02000EA1130BDF86C
:101CB0001E1001F00F0108448DF815000798000A66
:101CC0008DF8160007988DF8170040F20800C2F250
:101CD000004000689DF827206B4664219960082128
:101CE000596004A91960C021012309F07DF90AB0E7
:101CF00080BD00000000000080B588B084460B98CD
:101D00000A98CDF81CC0ADF81A10ADF81820ADF83F
:101D10001630ADF81400BDF81600BDF81A10401AC0
:101D2000012807DBFFE7BDF81600BDF81A10401ABE
:101D3000019006E0BDF81610BDF81A00401A019097
:101D4000FFE70198ADF81200BDF81400BDF81810B7
:101D5000401A012807DBFFE7BDF81400BDF8181092
:101D6000401A009006E0BDF81410BDF81800401AA3
:101D70000090FFE70098ADF81000BDF81A10BDF80C
:101D800016204FF0FF3091420146B8BF0121ADF857
:101D90000E10BDF81810BDF814209142B8BF0120F4
:101DA000ADF80C00BDF81200BDF81010401AADF8E7
:101DB0000A00FFE70798BDF81A10BDF818200B9B22
:101DC00000F046F8BDF81A00BDF81610884208D198
:101DD000FFE7BDF81800BDF81410884201D1FFE7F5
:101DE00032E0BDF80A004000ADF80800BDF9080077
:101DF000BDF91010494288420FDDFFE7BDF8101011
:101E0000BDF80A00401AADF80A00BDF80E10BDF882
:101E10001A000844ADF81A00FFE7BDF90800BDF943
:101E2000121088420FDAFFE7BDF81210BDF80A0061
:101E30000844ADF80A00BDF80C10BDF818000844BD
:101E4000ADF81800FFE7B5E708B080BD000000005E
:101E500083B00290ADF80610ADF804200093BDF8F1
:101E6000060002990989884207DAFFE7BDF80400F5
:101E700002994989884201DBFFE70CE0009802994A
:101E8000BDF804200B89BDF806C002FB03C201EBBC
:101E900082010863FFE703B0704700000000000004
:101EA000FFE7FEE70000000010B5AAB029902998CE
:101EB0000C304EF64E01C0F60101FEF78DFA60B10E
:101EC000FFE729980C304EF67901C0F60101FEF7C4
:101ED00083FA002840F0AC80FFE729990A6848F2AD
:101EE0000000CFF600700C90824204BF43F2333002
:101EF000CFF633700860DDF8A4C0BCF80400BCF86D
:101F00000610BCF80820BCF80A30DCF800C0EE4629
:101F1000CEF800C0FFF748FC4FF03200FFF7CCF8D6
:101F20000C9829990A68824204BF43F23330CFF6F5
:101F300033700860DDF8A4C0BCF80400BCF80610DB
:101F4000BCF80820BCF80A30DCF800C0EE46CEF839
:101F500000C0FFF729FC4FF0010003F075FC28904A
:101F6000299800F10C004EF64E01C0F60101FEF773
:101F700033FA58B9FFE72898013028902898642848
:101F800003D3FFE763202890FFE709E02898013892
:101F90002890289818B9FFE701202890FFE7FFE76D
:101FA000DDF8A4E0BEF804000530BEF806100531E7
:101FB0000EF12402DEF858309EF856C0DEF80040DC
:101FC000EE46CEF80440CEF800C080B289B2FFF7EA
:101FD0009BF90DF16E000B903221FEF7E6F901201E
:101FE0000A9003F085FC0A98B7EEC00A8DED080B45
:101FF00003F056FC9DED080B01460B98289B6A46A2
:102000005360116053EC102B4EF2C471C0F6010105
:1020100016F0A4FA0A989DF8A01011F0ADF80B99EB
:1020200040F26470C2F200400068C26D9047C2E0A6
:1020300029980C304EF6AA01C0F60101FEF7CCF942
:1020400060B1FFE729980C304EF6D501C0F60101CA
:10205000FEF7C2F9002840F0AD80FFE729990A6831
:102060000020CFF6FF70079012F5803F04BF43F2C7
:102070003330CFF633700860DDF8A4C0BCF804003C
:10208000BCF80610BCF80820BCF80A30DCF800C028
:10209000EE46CEF800C0FFF787FB4FF03200FFF7A7
:1020A0000BF8079829990A6812F5803F04BF43F29C
:1020B0003330CFF633700860DDF8A4C0BCF80400FC
:1020C000BCF80610BCF80820BCF80A30DCF800C0E8
:1020D000EE46CEF800C0FFF767FB4FF0020003F0BA
:1020E000B3FB1A90299800F10C004EF6AA01C0F635
:1020F0000101FEF771F958B9FFE71A9801301A90FB
:102100001A98642803D3FFE763201A90FFE709E0D9
:102110001A9801381A901A9818B9FFE701201A90F6
:10212000FFE7FFE7DDF8A4E0BEF804000530BEF8E5
:10213000061005310EF12402DEF858309EF856C024
:10214000DEF80040EE46CEF80440CEF800C080B283
:1021500089B2FFF7D9F80DF1360006903221FEF76B
:1021600024F90220059003F0C3FB0598B7EEC00ADE
:102170008DED020B03F094FB9DED020B01460698DA
:102180001A9B6A465360116053EC102B4EF2E771B4
:10219000C0F6010116F0E2F905989DF8681010F0FC
:1021A000EBFF069940F26C70C2F200400068C26D0D
:1021B0009047FFE7FFE72AB010BD000000000000D5
:1021C00010B5AEB01EA910912D902D980C304EF682
:1021D0004001C0F60101FEF7FFF860B1FFE72D985E
:1021E0000C304EF66A01C0F60101FEF7F5F8002842
:1021F00040F0B980FFE72D990A6848F20000CFF659
:1022000000700F90824204BF43F23330CFF6337038
:102210000860DDF8B4C0BCF80400BCF80610BCF8D7
:102220000820BCF80A30DCF800C0EE46CEF800C04A
:10223000FFF7BAFA4FF03200FEF73EFF0F982D99E4
:102240000A68824204BF43F23330CFF6337008602D
:10225000DDF8B4C0BCF80400BCF80610BCF80820D7
:10226000BCF80A30DCF800C0EE46CEF800C0FFF73C
:102270009BFA4FF0010003F013FB2C902D9800F116
:102280000C004EF64001C0F60101FEF7A5F878B942
:10229000FFE72C9800F57A702C902C984CF2513175
:1022A000884204D3FFE74CF250302C90FFE70DE05A
:1022B0002C98A0F57A702C902C98C0087C2804D813
:1022C000FFE74FF47A702C90FFE7FFE7DDF8B4E00A
:1022D000BEF804000530BEF8061005310EF12402E8
:1022E000DEF858309EF856C0DEF80040EE46CEF8D4
:1022F0000440CEF800C080B289B2FFF705F80DF1B6
:102300007E000E903221FEF750F801200D9003F070
:10231000EFFA0D98B7EEC00A8DED0A0B2C990991D2
:1023200003F092FA09999DED0A0B03460E986A464E
:102330005360116053EC102B4EF2C471C0F60101D2
:1023400016F00CF910990D9891ED0E0AB8EE400AAE
:1023500010F042FF0E9940F26470C2F20040006833
:10236000C26D9047CFE02D980C304EF69C01C0F620
:102370000101FEF731F860B1FFE72D980C304EF601
:10238000C601C0F60101FEF727F8002840F0BA8028
:10239000FFE72D990A680020CFF6FF70089012F52C
:1023A000803F04BF43F23330CFF633700860DDF86E
:1023B000B4C0BCF80400BCF80610BCF80820BCF897
:1023C0000A30DCF800C0EE46CEF800C0FFF7ECF9AA
:1023D0004FF03200FEF770FE08982D990A6812F54A
:1023E000803F04BF43F23330CFF633700860DDF82E
:1023F000B4C0BCF80400BCF80610BCF80820BCF857
:102400000A30DCF800C0EE46CEF800C0FFF7CCF989
:102410004FF0020003F044FA1E902D9800F10C00DA
:102420004EF69C01C0F60101FDF7D6FF78B9FFE733
:102430001E9800F57A701E901E984CF25131884219
:1024400004D3FFE74CF250301E90FFE70DE01E98DA
:10245000A0F57A701E901E98C0087C2804D8FFE76B
:102460004FF47A701E90FFE7FFE7DDF8B4E0BEF8A6
:1024700004000530BEF8061005310EF12402DEF826
:1024800058309EF856C0DEF80040EE46CEF80440C4
:10249000CEF800C080B289B2FEF736FF0DF14600DB
:1024A00007903221FDF781FF0220069003F020FA09
:1024B0000698B7EEC00A8DED040B1E99039103F048
:1024C000C3F903999DED040B034607986A465360D0
:1024D000116053EC102B4EF2E771C0F6010116F0BB
:1024E0003DF81099069891ED000AB8EE400A10F0F8
:1024F00073FE079940F26C70C2F200400068C26D32
:102500009047FFE7FFE72EB010BD0000000000007D
:1025100010B5AEB01EA910912D902D980C304EF62E
:102520003301C0F60101FDF757FF60B1FFE72D98B9
:102530000C304EF65C01C0F60101FDF74DFF00289E
:1025400040F0D180FFE72D990A6848F20000CFF6ED
:1025500000700F90824204BF43F23330CFF63370E5
:102560000860DDF8B4C0BCF80400BCF80610BCF884
:102570000820BCF80A30DCF800C0EE46CEF800C0F7
:10258000FFF712F94FF03200FEF796FD0F982D99E4
:102590000A68824204BF43F23330CFF633700860DA
:1025A000DDF8B4C0BCF80400BCF80610BCF8082084
:1025B000BCF80A30DCF800C0EE46CEF800C0FFF7E9
:1025C000F3F84FF0010003F093F9109880ED0E0A34
:1025D0002D9800F10C004EF63301C0F60101FDF715
:1025E000FBFED0B9FFE7109890ED0E0A9FEDB31AED
:1025F00030EE010A80ED0E0A90ED0E0A9FEDB01A42
:10260000B4EE410AF1EE10FA06DDFFE743F2333093
:10261000C4F253002C90FFE717E0109890ED0E0ADB
:102620009FEDA61A30EE410A80ED0E0A90ED0E0ADB
:10263000B4EE410AF1EE10FA06DAFFE74CF6CD40AF
:10264000C3F6CC502C90FFE7FFE7DDF8B4E0BEF80E
:1026500004000530BEF8061005310EF12402DEF844
:1026600058309EF856C0DEF80040EE46CEF80440E2
:10267000CEF800C080B289B2FEF746FE0DF17E00B2
:102680000E903221FDF791FE109890ED0E0AB7EEF4
:10269000C00A8DED0A0B01200D9003F001F90146EF
:1026A0000D98099103F0D0F809999DED0A0B0346A6
:1026B0000E986A465360116053EC102B4EF2C471B1
:1026C000C0F6010115F04AFF10990D9891ED0E0A20
:1026D00010F0CEFD0E9940F26470C2F20040006826
:1026E000C26D9047E7E02D980C304EF68F01C0F692
:1026F0000101FDF771FE60B1FFE72D980C304EF639
:10270000B801C0F60101FDF767FE002840F0D28055
:10271000FFE72D990A680020CFF6FF70089012F5A8
:10272000803F04BF43F23330CFF633700860DDF8EA
:10273000B4C0BCF80400BCF80610BCF80820BCF813
:102740000A30DCF800C0EE46CEF800C0FFF72CF8E7
:102750004FF03200FEF7B0FC08982D990A6812F588
:10276000803F04BF43F23330CFF633700860DDF8AA
:10277000B4C0BCF80400BCF80610BCF80820BCF8D3
:102780000A30DCF800C0EE46CEF800C0FFF70CF8C7
:102790004FF0020003F0ACF8109880ED000A2D987D
:1027A00000F10C004EF68F01C0F60101FDF714FE9A
:1027B000D0B9FFE7109890ED000A9FED401A30EE77
:1027C000010A80ED000A90ED000A9FED3D1AB4EE7B
:1027D000410AF1EE10FA06DDFFE743F23330C4F2AE
:1027E00053001E90FFE717E0109890ED000A9FED50
:1027F000331A30EE410A80ED000A90ED000AB4EE83
:10280000410AF1EE10FA06DAFFE74CF6CD40C3F6C6
:10281000CC501E90FFE7FFE7DDF8B4E0BEF80400FF
:102820000530BEF8061005310EF12402DEF85830EE
:102830009EF856C0DEF80040EE46CEF80440CEF8D2
:1028400000C080B289B2FEF75FFD0DF1460007902F
:102850003221FDF7AAFD109890ED000AB7EEC00AEC
:102860008DED040B0220069003F01AF8014606983D
:10287000039102F0E9FF03999DED040B03460798CD
:102880006A465360116053EC102B4EF2E771C0F6AC
:10289000010115F063FE1099069891ED000A10F001
:1028A000E7FC079940F26C70C2F200400068C26D0C
:1028B0009047FFE7FFE72EB010BD00BFCDCCCC3D69
:1028C000333353400000000010B586B005900598E2
:1028D0000C304EF62C01C0F60101FDF77DFD0028FD
:1028E00040F0AA80FFE705990A6848F20000CFF699
:1028F00000700390824204BF43F23330CFF633704E
:102900000860DDF814C0BCF80400BCF80610BCF880
:102910000820BCF80A30DCF800C0EE46CEF800C053
:10292000FEF742FF4FF0C800FEF7C6FB039805997B
:102930000A68824204BF43F23330CFF63370086036
:10294000DDF814C0BCF80400BCF80610BCF8082080
:10295000BCF80A30DCF800C0EE46CEF800C0FEF746
:1029600023FF4FF000008DF81300059890F85C00ED
:1029700078B9FFE70599012081F85C008DF8130014
:10298000059824304EF6EC01C0F60101FDF732FD4A
:102990002BE0059890F85C0001280FD1FFE705991E
:1029A000022081F85C008DF81300059824304EF663
:1029B000E401C0F60101FDF71DFD15E0059890F852
:1029C0005C0002280FD1FFE70599002081F85C0028
:1029D0008DF81300059824304EF6E801C0F6010189
:1029E000FDF708FDFFE7FFE7FFE7DDF814E0BEF8BD
:1029F00004000530BEF8061005310EF12402DEF8A1
:102A000058309EF856C0DEF80040EE46CEF804403E
:102A1000CEF800C080B289B2FEF776FC9DF81310A4
:102A200040F21010C2F2004010F0A2FD9DF8131009
:102A3000012010F071FCB6E005980C304EF68801CC
:102A4000C0F60101FDF7C8FC002840F0AB80FFE7AD
:102A500005990A680020CFF6FF70029012F5803FBA
:102A600004BF43F23330CFF633700860DDF814C092
:102A7000BCF80400BCF80610BCF80820BCF80A300A
:102A8000DCF800C0EE46CEF800C0FEF78DFE4FF039
:102A9000C800FEF711FB029805990A6812F5803FFD
:102AA00004BF43F23330CFF633700860DDF814C052
:102AB000BCF80400BCF80610BCF80820BCF80A30CA
:102AC000DCF800C0EE46CEF800C0FEF76DFE4FF019
:102AD00000008DF81200059890F85C0078B9FFE7C7
:102AE0000599012081F85C008DF8120005982430CA
:102AF0004EF6EC01C0F60101FDF77CFC2BE00598D9
:102B000090F85C0001280FD1FFE70599022081F8B9
:102B10005C008DF81200059824304EF6E401C0F6F2
:102B20000101FDF767FC15E0059890F85C000228AC
:102B30000FD1FFE70599002081F85C008DF81200A5
:102B4000059824304EF6E801C0F60101FDF752FC6D
:102B5000FFE7FFE7FFE7DDF814E0BEF8040005300B
:102B6000BEF8061005310EF12402DEF858309EF84A
:102B700056C0DEF80040EE46CEF80440CEF800C065
:102B800080B289B2FEF7C0FB9DF8121040F23C10F3
:102B9000C2F2004010F0ECFC9DF81210022010F080
:102BA000BBFBFFE7FFE706B010BD00000000000020
:102BB00080B590B08DF83E009DF83E00012809D008
:102BC000FFE79DF83E00022804D0FFE700208DF8C3
:102BD0003F008AE19DF83E0010F092FC8DF83D0028
:102BE00000200E909DF83D1044F20000C2F200401B
:102BF000099000EB01304FF480610A910EAA14F0A5
:102C0000B3F809980A9A9DF83D1000EB01319DED4B
:102C10000E0AB1EE400A084614F0F2F840F23C7099
:102C2000C2F20040006898B1FFE79DF83D1044F201
:102C30000000C2F2004000EB013240F23C70C2F2F0
:102C4000004001684FF48063104614F0B5F8FFE7C8
:102C50009DF83D1044F20000C2F20040059000EBE8
:102C6000013240F2F000C2F200400023114614F09D
:102C7000EBFF05989DF83D2000EB023046F2000185
:102C8000C2F20041079101EBC2214FF4007206929B
:102C900013F0EEFF069907989DF83D2000EBC22047
:102CA00002EB820340F29402C2F20042089202EB6D
:102CB000830303F1080214F01FF8079908989DF8A0
:102CC0003D2002EB820200EB820350F82220013209
:102CD0005A609DF83D2001EBC22102EB820200EB1D
:102CE0008202536851F82310D1609DF83D1001EB2A
:102CF000810100EB810090ED021A90ED030A31EEA4
:102D0000400A80EE010A8DED0D0A9DED0D0A9FED42
:102D1000791AB4EE410AF1EE10FA5FDAFFE79DF896
:102D20003E0002F0D1FE00EE100AB8EE400A8DED32
:102D30000C0A9DF83D1001EB810240F29400C2F2B2
:102D4000004000EB820292ED000AB8EE400AB6EEB7
:102D5000001A30EE010A9DED0C1A20EE010A9FEDDB
:102D6000661A80EE010A01EB410140F2D403C2F27F
:102D7000004303EB810181ED000A9DF83D1001EB5A
:102D8000810100EB8102002111619DF83E109DF848
:102D90003D2002EB420C03EB8C0393ED000AB7EEEF
:102DA000C00A9DED0D1A9FED552A21EE021AB7EECD
:102DB000C11A02EB820200EB82000269684682605F
:102DC00080ED001B53EC102B4EF29250C0F6010028
:102DD00015F0B4FB01208DF83F0086E09DF83D0022
:102DE00000EB800140F29400C2F20040049000EB3E
:102DF00081010869013008619DF83E0002F0C8FDBC
:102E0000B7EEC00A53EC102B4EF2F650C0F601009C
:102E100015F094FB04989DF83D1001EB810100EB47
:102E200081000069B0F5027F5BD3FFE79DF83E00AB
:102E300002F04AFE00EE100AB8EE400A8DED0B0AD1
:102E40009DF83D1001EB810240F29400C2F2004077
:102E500000EB820292ED000AB8EE400A9DED0B1ADB
:102E600020EE010A9FED241A80EE010A01EB4101D8
:102E700040F2D403C2F2004303EB810181ED000A6A
:102E80009DF83D1001EB810100EB810200211161F1
:102E90009DF83E109DF83D2002EB420C03EB8C03A5
:102EA00093ED000AB7EEC00A9DED0D1A9FED132AAF
:102EB00021EE021AB7EEC11A02EB820200EB820089
:102EC00002696846826080ED001B53EC102B4EF2C5
:102ED0009250C0F6010015F031FB01208DF83F0043
:102EE00003E000208DF83F00FFE79DF83F0010B0A1
:102EF00080BD00BF0AD7233D000080440000C842C7
:102F000080B58EB08DF837009DF83700012806D0C7
:102F1000FFE79DF83700022801D0FFE797E19DF811
:102F2000370010F009FB8DF8360000200C909DF85A
:102F3000360041F60002C3F20002D82110FB012046
:102F400090F8C80000284ED1FFE79DF8360041F602
:102F50000002C3F20002D82110FB012090ED340AD8
:102F60009FEDBC1A20EE010A9FEDBC1A80EE010A0B
:102F70008DED0C0A00200B90FFE70B98632831D8E9
:102F8000FFE79DED0C0A8DED030A9DED0B0AB8EEEF
:102F9000C00A9FEDB31A20EE010A9FEDB21A80EE2F
:102FA000010A15F003FBB0EE401A9DED030AB7EEDF
:102FB000002A31EE021A20EE010ABCEEC00A10EE21
:102FC000100A9DF8361041F60003C3F20003D82220
:102FD00011FB02310B9A21F81200FFE70B98013028
:102FE0000B90CAE726E19DF8360041F60002C3F2D5
:102FF0000002D82110FB012090F8C800012850D110
:10300000FFE79DF8360041F60002C3F20002D82126
:1030100010FB012090ED340A9FED8E1A20EE010A7C
:103020009FED8D1A80EE010A8DED0C0A9DF8360099
:1030300010FB012090F8C9006421484345F629415E
:10304000C0F28F21A0FB0110ADF82A0000200990EA
:10305000FFE70998632823D8FFE70998BDF82A10ED
:10306000884208DAFFE79DED0C0ABCEEC00A10EEBC
:10307000100A029002E000200290FFE702989DF8FB
:10308000361041F60003C3F20003D82211FB0231CF
:10309000099A21F81200FFE7099801300990D8E752
:1030A000C7E09DF8360041F60002C3F20002D821C5
:1030B00010FB012090F8C800022840F0B980FFE71B
:1030C0009DF8360041F60002C3F20002D82110FB41
:1030D000012090ED340A9FED5F1A20EE010A9FED6A
:1030E0005E1A80EE010A8DED0C0A9DF8360010FB89
:1030F000012090F8C900642803DBFFE763200190FA
:103100001FE09DF8360041F60002C3F20002D8210C
:1031100010FB012090F8C90018B9FFE701200090CA
:103120000CE09DF8360041F60002C3F20002D821FF
:1031300010FB012090F8C9000090FFE70098019073
:10314000FFE701988DF823009DF823006421484390
:1031500045F62941C0F28F21A0FB0110ADF82000F7
:103160009DED0C0ABDF8200001EE100AB8EE411AE0
:1031700080EE010A8DED070A9DED0C0ABDF82000D6
:10318000C0F1640001EE100AB8EE411A80EE010AA7
:103190008DED060A00200590FFE70598BDF8201088
:1031A00088421DDAFFE79DED070A059A01EE102A15
:1031B000B8EEC11A20EE010ABCEEC00A10EE100AE9
:1031C0009DF8361041F6000CC3F2000CD82311FB19
:1031D00003C121F81200FFE7059801300590DCE7F4
:1031E000BDF820000490FFE7049863281FD8FFE78C
:1031F0009DED060A049AC2F1640001EE100AB8EED1
:10320000411A20EE010ABCEEC00A10EE100A9DF829
:10321000361041F6000CC3F2000CD82311FB03C199
:1032200021F81200FFE7049801300490DCE7FFE783
:10323000FFE7FFE79DF8360041F60002C3F2000207
:10324000D82110FB0121002081F8D400FFE70EB047
:1032500080BD00BF00F07F45333353403333D3404C
:10326000DB0FC9400000C84280B586B08DF813005E
:103270009DF81300012808D0FFE79DF813000228ED
:1032800003D0FFE70020059047E09DF8130010F001
:1032900037F98DF81200002003909DF8121001EB11
:1032A000410240F2D401C2F2004101EB8201097AED
:1032B00049088DF80B100190FFE7019840F2FE716C
:1032C000884227D8FFE79DF8121040F60000C3F2AD
:1032D000000000EBC1200199405C9DF80B10884272
:1032E00013DCFFE79DF8121040F60000C3F2000067
:1032F00000EBC1210198084440789DF80B108842EA
:1033000003DBFFE70198039004E0FFE70198013039
:103310000190D2E703980590FFE7059806B080BDBD
:1033200080B584B08DF80E009DF80E00012809D0FC
:10333000FFE79DF80E00022804D0FFE700208DF87B
:103340000F005CE09DF80E0010F0DAF88DF80D002B
:1033500000208DF80C00FF218DF80B108DF80A006D
:103360000190FFE701990020B0EBD12F29D1FFE7B1
:103370009DF80D1040F60000C3F2000000EBC120E4
:103380000199405C8DF80A009DF80A009DF80C1028
:10339000884205DDFFE79DF80A008DF80C00FFE785
:1033A0009DF80A009DF80B10884205DAFFE79DF8AA
:1033B0000A008DF80B00FFE7FFE70198013001904C
:1033C000D0E79DF80C009DF80B10411A9DF80D00F8
:1033D00000EB400240F2D400C2F2004000EB820257
:1033E00011729DF80D1001EB410100EB8100017A93
:1033F00000200529C8BF01208DF80F00FFE79DF8C8
:103400000F0004B080BD000080B588B08DF81F00AB
:10341000069105929DF81F00012806D0FFE79DF850
:103420001F00022801D0FFE705E19DF81F0010F002
:1034300067F88DF813009DF8130000EB400140F28F
:10344000BC00C2F2004000EB8100807A012873D1F9
:10345000FFE79DF8130000EB400140F2BC00C2F210
:10346000004050F821100020B0EB912F64D1FFE70D
:103470009DF8130000EB400140F2BC00C2F2004096
:1034800050F82100039000200290FFE70298059970
:10349000884225D2FFE79DF8131040F20000C3F2E6
:1034A000000000EB8120069A029B1A446FF39F22D2
:1034B000805C00EE100AB8EE400A44F20000C2F24E
:1034C000004000EB0130039900EB810080ED000A21
:1034D000039801300390FFE7029801300290D5E78E
:1034E00003989DF8131001EB410240F2BC01C2F2B7
:1034F000004141F822000398B0F5806F1BD3FFE72D
:103500009DF8130000EB400140F2BC00C2F2004005
:1035100000EB8102002191729DF8132002EB420220
:1035200040F822109DF8131001EB410100EB8101DE
:1035300001200872FFE77EE09DF8130000EB4001D8
:1035400040F2BC00C2F2004000EB8100807A022809
:1035500070D1FFE79DF8130000EB400140F2BC0082
:10356000C2F2004000EB810041680020B0EBD12F97
:1035700060D1FFE79DF8130000EB400140F2BC0072
:10358000C2F2004000EB81004068019000200090F2
:10359000FFE70098059988421ED2FFE79DF81320A7
:1035A00040F20000C3F2000000EB82200699009B6D
:1035B00019446FF39F21405C40F60001C3F2000103
:1035C00001EBC221019A8854019801300190FFE774
:1035D000009801300090DCE701989DF8131001EB92
:1035E000410240F2BC01C2F2004101EB820148609D
:1035F0000198B0F5006F1CD3FFE79DF8130000EBB6
:10360000400140F2BC00C2F2004000EB8102002108
:1036100091729DF8132002EB420200EB820251608E
:103620009DF8131001EB410100EB8101012048726C
:10363000FFE7FFE7FFE708B080BD000000000000E3
:1036400080B582B08DF807008DF806109DF8070050
:10365000012805D0FFE79DF8070002282BD1FFE7DE
:103660009DF807000FF04CFF8DF805009DF806004F
:1036700068B9FFE79DF8050000EB400140F2BC008F
:10368000C2F2004000EB81010020087212E09DF8B8
:10369000060001280DD1FFE79DF8050000EB400171
:1036A00040F2BC00C2F2004000EB810100204872F1
:1036B000FFE7FFE7FFE702B080BD00000000000069
:1036C00080B586B08DF817008DF816109DF817009C
:1036D000012806D0FFE79DF81700022801D0FFE778
:1036E0006CE09DF817000FF00BFF8DF815009DF8AA
:1036F000172040F26811C2F2004140F2CC10C2F231
:103700000040012A08BF084604909DF816000028D2
:1037100040D0FFE79DF8151040F20000C3F2000012
:10372000009000EB81204FF480610191FCF73DFE99
:103730009DF8150000EB400140F2BC00C2F20040D1
:1037400000EB81010120029088720498002140F270
:10375000FF7202F009FA0099019A04989DF8153059
:1037600001EB832103F010FB02999DF8170000F094
:10377000CFF89DF81700039002F00AF90399B7EE0D
:10378000C00A53EC102B4EF2CD50C0F6010014F0DD
:10379000D5FE13E09DF8150000EB400140F2BC009F
:1037A000C2F2004000EB8100002181729DF81700F9
:1037B00000F0AEF8049803F0D7FBFFE706B080BD39
:1037C00080B58CB08DF82F008DF82E109DF82F004D
:1037D000012806D0FFE79DF82F00022801D0FFE75F
:1037E00092E09DF82F000FF0A7FE8DF82D009DF8B8
:1037F0002E00002863D0FFE79DF82F00FFF780FB25
:103800009DF82F00012829D1FFE79DF82D0041F6F2
:103810000002C3F200020792D821089110FB012296
:1038200068460021016040F23020C2F2004064236B
:10383000099303F049FE079B089A09999DF82D000A
:1038400010FB0230D0F8CC00414301200A900FF069
:103850002BFE0A99084600F05BF82FE09DF82F0038
:1038600002282AD1FFE79DF82D0041F60002C3F29D
:1038700000020392D821049110FB01226946002026
:10388000086040F23020C2F200401021642305930A
:1038900003F01AFE039B049A05999DF82D0010FB76
:1038A0000230D0F8CC004143022006900FF0FCFD1E
:1038B0000698012100F02CF8FFE7FFE724E09DF8CF
:1038C0002F0001280DD1FFE701200021029100F017
:1038D0001FF8029940F23020C2F2004003F0C8FE07
:1038E00011E09DF82F0002280CD1FFE702200021F3
:1038F00000F00EF840F23020C2F20040102103F038
:10390000B7FEFFE7FFE7FFE70CB080BD0000000057
:1039100080B582B08DF807008DF806109DF807007D
:10392000012822D1FFE79DF8060040F28401C2F28F
:10393000004108719DF8060058B1FFE70020012101
:10394000FEF75EF840F20860C2F200400BF090FF14
:103950000AE000210846FEF753F840F20860C2F280
:1039600000400CF001F8FFE727E09DF8070002286F
:1039700022D1FFE79DF8060040F28C01C2F200411F
:1039800008719DF8060058B1FFE702200121FEF7FB
:1039900037F840F25460C2F200400BF069FF0AE0D1
:1039A00002200021FEF72CF840F25460C2F20040E1
:1039B0000BF0DAFFFFE7FFE7FFE702B080BD000092
:1039C000B0B584B094468E4604460C980B990A9A7A
:1039D000099A089A0394ADF80AE0ADF808C0ADF86A
:1039E0000630ADF804208DF803108DF8020003981E
:1039F00008B9FFE720E0BDF80A0003998880BDF808
:103A000008000399C880BDF8060003990881BDF835
:103A10000400039948810998039908600A9803995A
:103A200048629DF80300039981F828009DF8020080
:103A3000039981F82900FFE704B0B0BD0000000041
:103A400080B582B001900198806B0090009803F0DF
:103A500067FC00990120087102B080BD00000000E1
:103A600080B582B001900198806B0090009803F0BF
:103A7000EBFA00990120087102B080BD000000003F
:103A800080B582B001900198806B00900099086920
:103A900040F004000861009803F04AFC00990120FE
:103AA000087102B080BD000080B582B0019001981D
:103AB000806B00900099086940F00400086100984C
:103AC00003F0CAFA00990120087102B080BD00001D
:103AD00080B582B001900198806B0090009803F04F
:103AE00023FC02B080BD000080B582B00190019837
:103AF000806B0090009803F0ABFA02B080BD00002C
:103B000080B584B041F60000C3F200004FF4D871D4
:103B1000FCF74BFC00200390FFE7039801281FD817
:103B2000FFE7039841F60002C3F20002D82100FB30
:103B30000123322083F8C900039800FB01234FF4CE
:103B40007A70C3F8CC00039800FB01210020C4F276
:103B50004000C1F8D000FFE7039801300390DCE794
:103B6000012000210191FFF7D3FE019940F230209E
:103B7000C2F20040029003F07BFD01990220FFF7A2
:103B8000C7FE0298102103F073FD04B080BD000051
:103B9000B0B58CB040F2EC01C2F2004101200A90B5
:103BA00008700DF021F84FF07F400690FDF704FB00
:103BB000069A0A9869460A61C8604EF24860C0F6E3
:103BC000010088604FF0FF344C6028200B900860A3
:103BD0004EF25560C0F601004FF48C711422DC23C4
:103BE0000DF076F80A9A01460B9840F27073C2F213
:103BF0000043196069460C61CA604EF22762C0F644
:103C000001028A6048F20002CFF6007207924A6011
:103C100008604EF23B60C0F60100B421C822089251
:103C2000A02309930CF0E4FFDDF81CC0089A099B5F
:103C3000DDF828E005460B9840F26001C2F2004131
:103C40000D600D6842F6F111C0F601016966694622
:103C50000C61C1F80CE04EF2316EC0F6010EC1F8F5
:103C600008E0C1F804C008604EF25F60C0F60100D1
:103C70004FF4F0710CF0BCFF014640F25C00C2F260
:103C800000400160016842F65910C0F60100486624
:103C90000DF002F90CB0B0BD80B540F2AC20C2F21C
:103CA000004004F06DFC80BD80B540F22430C2F2CB
:103CB000004004F065FC80BD80B540F29C30C2F24B
:103CC000004004F05DFC80BD80B540F21440C2F2BB
:103CD000004004F055FC80BD89B0DDF824C0089098
:103CE00007910692059308980068406C00F04040E8
:103CF0000999059A41EA024108430899096848640C
:103D0000069808990968C86308984068B0F5403F6C
:103D10007CD1FFE79DF81F00000603909DF81E0070
:103D2000000402909DF81D00000201909DF81C0007
:103D300000900898806848B9FFE701980299084305
:103D4000039908430099084304905AE00898806852
:103D5000012807D1FFE70198029908430099084319
:103D600004904DE008988068022812D1FFE702987D
:103D7000C00C02900198800A01900098C008009041
:103D800001984001029940EAC1200099084304903B
:103D900035E008988068032818D1FFE70398C00F22
:103DA00003900298C00C02900198C00A01900098FC
:103DB000C008009001984001029940EA81200399CF
:103DC00040EAC13000990843049017E00398000FBF
:103DD00003900298000D02900198000B019000984A
:103DE0000009009001980001029940EA012003991E
:103DF00040EA0130009908430490FFE7FFE7FFE73E
:103E0000FFE7049808990968886310E008984068FB
:103E1000B0F5802F05D1FFE7079808990968486138
:103E200004E0079808990968C860FFE7FFE709B050
:103E3000704700000000000083B002900298016803
:103E400001201022C4F202029142009000F0A380EF
:103E5000FFE70298016801202822C4F20202914281
:103E6000009000F09880FFE702980168012040224E
:103E7000C4F202029142009000F08D80FFE70298A8
:103E8000016801205822C4F202029142009000F021
:103E90008280FFE70298016801207022C4F20202CA
:103EA0009142009077D0FFE70298016801208822B4
:103EB000C4F20202914200906DD0FFE702980168BF
:103EC0000120A022C4F202029142009063D0FFE7D9
:103ED000029801680120B822C4F2020291420090C7
:103EE00059D0FFE702980168012040F21042C4F265
:103EF0000202914200904ED0FFE702980168012033
:103F000040F22842C4F202029142009043D0FFE7FF
:103F100002980168012040F24042C4F2020291423C
:103F2000009038D0FFE702980168012040F2584223
:103F3000C4F20202914200902DD0FFE7029801687E
:103F4000012040F27042C4F202029142009022D05D
:103F5000FFE702980168012040F28842C4F20202A1
:103F60009142009017D0FFE702980168012040F2CB
:103F7000A042C4F20202914200900CD0FFE70298E6
:103F800000684FF64831CBF6FD710844B0FA80F076
:103F900040090090FFE70098C00740B3FFE7029890
:103FA000007810384AF6AB21CAF6AA21A0FB01100E
:103FB00000090190019800F0070149F2D010C0F605
:103FC0000100405C0299C8650198042807D3FFE707
:103FD00002990868042262F30900886506E00299E4
:103FE000086840F2FF3290438865FFE705E00299D8
:103FF000086820F0FF008865FFE70298806D03B035
:10400000704700000000000084B00390039800682F
:10401000019003980168012045F20842C5F60202AA
:10402000914200904ED0FFE703980168012045F2CD
:104030001C42C5F602029142009043D0FFE703986C
:104040000168012045F23042C5F60202914200901B
:1040500038D0FFE703980168012045F24442C5F6D5
:104060000202914200902DD0FFE7039801680120E1
:1040700045F25842C5F602029142009022D0FFE775
:1040800003980168012045F26C42C5F60202914294
:10409000009017D0FFE703980168012045F28042A5
:1040A000C5F60202914200900CD0FFE70398006829
:1040B0004AF66C31CAF2FD710844B0FA80F040094A
:1040C0000090FFE70098C00710B3FFE7039800785F
:1040D00008384CF6CD41CCF6CC41A0FB01100009CC
:1040E0000290029945F60000C5F6020000EB81003F
:1040F00003990866039945F68000C5F602004866F4
:10410000029800F01F01012088400399886635E07D
:104110000398007810384AF6AB21CAF6AA21A0FB12
:10412000011000090290019840F2B841C4F2020166
:1041300088420CD8FFE7019840F21041C4F2020116
:10414000884204D3FFE7029808300290FFE7029903
:1041500040F60000C4F2020000EB810003990866FB
:10416000039940F68000C4F202004866029800F00D
:104170001F010120884003998866FFE704B070475B
:1041800083B002900298007901900198002800F015
:104190008A80FFE70198082800F28580FFE70298EF
:1041A0000168012045F20842C5F6020291420090E2
:1041B0004ED0FFE702980168012045F21C42C5F687
:1041C00002029142009043D0FFE70298016801206B
:1041D00045F23042C5F602029142009038D0FFE726
:1041E00002980168012045F24442C5F6020291425C
:1041F00000902DD0FFE702980168012045F2584257
:10420000C5F602029142009022D0FFE702980168B1
:10421000012045F26C42C5F602029142009017D08F
:10422000FFE702980168012045F28042C5F60202CC
:10423000914200900CD0FFE7029800684AF66C317A
:10424000CAF2FD710844B0FA80F040090090FFE71F
:104250000098C00780B1FFE7019945F6FC00C5F65C
:10426000020000EB81000299C866029945F64010F1
:10427000C5F6020008670FE0019940F6FC00C4F2A1
:10428000020000EB81000299C866029940F64010D6
:10429000C4F202000867FFE70198411E0120884030
:1042A00002994867FFE703B0704700000000000074
:1042B00085B0049000208DF80F000498806918BB29
:1042C000FFE70498806A029003281BD80299DFE870
:1042D00001F0020D0218049890F82F00C00720B1D9
:1042E000FFE701208DF80F00FFE70CE00498C06A9B
:1042F000B0F1C07F04D1FFE701208DF80F00FFE788
:1043000001E000E0FFE747E004988069B0F5005F56
:1043100026D1FFE70498806A019003281ED80199EE
:10432000DFE801F00206021101208DF80F0016E00F
:10433000049890F82F00C00720B1FFE701208DF806
:104340000F00FFE70BE00498C06AB0F1C07F04D112
:10435000FFE701208DF80F00FFE700E0FFE71AE01C
:104360000498806A0090032804D3FFE7009803288C
:1043700004D00EE001208DF80F000BE0049890F8B7
:104380002F00C00720B1FFE701208DF80F00FFE7E5
:1043900000E0FFE7FFE7FFE79DF80F0005B070477B
:1043A00089B008900791069205930898806D049053
:1043B0000898806D03900898016801201022C4F2CB
:1043C00002029142029000F00381FFE70898016821
:1043D00001202822C4F202029142029000F0F880EB
:1043E000FFE70898016801204022C4F202029142CE
:1043F000029000F0ED80FFE7089801680120582244
:10440000C4F202029142029000F0E280FFE70898B5
:10441000016801207022C4F202029142029000F071
:10442000D780FFE70898016801208822C4F20202C1
:104430009142029000F0CC80FFE7089801680120CB
:10444000A022C4F202029142029000F0C180FFE774
:10445000089801680120B822C4F202029142029039
:1044600000F0B680FFE708980168012040F2104292
:10447000C4F202029142029000F0AA80FFE708987D
:104480000168012040F22842C4F2020291420290E7
:1044900000F09E80FFE708980168012040F240424A
:1044A000C4F202029142029000F09280FFE7089865
:1044B0000168012040F25842C4F202029142029087
:1044C00000F08680FFE708980168012040F2704202
:1044D000C4F20202914202907AD0FFE70898016884
:1044E000012040F28842C4F20202914202906FD051
:1044F000FFE708980168012040F2A042C4F20202DE
:104500009142029064D0FFE708980168012040F2D0
:10451000B842C4F202029142029059D0FFE70898D3
:104520000168012045F20842C5F60202914202905C
:104530004ED0FFE708980168012045F21C42C5F6FD
:1045400002029142029043D0FFE7089801680120DF
:1045500045F23042C5F602029142029038D0FFE7A0
:1045600008980168012045F24442C5F602029142D2
:1045700002902DD0FFE708980168012045F25842CB
:10458000C5F602029142029022D0FFE70898016826
:10459000012045F26C42C5F602029142029017D00A
:1045A000FFE708980168012045F28042C5F6020243
:1045B000914202900CD0FFE7089800684AF66C31EF
:1045C000CAF2FD710844B0FA80F040090290FFE79A
:1045D0000298C00770B1FFE70898416E806E48608E
:1045E0000898C06E28B1FFE70898016F406F4860D7
:1045F000FFE7FFE70898016801201022C4F20202D9
:104600009142019000F0A380FFE708980168012023
:104610002822C4F202029142019000F09880FFE744
:104620000898016801204022C4F2020291420190E0
:1046300000F08D80FFE70898016801205822C4F23D
:1046400002029142019000F08280FFE70898016821
:1046500001207022C4F202029142019077D0FFE75C
:104660000898016801208822C4F202029142019058
:104670006DD0FFE7089801680120A022C4F2020271
:104680009142019063D0FFE7089801680120B822A9
:10469000C4F202029142019059D0FFE708980168E4
:1046A000012040F21042C4F20202914201904ED029
:1046B000FFE708980168012040F22842C4F2020294
:1046C0009142019043D0FFE708980168012040F231
:1046D0004042C4F202029142019038D0FFE70898AC
:1046E0000168012040F25842C4F202029142019056
:1046F0002DD0FFE708980168012040F27042C4F213
:1047000002029142019022D0FFE70898016801203F
:1047100040F28842C4F202029142019017D0FFE7B2
:1047200008980168012040F2A042C4F202029142BE
:1047300001900CD0FFE7089800684FF64831CBF69F
:10474000FD710844B0FA80F040090190FFE701983C
:10475000C00750B3FFE70898C06D00F01F013F206D
:1047600088400499886008980168086820F48020CF
:10477000086005980899096848600898806840288A
:1047800009D1FFE706980899096888600798089991
:104790000968C86008E00798089909688860069861
:1047A00008990968C860FFE782E00898016801205D
:1047B00045F20842C5F60202914200904ED0FFE752
:1047C00008980168012045F21C42C5F60202914298
:1047D000009043D0FFE708980168012045F230427D
:1047E000C5F602029142009038D0FFE708980168B0
:1047F000012045F24442C5F60202914200902DD0BC
:10480000FFE708980168012045F25842C5F6020208
:104810009142009022D0FFE708980168012045F2FC
:104820006C42C5F602029142009017D0FFE708984B
:104830000168012045F28042C5F6020291420090D3
:104840000CD0FFE7089800684AF66C31CAF2FD7197
:104850000844B0FA80F040090090FFE70098C007D4
:1048600020B3FFE70898C06D00F01F0101208840C9
:104870000399486005980899096848600898806815
:10488000402809D1FFE706980899096888600798C9
:1048900008990968C86008E007980899096888605D
:1048A000069808990968C860FFE700E0FFE7FFE79E
:1048B00009B07047000000007047000000000000D1
:1048C00010B590B00DF1180CCDF80CC0DDF84CC04F
:1048D000DDF848C00F900E910D920C930F9848B1DF
:1048E000FFE70E9830B1FFE7129818B1FFE70C9878
:1048F00008B9FFE7C6E00F990889498948430B903A
:1049000000200A90FFE70A980B9988420BD2FFE734
:104910000F9908680A9A01EB82010863FFE70A9879
:1049200001300A90EFE703989DED120AB8EE400AB5
:104930000F99098901EE101AB8EEC11A80EE010A2A
:1049400080ED030A90ED030AB7EE001AB4EE410AB7
:10495000F1EE10FA04DAFFE74FF07E500990FFE71E
:104960000020ADF82200ADF8200001218DF81F10C5
:10497000ADF81C00FFE7BDF81C000F9909898842BB
:1049800080F28080FFE70398BDF81C1000EE101A3B
:10499000B8EEC00A90ED031A20EE010ABCEEC00A80
:1049A00080ED000A06981299884201D3FFE769E07A
:1049B000002005900D98012805D1FFE70E98069973
:1049C000405C059015E00D98022806D1FFE70E988F
:1049D000069930F8110005900AE00D98042806D1D8
:1049E000FFE70E98069950F821000590FFE7FFE7D2
:1049F000FFE705980C99884203D9FFE70C980590CA
:104A0000FFE70C9A0598111A0F9840890138C317CF
:104A1000A1FB000C01FB03C10023FBF75DFCADF81B
:104A200012009DF81F0060B1FFE70F98BDF81C1041
:104A3000BDF81220139BFDF70BFA00208DF81F0024
:104A400011E00F98BDF82210BDF82020BDF81C30F1
:104A5000BDF812C0139CEE46CEF80440CEF800C05C
:104A6000FDF74AF9FFE7BDF81C00ADF82200BDF8DC
:104A70001200ADF82000FFE7BDF81C000130ADF8D2
:104A80001C0078E710B010BD80B582B0019001988D
:104A900008B9FFE71DE0DDF804C0BCF80400BCF86D
:104AA0000610BCF80820BCF80A300CF1300CEE46B9
:104AB000CEF800C0FCF7B4FB0198303047F28031EB
:104AC000C0F20C01FBF771FC4FF47A70FCF7F4FABA
:104AD000FFE702B080BD000080B586B0844608982C
:104AE000ADF816C0ADF81410ADF8122003938DF890
:104AF0000B009DF80B004008ADF80800BDF8080059
:104B00004042ADF80600FFE7BDF90600BDF9081008
:104B1000884218DCFFE7BDF81600BDF81210BDF89A
:104B200006201144BDF81420039BEC46CCF800305D
:104B30008BB21946FCF7D8FCFFE7BDF80600013040
:104B4000ADF80600E0E706B080BD00000000000000
:104B500080B586B084460898ADF816C0ADF814103C
:104B6000ADF8122003938DF80B009DF80B00400860
:104B7000ADF80800BDF808004042ADF80600FFE7B8
:104B8000BDF90600BDF90810884218DCFFE7BDF842
:104B90001600BDF806100844BDF81410BDF8123018
:104BA000039AEC46CCF8002082B21046FCF79CFC3D
:104BB000FFE7BDF806000130ADF80600E0E706B0FB
:104BC00080BD00000000000081B0EFF3108072B6DD
:104BD0000090FFE7FEE7000044F60C01C5F6020175
:104BE000086840F002000860FFE744F60400C5F6DC
:104BF000020000688004002801D4FFE7F5E7704751
:104C000080B583B0029001910198006800BBFFE776
:104C10000298006847F6FF718843019A0092516834
:104C2000D2F808E0D2F80CC0136941EA0E0141EA5B
:104C30000C0119435369194393691943D369194303
:104C4000136A1943526A114308430299086025E028
:104C50000298006820F4F840019AD169136A526AF8
:104C6000194311430843029908600298406847F6C7
:104C7000FF718843019A5168D2F808E0D2F80CC05D
:104C8000136941EA0E0141EA0C01194353691943C2
:104C900092691143084302994860FFE7002003B07E
:104CA00080BD00000000000082B0019000910198DA
:104CB000406943F6FE718843009940EA410001993A
:104CC0004861002002B0704783B0029001910092C9
:104CD000029800696FF31500019A11685368D2F8C1
:104CE00008C0D26819436FF01F0303EB4C1319433C
:104CF00041EA4221084302990861002003B070474D
:104D000010B583B00290019100920098A8BBFFE714
:104D10000298806800F07040019A11685468D2F8D7
:104D200008E0D2F80CC001396FF00F0303EB041355
:104D300019436FF0FF0303EB0E2319434FF20003F7
:104D4000CFF6FF7303EB0C331943D2F810C00023E6
:104D5000CFF6FF7303EB0C431943D2F814C00023C2
:104D6000CFF6F07303EB0C5319439269013A41EA11
:104D700002610843029988603CE00298806840F62E
:104D8000FF71CFF60F7108400199CA684B694FF265
:104D90000001CFF6FF7101EB02310022CFF6F07275
:104DA00002EB035211430843029988600298C068DD
:104DB00000F07040019A11685468D2F808E0D2F807
:104DC00010C001396FF00F0303EB041319436FF0A8
:104DD000FF0303EB0E2319430023CFF6FF7303EB0E
:104DE0000C4319439269013A41EA0261084302996E
:104DF000C860FFE7002003B010BD00000000000005
:104E000080B5FEF77DFE80BD80B582B08DF80700CD
:104E10009DF8070038B1FFE70120FEF771F8022086
:104E2000FEF76EF8FFE702B080BD00000000000052
:104E30002DE9F0479EB040F20C10C2F2004001266E
:104E400006700BF0D1FE4FF07F40FCF7B5F96946D4
:104E50004FF0FF3717970F61CE604EF2EF60C0F64C
:104E60000100886048F20000CFF6007011904860A1
:104E7000282008604EF2F960C0F601000A22502393
:104E8000189311460BF0B4FE0246119840F26801E7
:104E9000C2F200410A600A6842F61131C0F601010F
:104EA000516669460F61CE604EF2D762C0F60102CC
:104EB0008A6048603220159008604EF2DB60C0F6D0
:104EC000010014211091A02207923C2319930BF0AA
:104ED0008FFE079A199B8446159840F23001C2F262
:104EE0000041C1F800C0D1F800C042F2F971C0F62B
:104EF00001010591CCF8641069460F61CE604EF255
:104F0000E36CC0F6010CC1F808C040F2000CCFF60B
:104F1000FF7CCDF86CC0C1F804C008604EF2E760B9
:104F2000C0F601004FF4C87114910BF061FE079AAE
:104F300018998446059840F23803C2F20043C3F83A
:104F400000C01B6858666B461F610024DC604EF28F
:104F50007C70C0F601009860FF20CFF600700690CC
:104F600058602020089018604EF6F000C0F601004E
:104F7000DC230A930BF0ACFEDDF818C0079A0A9BFD
:104F80008646089840F26471C2F20041C1F800E020
:104F9000D1F800E043F2B101C0F601010991CEF869
:104FA0005C1069460F61CC604EF2A07EC0F6010E27
:104FB000C1F808E0C1F804C008604EF6FD00C0F674
:104FC00001004FF4E67113910BF082FEDDF824C06E
:104FD0000A9A1099199BDDF844E08046159840F232
:104FE0006C75C2F20045C5F800802D68C5F85CC03C
:104FF000EC46CCF81070CCF80C604EF6E805C0F624
:105000000105CCF80850CCF804E0CCF800004EF6CE
:105010002C00C0F601000BF0EBFD0A9A1499199BC5
:10502000DDF86CE08046159840F27C0CC2F2004C32
:10503000CCF80080DCF8008042F6C90CC0F6000C09
:10504000CDF82CC0C8F864C0EC46CCF81070CCF891
:105050000C60CCF80850CCF804E0CCF800004EF618
:105060008800C0F601000BF0C3FD0B9A1099DDF823
:1050700044C0199B0546159840F2800EC2F2004EBE
:10508000CEF80050DEF800E0CEF864206A461761E2
:10509000D6604EF60E08C0F60108C2F80880C2F8C5
:1050A00004C010604EF63300C0F601004FF48C725D
:1050B0000C920BF09DFD0C9A1899199BDDF844E0B9
:1050C0000546159840F2740CC2F2004CCCF8005022
:1050D000DCF8005042F2115CC0F6000CCDF834C090
:1050E000C5F864C0EC46CCF81070CCF80C604EF6F5
:1050F0001F05C0F60105CCF80850CCF804E0CCF848
:1051000000004EF65C00C0F601000BF071FD0C9A39
:10511000DDF834C01499199BDDF86CE082461598CF
:1051200040F26C09C2F20049C9F800A0D9F8009019
:10513000C9F864C0EC46CCF81070CCF80C60CCF820
:105140000880CCF804E0CCF800004EF68F00C0F6E2
:1051500001000BF04DFD0C9ADDF834C01399199B3A
:10516000DDF86CE08146159840F27808C2F20048FC
:10517000C8F80090D8F80080C8F864C0EC46CCF8B5
:105180001070CCF80C60CCF80850CCF804E0CCF8E7
:1051900000004EF6B800C0F601000BF029FD0D9A94
:1051A0001099DDF844C0199B0546159840F2700E21
:1051B000C2F2004ECEF80050DEF800E0CEF86420D7
:1051C0006A461761D6604EF61508C0F60108C2F8A7
:1051D0000880C2F804C010604EF64000C0F601001E
:1051E0004FF4AA720E920BF003FD0E9A1899199BB8
:1051F000DDF844E00546159840F2540CC2F2004C2C
:10520000CCF80050DCF8005042F2C11CC0F6000C93
:10521000CDF83CC0C5F864C0EC46CCF81070CCF8B2
:105220000C604EF62605C0F60105CCF80850CCF807
:1052300004E0CCF800004EF66A00C0F601000BF066
:10524000D7FC0E9ADDF83CC01499199BDDF86CE090
:105250008246159840F24C09C2F20049C9F800A0F4
:10526000D9F80090C9F864C0EC46CCF81070CCF8BE
:105270000C60CCF80880CCF804E0CCF800004EF6C6
:105280009C00C0F601000BF0B3FC0E9ADDF83CC0A8
:105290001399199BDDF86CE08146159840F2580887
:1052A000C2F20048C8F80090D8F80080C8F864C07E
:1052B000EC46CCF81070CCF80C60CCF80850CCF868
:1052C00004E0CCF800004EF6C600C0F601000BF07A
:1052D0008FFCDDF83CC01099149A199BDDF844E06E
:1052E0008046159840F25005C2F20045C5F800808E
:1052F0002D68C5F864C0EC46CCF81070CCF80C6092
:105300004EF60A05C0F601051295CCF80850CCF807
:1053100004E0CCF800004EF64E00C0F601000BF0A1
:1053200067FC149A1899199BDDF844E00546159816
:1053300040F2440CC2F2004CCCF80050DCF80050B3
:1053400041F6A96CC0F6000CCDF858C0C5F864C091
:10535000EC46CCF81070CCF80C604EF61B05C0F68D
:105360000105CCF80850CCF804E0CCF800004EF66B
:105370007900C0F601000BF03BFC149A1699DDF899
:105380006CC0199BDDF848E08146159840F23C0856
:10539000C2F20048C8F80090D8F80080C8F864103D
:1053A00069460F61CE60C1F808E0C1F804C008602A
:1053B0004EF6AA00C0F6010011460BF019FC139935
:1053C000149ADDF858C0199BDDF86CE081461598F9
:1053D00040F24808C2F20048C8F80090D8F80080AF
:1053E000C8F864C0EC46CCF81070CCF80C60CCF86F
:1053F0000850CCF804E0CCF800004EF6D500C0F61A
:1054000001000BF0F5FBDDF86CC0179B1899199A99
:105410000546169840F2400EC2F2004ECEF80050FB
:10542000DEF800E0CEF86400684603250561C4603C
:10543000C0F808C04360016040F21010C2F20040A2
:105440001C9078231A93FEF7BBFADDF85CC018981D
:10545000199A1A9BDDF86CE069460D61CC60C1F8C1
:1054600008E0C1F804C0086040F23C10C2F20040FD
:105470001D904FF4DC71FEF7A3FA1C9890F82810E9
:105480000EF076F81D9890F828100EF071F80BF0D9
:1054900003FD1EB0BDE8F08780B584B0ADF80E0006
:1054A00002918DF807200FF047FABA200FF0DCFACE
:1054B0009DF80F000FF0D8FA9DF80E000FF0D4FA07
:1054C0000FF062FA0FF038FABB200FF0CDFA00208F
:1054D0008DF80600FFE79DF806009DF8071088424A
:1054E00015DAFFE79DF806009DF807100139401A0C
:1054F00018BF01200FF0A8F902999DF806208854E2
:10550000FFE79DF8060001308DF80600E3E70FF095
:105510003BFA04B080BD000080B58EB0002006903C
:105520000D900C900B900A90099008200190099022
:10553000012004900A9041F60000C5F60200079091
:1055400009A9089105F000FA069A41F60040C5F64F
:10555000020002901021039105F0F2FB0199069AD6
:10556000079805F0EDFB0A20059005F021F9029857
:105570000399049A05F0E4FB059805F019F9069AD9
:10558000079808990A920B9205F0DEF9322005F08F
:105590000FF90EB080BD000080B58CB000208DF8F2
:1055A000050048F24E100DF12E010122FFF774FFA5
:1055B0009DF82E000006002804D4FFE700208DF897
:1055C0002F0075E09DF82E0000F00F008DF804000C
:1055D0009DF80400012855DBFFE79DF8040005282D
:1055E00050DCFFE79DF80400C000C2B248F24F1043
:1055F0000DF10601FFF750FF9DF8040040F24071E5
:10560000C2F20041087000208DF80300FFE79DF80A
:1056100003009DF80410884230DAFFE79DF803305C
:105620000DF1060000EBC3025178927841EA0222A4
:1056300040F24071C2F2004101EB43035A809DF8F1
:10564000033000EBC30C9CF803209CF804C042EA32
:105650000C2201EB43039A819DF8032000EBC20367
:1056600058799B7940EA032001EB4201C882FFE7A9
:105670009DF8030001308DF80300C8E701208DF884
:10568000050006E040F24071C2F2004100200870BF
:10569000FFE700208DF8020048F24E100DF10201E4
:1056A000012200F009F89DF805008DF82F00FFE7B2
:1056B0009DF82F000CB080BD80B584B0ADF80E0011
:1056C00002918DF807200FF037F9BA200FF0CCF9CE
:1056D0009DF80F000FF0C8F99DF80E000FF0C4F907
:1056E00000208DF80600FFE79DF806009DF80710E2
:1056F00088420DDAFFE702989DF80610405C0FF033
:10570000B3F9FFE79DF8060001308DF80600EBE7DE
:105710000FF03AF904B080BD80B582B08DF8060074
:105720008DF805109DF80600012805D0FFE79DF8CB
:10573000060002282DD1FFE79DF806000DF0E0FEDF
:105740008DF804009DF8050070B9FFE79DF804008E
:1057500000EB400140F2BC00C2F2004000EB8100CF
:10576000007A8DF8070018E09DF8050001280ED199
:10577000FFE79DF8040000EB400140F2BC00C2F2DC
:10578000004000EB8100407A8DF8070005E0FFE75C
:10579000FFE700208DF80700FFE79DF8070002B043
:1057A00080BD00000000000083B08DF807008DF878
:1057B00006109DF80700202805DBFFE79DF807008D
:1057C0007F2803DBFFE70020029024E09DF806001D
:1057D0000146009180B1FFE70098012818D1FFE74A
:1057E0009DF807104CF2D870C0F6010000EB811054
:1057F000A0F5006002900EE09DF807104DF698703D
:10580000C0F6010000EB0110A0F50070029002E06C
:1058100000200290FFE7029803B0704700000000EC
:1058200083B002900298C0F500600190019818B111
:10583000FFE70198009002E000200090FFE7009849
:1058400003B070470000000080B582B08DF80600FC
:105850009DF80600012809D0FFE79DF80600022800
:1058600004D0FFE700208DF8070013E09DF8060044
:105870000DF062FE8DF805009DF8050041F600026E
:10588000C3F20002D82110FB012090F8C9008DF866
:105890000700FFE79DF8070002B080BD0000000090
:1058A00080B582B08DF803009DF80300012808D070
:1058B000FFE79DF80300022803D0FFE700200190D6
:1058C00012E09DF803000DF037FE8DF802009DF800
:1058D000020041F60002C3F20002D82110FB0120B1
:1058E000D0F8CC000190FFE7019802B080BD000025
:1058F00080B582B08DF803009DF80300012808D020
:10590000FFE79DF80300022803D0FFE70020019085
:1059100012E09DF803000DF00FFE8DF802009DF8D7
:10592000020041F60002C3F20002D82110FB012060
:10593000D0F8D0000190FFE79DED010A02B080BDD4
:1059400080B582B08DF803009DF80300012805D0D2
:10595000FFE79DF80300022812D1FFE79DF803003E
:105960000DF0CEFD8DF802009DF8020000EB400125
:1059700040F2D400C2F2004050F82100019002E051
:1059800000200190FFE79DED010A02B080BD0000FC
:1059900080B582B08DF803009DF80300012805D082
:1059A000FFE79DF80300022813D1FFE79DF80300ED
:1059B0000DF0A6FD8DF802009DF8020000EB4001FD
:1059C00040F2D400C2F2004000EB81004068019038
:1059D00002E000200190FFE79DED010A02B080BDCA
:1059E00080B582B08DF803009DF80300012808D02F
:1059F000FFE79DF80300022803D0FFE70020019095
:105A00000FE09DF803000DF07BFD8DF802009DF87E
:105A1000021040F60000C3F2000000EBC12001902C
:105A2000FFE7019802B080BD80B586B002AB00935D
:105A300003460098ADF81630ADF81410ADF81220FA
:105A4000BDF8161000EE101AB8EE400ABDF814109A
:105A5000013901EE101AB8EEC11A80EE010A80ED8C
:105A6000010A90ED010A30EE000A9FED151A20EEB2
:105A7000010A12F09BFD0098B0EE401AB7EE000A42
:105A800031EE001AB0EE002A81EE021A80ED001A03
:105A900090ED001A30EE410ABDF81200013801EE17
:105AA000100AB8EEC11A20EE010ABCEEC00A10EED0
:105AB000100AADF80600BDF8060006B080BD00BFB4
:105AC000D00F49400000000082B08DF803009DF81F
:105AD0000300012807D1FFE740F28400C2F2004032
