:020000040800F2
:10000000703F0024AD02000801C00008F1AE0008F6
:10001000F9BF0008F110000821F4000800000000FA
:1000200000000000000000000000000009C90008F6
:10003000411A00080000000079C0000869C90008E2
:10004000CB020008CB020008CB020008CB0200085C
:10005000CB020008CB020008CB020008CB0200084C
:10006000CB020008CB020008CB02000839130008BD
:10007000491300085913000869130008CB0200084F
:10008000CB020008CB020008CB020008CB0200081C
:10009000CB020008CB020008CB020008CB0200080C
:1000A000CB020008CB020008CB020008CB020008FC
:1000B000CB020008CB020008CB020008CB020008EC
:1000C000CB020008CB020008CB020008CB020008DC
:1000D000CB020008CB020008CB020008CB020008CC
:1000E000CB020008CB02000800000000CB02000891
:1000F000CB020008CB020008CB020008CB020008AC
:10010000CB020008CB020008CB020008CB0200089B
:10011000CB020008CB020008CB020008CB0200088B
:10012000CB020008CB020008CB020008CB0200087B
:10013000CB020008CB020008CB020008CB0200086B
:1001400000000000000000000000000000000000AF
:10015000CB020008CB020008CB020008CB0200084B
:10016000CB020008CB020008CB020008CB0200083B
:10017000CB020008CB020008CB0200080000000000
:10018000CB020008CB020008CB020008CB0200081B
:10019000CB020008CB020008CB020008CB0200080B
:1001A000CB020008CB020008CB020008CB020008FB
:1001B000CB020008CB020008CB020008CB020008EB
:1001C000CB020008CB020008CB020008CB020008DB
:1001D000CB020008CB020008CB020008CB020008CB
:1001E000CB020008CB020008CB020008CB020008BB
:1001F000CB020008CB020008CB020008CB020008AB
:10020000CB020008CB020008CB020008CB0200089A
:10021000CB020008CB020008CB020008CB0200088A
:10022000CB020008CB020008CB020008000000004F
:10023000CB020008CB02000800000000CB0200083F
:10024000CB020008CB020008CB020008CB0200085A
:10025000CB020008CB020008CB020008CB0200084A
:10026000CB020008CB020008CB020008CB0200083A
:10027000CB020008CB020008CB02000800000000FF
:10028000CB020008CB020008CB02000800000000EF
:1002900000000000CB020008DFF80CD000F076FA76
:1002A00000480047F1F40008703F002407488047E9
:1002B0000748804707480047FEE7FEE7FEE7FEE7FE
:1002C000FEE7FEE7FEE7FEE7FEE7FEE7591A000855
:1002D00059CA0008990200082DE9F05F0546002080
:1002E00092469B4688460646814640241BE02846A7
:1002F00041464746224600F081F853465A46C01A06
:10030000914110D311461846224600F068F82D1A84
:1003100067EB01084F4622460120002100F05FF8FC
:1003200017EB00094E41201EA4F10104DFDC484612
:1003300031462A464346BDE8F09FD2B201E000F8BC
:10034000012B491EFBD270470022F6E710B5134679
:100350000A4604461946FFF7F0FF204610BD10B5C7
:10036000044604E00B7800F8013B03B1491C521E1F
:10037000F8D2204610BD421C10F8011B0029FBD109
:10038000801A704710B5002200E0521C835C8C5C20
:10039000A34201D1002BF8D1D8B2E1B2401A10BD6E
:1003A000034611F8012B00F8012B002AF9D1184659
:1003B000704730B50B46014600202022012409E099
:1003C00021FA02F59D4205D303FA02F5491B04FA0E
:1003D00002F52844151EA2F10102F1DC30BD202AED
:1003E00004DB203A00FA02F1002070479140C2F18C
:1003F000200320FA03F3194390407047202A04DBBE
:10040000203A21FA02F00021704721FA02F3D0408D
:10041000C2F1200291400843194670472DE9FE4F72
:10042000804681EA0300C00F0C46009021F0004195
:1004300023F00045B8EB0200A94105D24046214611
:1004400090461C460B46024623F00040104347D01E
:10045000270DC7F30A00C3F30A510290401A019016
:1004600040286BDAC3F3130040F4801B00989246D7
:1004700020B10023D2EB030A63EB0B0B0198594622
:10048000C0F140025046FFF7AAFF06460D4650460F
:100490005946019A00F092F910EB080061410024DE
:1004A00087EA115284EAE7731A4340D0009A62B394
:1004B000019A012A4FEA075215DC001B61EB020189
:1004C0004FF0004202EA0752CDE90042001C41F51C
:1004D000801132462B4600F092F903B0BDE8F08F50
:1004E00040462146F9E7001B61EB0201001C41F583
:1004F000801300185B412018A2F5001747EB030199
:1005000040EAD570B6196D4111E06D084FEA360624
:1005100045EAC0754FEA0752001B61EB0201001C5F
:1005200041F5801149084FEA300000195141324627
:100530002B4603B0BDE8F04F00F052B900980122FD
:1005400040000023D0EB020263EBE07300982146E9
:100550004FEAE074B8EB000061EB0401E9E783F0D7
:1005600000435BE781F0004158E72DE9FE4F81EA47
:10057000030404F0004421F0004100944FF0000B0C
:1005800023F0004350EA01045ED052EA03045BD03A
:10059000C3F30A54C1F30A552C44A4F2F334019472
:1005A000A0FB0254C1F3130141F48011C3F3130300
:1005B00043F4801301FB024400FB034E840A970AB4
:1005C00044EA815447EA8357A4FB076802958D0AE1
:1005D00005FB07854FEA932C04FB0C542705029D6D
:1005E0004FEA065847EA1637B5EB08056EEB070CDD
:1005F000870E920E47EA811742EA8312A7FB020197
:10060000B6EB0B0164EB00042B0D43EA0C335E18D0
:1006100044EB1C50DA465146E7FB0201C5F31304D4
:100620004FEA0B3343EA14534FEA0432019C43EA86
:100630000603A4F10C040294009CCDE900B400F080
:10064000DEF803B0BDE8F08F00200146F9E72DE9A0
:10065000F04D81EA030404F0004B21F000451446FC
:100660004FF0000A23F0004150EA050220D054EA7E
:1006700001021DD0C5F30A570246C5F31303C1F3A7
:100680001300C1F30A5640F4801543F48013A7EB1E
:100690000608101BD64608F2FD3873EB050002D39E
:1006A00008F1010801E092185B41B8F1000F03DA8C
:1006B00000200146BDE8F08D00204FF48011064671
:1006C00084460EE0171B73EB050705D3121B63EB83
:1006D000050306434CEA010C49084FEA3000921822
:1006E0005B4150EA0107EDD152EA030012D082EAE1
:1006F000040083EA0501084305D0101BAB4106D274
:100700000122002306E000224FF0004302E06FF0D8
:10071000010253101AEB06004CEB085110EB0A00D3
:1007200041EB0B01BDE8F04D00F05AB8C1F30A529D
:10073000C1F3130140F2FF3341F480119A4202DA0F
:1007400000200146704740F233439A42A2F23342FE
:1007500002DC5242FFF752BEFFF741BE30B5041E25
:1007600071F1000404DB4FF00044404264EB0101EE
:10077000141E73F1000405DB1C464FF00043524287
:1007800063EB0403994208BF904230BD1CB5094891
:100790000090094801900546009C06E0E06840F0A2
:1007A000010394E8070098471034AC42F6D3FFF7F2
:1007B00077FD000094210108B4210108202A06DBFE
:1007C000CB17203A41FA02F043EAE07306E041FA1F
:1007D00002F3D040C2F1200291400843194670470D
:1007E00010B5141E73F1000408DA401C41F1000139
:1007F00092185B411A4301D120F0010010BD2DE990
:10080000F04D92469B4611B1B1FA81F202E0B0FA86
:1008100080F220329046FFF7E2FD04460F4640EAA0
:100820000A0041EA0B0153465A46084313D01146C9
:1008300053EA010019D0C8F140025046FFF7DEFD2F
:1008400005460E46504659464246FFF7C8FD084346
:1008500005D0012004E020463946BDE8F08D002097
:10086000054346EAE0762C4337430A986305E40AD9
:10087000A0EB08000022FD0A44EA47540A3002D5E2
:1008800000200146E9E7010510196941DDE9084545
:1008900000196941BDE8F04DA2E70000000000002A
:1008A00080B584B003900398006842F20001C4F25E
:1008B0000201884209D0FFE70398006842F2001164
:1008C000C4F20201884209D1FFE742F20830C4F2C3
:1008D0000200006810F4403F09D129E046F20830D8
:1008E000C5F60200006810F4403F21D0FFE708F091
:1008F000CFFB0290039840680190B0F5803F0AD08A
:10090000FFE70198B0F5003F05D0FFE70198B0F58B
:10091000403F07D00AE00398C1880298B0FBF1F08D
:10092000029004E002988008029000E0FFE75FE098
:100930004FF40020002106F0E7FA02900398406887
:100940000090B0F5802F32D0FFE70098B0F5002F6F
:100950002DD0FFE70098B0F5402F28D0FFE7009892
:10096000B0F5801F23D0FFE70098B0F5A01F1ED080
:10097000FFE70098B0F5C01F19D0FFE70098B0F569
:10098000E01F1FD0FFE70098B0F5001F1ED0FFE763
:100990000098B0F5101F1DD0FFE70098B0F5201F9C
:1009A0001CD0FFE70098B0F5301F1BD01EE0039865
:1009B00041686FF0010000EA51410298B0FBF1F08C
:1009C000029014E002980009029010E00298400999
:1009D00002900CE002988009029008E00298C00999
:1009E000029004E00298000A029000E0FFE7FFE7AF
:1009F00005F0E6F841F20301884217D8FFE70298B4
:100A000042F60151C0F23111884207D3FFE7039843
:100A10000168886840F48070886006E00398016887
:100A2000886820F480708860FFE743E002984008FF
:100A30000290029845F61061C0F25F01884209D821
:100A4000FFE703980068806820F440700399096804
:100A500088602EE002984BF62041C0F2BE01884229
:100A60000AD8FFE7039800688068012161F3092034
:100A70000399096888601BE0029847F64001C0F2BC
:100A80007D1188420AD8FFE7039800688068022138
:100A900061F3092003990968886008E003980068F9
:100AA000806840F44070039909688860FFE7FFE7B9
:100AB000FFE7FFE704B080BD80B586B0ADF8160053
:100AC000ADF8141000F0BCF844F6D351C1F2620145
:100AD000A0FB011080090490BDF8161040F24C00F4
:100AE000C2F20040037840F24E02C2F2004222F805
:100AF0001310BDF81410037840F26202C2F20042F3
:100B000022F8131001780131017040F24D02C2F257
:100B1000004211780131117000780A2857DBFFE795
:100B20000020039040F24000C2F20040006848B14B
:100B3000FFE7049840F24001C2F200410968401A00
:100B40000390FFE740F24000C2F20040006820B18D
:100B5000FFE7039864281BD3FFE70DF10A0002A901
:100B600000F0CAFABDF80A0020B9FFE7BDF8080096
:100B700038B1FFE7BDF80A00BDF808100BF0A8FA7D
:100B8000FFE7049840F24001C2F200410860FFE72D
:100B900040F24C01C2F2004100200190087040F286
:100BA0004D01C2F20041087040F24E01C2F2004114
:100BB0000861C86088604860086040F26201C2F263
:100BC00000410861C860886048600860FFE706B0BF
:100BD00080BD00000000000080B582B00190019847
:100BE0004FF47A71484300F003F802B080BD000072
:100BF00083B0029041F20400CEF200000068019040
:100C0000029840F20401C2F2004109684DF6836285
:100C1000C4F21B32A1FB0221890C48430090FFE77C
:100C200041F20400CEF2000000680199401A0099D8
:100C3000884201D2FFE7F3E703B0704700000000ED
:100C400041F20400CEF2000000687047000000008E
:100C500084B00390029102980399884205D3FFE77C
:100C600002980399401A009005E003980299C04346
:100C700008440090FFE7009801909DED010AB8EE4E
:100C8000400A40F20400C2F2004090ED001AB8EEB3
:100C9000411A9FED042A81EE021A80EE010A04B087
:100CA000704700BF002474494EF6FC51CEF200019B
:100CB000086840F08070086041F20401CEF2000143
:100CC0000020086041F20001CEF20001086840F007
:100CD000010008607047000080B582B00190019863
:100CE0006946086000214FF448724FF4F0730846DB
:100CF00000F016F902B080BD82B0ADF80600ADF884
:100D000004100092BDF80600B0F5487F06DAFFE750
:100D1000BDF80400B0F5F07F01DBFFE70DE00098BF
:100D2000BDF80410BDF806304FF4487201FB0232E2
:100D30004FF0404141F82200FFE702B07047000049
:100D400080B588B084460B980A98ADF81EC0ADF8FF
:100D50001C10069205938DF81300FFE706980078A3
:100D6000002800F0D880FFE70698411C0691007823
:100D70008DF812009DF81200202805DBFFE79DF892
:100D800012007F2801DBFFE7E8E79DF812009DF8DD
:100D9000131001F069F903909DF81300002856D153
:100DA000FFE700208DF80B00FFE79DF80B000F28F0
:100DB00047DCFFE703989DF80B10405C8DF80A00B4
:100DC00000208DF80900FFE79DF80900072831DCB5
:100DD000FFE79DF80A009DF80910C1F10701C8401E
:100DE000C00780B1FFE7BDF81E009DF80910084458
:100DF000BDF81C109DF80B201144059A80B289B2F1
:100E0000FFF77AFF0FE0BDF81E009DF809100844B7
:100E1000BDF81C109DF80B2011440B9A80B289B2CA
:100E2000FFF76AFFFFE7FFE79DF8090001308DF843
:100E30000900C9E7FFE79DF80B0001308DF80B00B2
:100E4000B3E7BDF81E000830ADF81E0062E09DF863
:100E5000130001285CD1FFE700208DF80800FFE7B0
:100E60009DF808001F284DDCFFE703999DF8082036
:100E700001EB420011F81210407840EA0120ADF871
:100E8000060000208DF80500FFE79DF805000F28FB
:100E900031DCFFE7BDF806009DF80510C1F10F0138
:100EA000C840C00780B1FFE7BDF81E009DF80510DF
:100EB0000844BDF81C109DF808201144059A80B222
:100EC00089B2FFF719FF0FE0BDF81E009DF805106D
:100ED0000844BDF81C109DF8082011440B9A80B2FC
:100EE00089B2FFF709FFFFE7FFE79DF80500013032
:100EF0008DF80500C9E7FFE79DF8080001308DF87F
:100F00000800ADE7BDF81E001030ADF81E0000E08F
:100F100001E0FFE722E708B080BD0000000000000C
:100F200080B584B0DDF818C0ADF80E00ADF80C1037
:100F3000ADF80A20ADF80830BDF80E00B0F5487FD6
:100F400006DAFFE7BDF80C00B0F5F07F01DBFFE744
:100F50004AE0BDF80E00BDF80A100844B0F5487F1D
:100F600007DDFFE7BDF80E00C0F54870ADF80A00D8
:100F7000FFE7BDF80C00BDF808100844B0F5F07F9D
:100F800007DDFFE7BDF80C00C0F5F070ADF8080014
:100F9000FFE7BDF80C00BDF80E204FF4487100FBD0
:100FA0000120800000F140400190BDF80A00C0F52A
:100FB000487140F25810C2F200400268116406996C
:100FC000019ABDF80A30BDF808C0EE46CEF800C060
:100FD00002F04AFD40B9FFE740F25810C2F200406B
:100FE000322102F041FCFFE704B080BD00000000A8
:100FF00080B582B040F25810C2F2004041F20001C8
:10100000C5F2002101604FF4403141600021816050
:101010004FF44871C16002F0A7FBB0B9FFE7694621
:101020004FF4F070086040F25810C2F20040019096
:101030004FF0FF314FF040424FF4487302F014FD7F
:101040000198322102F010FCFFE702B080BD0000E1
:1010500080B540F29C40C2F200400BF019FC80BD0C
:1010600084B04FF04040019045F2AA50C5F2AA501A
:10107000009000200290FFE702990020B0EBD15FC2
:101080000ED1FFE7029A45F2AA50C5F2AA5050408D
:10109000019941F82200FFE7029801300290EBE746
:1010A00000200290FFE702990020B0EBD15F18D139
:1010B000FFE70198029950F82100029945F2AA52DF
:1010C000C5F2AA525140884206D0FFE70198029922
:1010D00000EB8100039007E0FFE7029801300290E7
:1010E000E1E700200390FFE7039804B07047000099
:1010F000FFE7FEE70000000091B010900F9140F272
:101100004D00C2F20040007830B9FFE7109900208E
:1011100008800F9908800CE100208DF813008DF8ED
:101120001200FFE79DF8120009283BDCFFE79DF85D
:10113000121040F24E00C2F2004030F8110050B9D7
:10114000FFE79DF8121040F26200C2F2004030F852
:10115000110000B3FFE79DF8121040F24E00C2F2FA
:10116000004030F811009DF813200AA921F8120060
:101170009DF8121040F26200C2F2004030F81100F7
:101180009DF8132005A921F812009DF813000130E5
:101190008DF81300FFE7FFE79DF8120001308DF88E
:1011A0001200BFE79DF8130030B9FFE71099002047
:1011B00008800F990880BCE000208DF81100FFE73F
:1011C0009DF811009DF813100139884253DAFFE7AA
:1011D00000208DF81000FFE79DF810009DF8132007
:1011E0009DF81110C943114488423DDAFFE79DF88C
:1011F00010200AA800EB420130F81200498888420A
:101200002BDDFFE79DF810000AA931F81000ADF8BA
:101210000E009DF8102001EB4200408821F81200DA
:10122000BDF80E009DF8102001EB420148809DF8AA
:10123000100005A931F81000ADF80E009DF810203F
:1012400001EB4200408821F81200BDF80E009DF825
:10125000102001EB42014880FFE7FFE79DF81000F6
:1012600001308DF81000B7E7FFE79DF8110001305D
:101270008DF81100A4E70020029001908DF8030082
:101280009DF813008DF802009DF81300032809DB78
:10129000FFE701208DF803009DF8130001388DF859
:1012A0000200FFE79DF803008DF80100FFE79DF8BD
:1012B00001009DF80210884217DAFFE79DF801103F
:1012C0000AA830F811100298084402909DF8011005
:1012D00005A830F81110019808440190FFE79DF827
:1012E000010001308DF80100E1E79DF802009DF852
:1012F0000310401A8DF800009DF8000001280FDB54
:10130000FFE702989DF80010B0FBF1F010990880FB
:1013100001989DF80010B0FBF1F00F99088008E0EB
:10132000BDF8280010990880BDF814000F990880B6
:10133000FFE711B07047000080B540F2C010C2F264
:10134000004002F0C9FB80BD80B540F23820C2F2F7
:10135000004002F0C1FB80BD80B540F2B020C2F277
:10136000004002F0B9FB80BD80B540F22830C2F2E7
:10137000004002F0B1FB80BD89B0DDF824C00890C8
:1013800007910692059308980068406C00F0404071
:101390000999059A41EA0241084308990968486495
:1013A000069808990968C86308984068B0F5403FF6
:1013B0007CD1FFE79DF81F00000603909DF81E00FA
:1013C000000402909DF81D00000201909DF81C0091
:1013D00000900898806848B9FFE70198029908438F
:1013E000039908430099084304905AE008988068DC
:1013F000012807D1FFE701980299084300990843A3
:1014000004904DE008988068022812D1FFE7029806
:10141000C00C02900198800A01900098C0080090CA
:1014200001984001029940EAC120009908430490C4
:1014300035E008988068032818D1FFE70398C00FAB
:1014400003900298C00C02900198C00A0190009885
:10145000C008009001984001029940EA8120039958
:1014600040EAC13000990843049017E00398000F48
:1014700003900298000D02900198000B01900098D3
:101480000009009001980001029940EA01200399A7
:1014900040EA0130009908430490FFE7FFE7FFE7C7
:1014A000FFE7049808990968886310E00898406885
:1014B000B0F5802F05D1FFE70798089909684861C2
:1014C00004E0079808990968C860FFE7FFE709B0DA
:1014D000704700000000000083B00290029801688D
:1014E00001201022C4F202029142009000F0A38079
:1014F000FFE70298016801202822C4F2020291420B
:10150000009000F09880FFE70298016801204022D7
:10151000C4F202029142009000F08D80FFE7029831
:10152000016801205822C4F202029142009000F0AA
:101530008280FFE70298016801207022C4F2020253
:101540009142009077D0FFE702980168012088223D
:10155000C4F20202914200906DD0FFE70298016848
:101560000120A022C4F202029142009063D0FFE762
:10157000029801680120B822C4F202029142009050
:1015800059D0FFE702980168012040F21042C4F2EE
:101590000202914200904ED0FFE7029801680120BC
:1015A00040F22842C4F202029142009043D0FFE789
:1015B00002980168012040F24042C4F202029142C6
:1015C000009038D0FFE702980168012040F25842AD
:1015D000C4F20202914200902DD0FFE70298016808
:1015E000012040F27042C4F202029142009022D0E7
:1015F000FFE702980168012040F28842C4F202022B
:101600009142009017D0FFE702980168012040F254
:10161000A042C4F20202914200900CD0FFE702986F
:1016200000684FF64831CBF6FD710844B0FA80F0FF
:1016300040090090FFE70098C00740B3FFE7029819
:10164000007810384AF6AB21CAF6AA21A0FB011097
:1016500000090190019800F0070140F29420C0F6C3
:101660000100405C0299C8650198042807D3FFE790
:1016700002990868042262F30900886506E002996D
:10168000086840F2FF3290438865FFE705E0029961
:10169000086820F0FF008865FFE70298806D03B0BE
:1016A000704700000000000084B0039003980068B9
:1016B000019003980168012045F20842C5F6020234
:1016C000914200904ED0FFE703980168012045F257
:1016D0001C42C5F602029142009043D0FFE70398F6
:1016E0000168012045F23042C5F6020291420090A5
:1016F00038D0FFE703980168012045F24442C5F65F
:101700000202914200902DD0FFE70398016801206A
:1017100045F25842C5F602029142009022D0FFE7FE
:1017200003980168012045F26C42C5F6020291421D
:10173000009017D0FFE703980168012045F280422E
:10174000C5F60202914200900CD0FFE703980068B2
:101750004AF66C31CAF2FD710844B0FA80F04009D3
:101760000090FFE70098C00710B3FFE703980078E8
:1017700008384CF6CD41CCF6CC41A0FB0110000955
:101780000290029945F60000C5F6020000EB8100C8
:1017900003990866039945F68000C5F6020048667D
:1017A000029800F01F01012088400399886635E007
:1017B0000398007810384AF6AB21CAF6AA21A0FB9C
:1017C000011000090290019840F2B841C4F20201F0
:1017D00088420CD8FFE7019840F21041C4F20201A0
:1017E000884204D3FFE7029808300290FFE702998D
:1017F00040F60000C4F2020000EB81000399086685
:10180000039940F68000C4F202004866029800F096
:101810001F010120884003998866FFE704B07047E4
:1018200083B002900298007901900198002800F09E
:101830008A80FFE70198082800F28580FFE7029878
:101840000168012045F20842C5F60202914200906B
:101850004ED0FFE702980168012045F21C42C5F610
:1018600002029142009043D0FFE7029801680120F4
:1018700045F23042C5F602029142009038D0FFE7AF
:1018800002980168012045F24442C5F602029142E5
:1018900000902DD0FFE702980168012045F25842E0
:1018A000C5F602029142009022D0FFE7029801683B
:1018B000012045F26C42C5F602029142009017D019
:1018C000FFE702980168012045F28042C5F6020256
:1018D000914200900CD0FFE7029800684AF66C3104
:1018E000CAF2FD710844B0FA80F040090090FFE7A9
:1018F0000098C00780B1FFE7019945F6FC00C5F6E6
:10190000020000EB81000299C866029945F640107A
:10191000C5F6020008670FE0019940F6FC00C4F22A
:10192000020000EB81000299C866029940F640105F
:10193000C4F202000867FFE70198411E01208840B9
:1019400002994867FFE703B07047000000000000FD
:1019500085B0049000208DF80F000498806918BBB2
:10196000FFE70498806A029003281BD80299DFE8F9
:1019700001F0020D0218049890F82F00C00720B162
:10198000FFE701208DF80F00FFE70CE00498C06A24
:10199000B0F1C07F04D1FFE701208DF80F00FFE711
:1019A00001E000E0FFE747E004988069B0F5005FE0
:1019B00026D1FFE70498806A019003281ED8019978
:1019C000DFE801F00206021101208DF80F0016E099
:1019D000049890F82F00C00720B1FFE701208DF890
:1019E0000F00FFE70BE00498C06AB0F1C07F04D19C
:1019F000FFE701208DF80F00FFE700E0FFE71AE0A6
:101A00000498806A0090032804D3FFE70098032815
:101A100004D00EE001208DF80F000BE0049890F840
:101A20002F00C00720B1FFE701208DF80F00FFE76E
:101A300000E0FFE7FFE7FFE79DF80F0005B0704704
:101A4000704700000000000081B0EFF3108072B614
:101A50000090FFE7FEE7000044F60C01C5F6020126
:101A6000086840F002000860FFE744F60400C5F68D
:101A7000020000688004002801D4FFE7F5E7704702
:101A800080B583B0029001910198006800BBFFE728
:101A90000298006847F6FF718843019A00925168E6
:101AA000D2F808E0D2F80CC0136941EA0E0141EA0D
:101AB0000C0119435369194393691943D3691943B5
:101AC000136A1943526A114308430299086025E0DA
:101AD0000298006820F4F840019AD169136A526AAA
:101AE000194311430843029908600298406847F679
:101AF000FF718843019A5168D2F808E0D2F80CC00F
:101B0000136941EA0E0141EA0C0119435369194373
:101B100092691143084302994860FFE7002003B02F
:101B200080BD00000000000082B00190009101988B
:101B3000406943F6FE718843009940EA41000199EB
:101B40004861002002B0704783B00290019100927A
:101B5000029800696FF31500019A11685368D2F872
:101B600008C0D26819436FF01F0303EB4C131943ED
:101B700041EA4221084302990861002003B07047FE
:101B800010B583B00290019100920098A8BBFFE7C6
:101B90000298806800F07040019A11685468D2F889
:101BA00008E0D2F80CC001396FF00F0303EB041307
:101BB00019436FF0FF0303EB0E2319434FF20003A9
:101BC000CFF6FF7303EB0C331943D2F810C0002398
:101BD000CFF6FF7303EB0C431943D2F814C0002374
:101BE000CFF6F07303EB0C5319439269013A41EAC3
:101BF00002610843029988603CE00298806840F6E0
:101C0000FF71CFF60F7108400199CA684B694FF216
:101C10000001CFF6FF7101EB02310022CFF6F07226
:101C200002EB035211430843029988600298C0688E
:101C300000F07040019A11685468D2F808E0D2F8B8
:101C400010C001396FF00F0303EB041319436FF059
:101C5000FF0303EB0E2319430023CFF6FF7303EBBF
:101C60000C4319439269013A41EA0261084302991F
:101C7000C860FFE7002003B010BD000000000000B6
:101C800080B584B0ADF80E0002918DF807200BF0FE
:101C90003BFEBA200BF0D0FE9DF80F000BF0CCFEFF
:101CA0009DF80E000BF0C8FE0BF056FE0BF02CFE5C
:101CB000BB200BF0C1FE00208DF80600FFE79DF869
:101CC00006009DF80710884215DAFFE79DF8060028
:101CD0009DF807100139401A18BF01200BF09CFD38
:101CE00002999DF806208854FFE79DF80600013010
:101CF0008DF80600E3E70BF02FFE04B080BD000076
:101D000080B58EB0002006900D900C900B900A903C
:101D10000990082001900990012004900A9041F652
:101D20000000C5F60200079009A9089103F034FDF0
:101D3000069A41F60040C5F6020002901021039178
:101D400003F026FF0199069A079803F021FF0A2065
:101D5000059003F055FC02980399049A03F018FFCC
:101D6000059803F04DFC069A079808990A920B9281
:101D700003F012FD322003F043FC0EB080BD0000E2
:101D800080B58CB000208DF8050048F24E100DF1A2
:101D90002E010122FFF774FF9DF82E000006002897
:101DA00004D4FFE700208DF82F0075E09DF82E0089
:101DB00000F00F008DF804009DF80400012855DBA9
:101DC000FFE79DF80400052850DCFFE79DF80400BC
:101DD000C000C2B248F24F100DF10601FFF750FFEC
:101DE0009DF8040040F24861C2F2004108700020F2
:101DF0008DF80300FFE79DF803009DF8041088426A
:101E000030DAFFE79DF803300DF1060000EBC30266
:101E10005178927841EA022240F24861C2F20041D0
:101E200001EB43035A809DF8033000EBC30C9CF890
:101E300003209CF804C042EA0C2201EB43039A8180
:101E40009DF8032000EBC20358799B7940EA0320F8
:101E500001EB4201C882FFE79DF8030001308DF8D5
:101E60000300C8E701208DF8050006E040F2486154
:101E7000C2F2004100200870FFE700208DF8020048
:101E800048F24E100DF10201012200F009F89DF810
:101E900005008DF82F00FFE79DF82F000CB080BDE6
:101EA00080B584B0ADF80E0002918DF807200BF0DC
:101EB0002BFDBA200BF0C0FD9DF80F000BF0BCFD10
:101EC0009DF80E000BF0B8FD00208DF80600FFE72E
:101ED0009DF806009DF8071088420DDAFFE702988A
:101EE0009DF80610405C0BF0A7FDFFE79DF806008B
:101EF00001308DF80600EBE70BF02EFD04B080BD3D
:101F000080B58AB00990ADF822108DED070ACDEDAD
:101F1000060A8DED051A0020ADF81200FFE7BDF8A6
:101F20001200BDF8221088425CDAFFE7BDF812000B
:101F300000EE100AB8EEC00A9FED2B1A20EE010A3F
:101F4000BDF8220001EE100AB8EEC11A80EE010AB7
:101F50009DED051A30EE010A8DED030A9DED070A8D
:101F60008DED010A9DED030A0DF082FB9DED011A36
:101F7000B0EE402A9DED060AA1EE020A8DED020A9E
:101F80009DED020A9FED191AB4EE410AF1EE10FA26
:101F900005DDFFE70020C4F27F300290FFE79DEDF2
:101FA000020AB5EE400AF1EE10FA03DAFFE700206C
:101FB0000290FFE79DED020ABCEEC00A10EE101A77
:101FC00048F28000CFF6007040EA01400999BDF860
:101FD000122041F82200FFE7BDF812000130ADF8F1
:101FE00012009CE70AB080BDD00FC94000007F43BB
:101FF00083B00290ADF80610ADF804200020ADF8D3
:102000000200FFE7BDF80200BDF80610884226DA9C
:10201000FFE7BDF80220BDF80610B2FBF1F000FBAF
:102020001120BDF80410884208DAFFE70299BDF8D4
:1020300002206FF0FF0041F8220009E00299BDF88C
:10204000022048F2FF00CFF6007041F82200FFE7BF
:10205000FFE7BDF802000130ADF80200D2E703B09F
:10206000704700000000000083B08DF807008DF875
:1020700006109DF80700202805DBFFE79DF8070004
:102080007F2803DBFFE70020029024E09DF8060094
:102090000146009180B1FFE70098012818D1FFE7C1
:1020A0009DF8071040F2C420C0F6010000EB81103B
:1020B000A0F5006002900EE09DF8071041F6842024
:1020C000C0F6010000EB0110A0F50070029002E0E4
:1020D00000200290FFE7029803B070470000000064
:1020E00080B5A6B02490239100208DF88B00239812
:1020F000006808B1FFE7FFE7FFE7249890F8500079
:10210000012804D1FFE702208DF897002DE12499E2
:10211000012081F85000FFE7FFE700201D901E908E
:102120002498006842F20001C4F20201884206D1FC
:10213000FFE742F20010C4F20200089002E0002023
:102140000890FFE7089878B9FFE72499486D40F0B8
:1021500020004865FFE72499002081F85000FFE740
:1021600001208DF8970000E1089809F059F80790D0
:102170002498006809F054F8002840F0E280FFE756
:102180000798002840F0DD80FFE7249801680120CF
:1021900042F20002C4F20202914206900CD0FFE724
:1021A000249800684DF60071CBF6FD710844B0FA32
:1021B00080F040090690FFE70698C10746F200301C
:1021C000C5F6020000291CBF42F20030C4F2020032
:1021D00021902398006800285ED0FFE7219880684E
:1021E00020F4404023994968084321998860249845
:1021F0000168012042F20002C4F2020291420590FD
:102200000CD0FFE7249800684DF60071CBF6FD7105
:102210000844B0FA80F040090590FFE70598C1072F
:1022200046F20030C5F6020000291CBF42F2003021
:10223000C4F2020042F20031C4F20201884212D11B
:10224000FFE742F20000C4F2020008F0D1FF039061
:1022500042F20010C4F2020008F0CAFF01460398DF
:102260000843049007E046F20000C5F6020008F0BB
:10227000BFFF0490FFE7049868B9FFE721988068E2
:1022800040F61F718843239A1168926811430843EE
:1022900021998860FFE753E02199886820F4404045
:1022A000886024980168012042F20002C4F2020210
:1022B000914202900CD0FFE7249800684DF600711F
:1022C000CBF6FD710844B0FA80F040090290FFE7B8
:1022D0000298C10746F20030C5F6020000291CBF73
:1022E00042F20030C4F2020042F20031C4F20201B4
:1022F000884212D1FFE742F20000C4F2020008F067
:1023000077FF009042F20010C4F2020008F070FF64
:10231000014600980843019007E046F20000C5F628
:10232000020008F065FF0190FFE7019838B9FFE768
:102330002199886840F61F7290438860FFE7FFE7A5
:1023400008E02499486D40F02000486501208DF890
:102350008B00FFE7FFE72499002081F85000FFE79A
:102360009DF88B008DF89700FFE79DF8970026B049
:1023700080BD00000000000080B5AAB02690259125
:1023800000208DF893002190269890F838000128BD
:1023900001D1FFE700E0FFE72598C0680021C4F203
:1023A000FF71884201D0FFE71EE02698006842F2E4
:1023B0000001C4F20201884201D1FFE7FFE726983D
:1023C000006842F20011C4F20201884201D1FFE725
:1023D000FFE72698006846F20001C5F60201884230
:1023E00001D1FFE7FFE7FFE7FFE7269890F85000ED
:1023F000012804D1FFE702208DF89F00F1E3269920
:10240000012081F85000FFE7FFE72698006808F0F8
:10241000FFFE002840F0D183FFE72598C078000632
:1024200000282DD4FFE725980068000330B9FFE7A6
:1024300025980068C0F384601E9015E02598006818
:1024400090FAA0F02890289820B9FFE720208DF876
:10245000A70005E02898B0FA80F08DF8A700FFE704
:102460009DF8A7001E90FFE71E9800F01F010120B5
:1024700000FA01F226980168C8691043C861FFE7B5
:102480002698006825990A68496808F0D1FE2698C0
:10249000006808F0BDFE20902698006808F090FEC5
:1024A0001F902098002840F0B580FFE71F98002873
:1024B00040F0B080FFE726980068259A116892687E
:1024C00008F006FF41F20000C5F60040006800F089
:1024D0007040B0F1805F0BD1FFE7259840692699E5
:1024E0000968C96801F01C01490888401D901FE077
:1024F00026980068C068C00600280BD4FFE725981E
:10250000406926990968C96801F01C01490888409A
:102510001C900AE02598406926990968C96801F06D
:102520001001490888401C90FFE71C981D90FFE7A8
:102530001D98239025980069042821D0FFE726984C
:10254000006825990A680969239B08F02DFF2698E1
:102550000068259A1169527E013AB2FA82F2520954
:10256000D20708F03DFF26980068259A1169127E6F
:10257000013AB2FA82F25209D20208F001FF48E0B1
:1025800026980068006E00F0F84025990968B0EBC5
:10259000816F07D1FFE726980168086E20F00040A0
:1025A0000866FFE726980068406E00F0F84025991D
:1025B0000968B0EB816F07D1FFE726980168486E84
:1025C00020F000404866FFE726980068806E00F023
:1025D000F84025990968B0EB816F07D1FFE726988D
:1025E0000168886E20F000408866FFE72698006842
:1025F000C06E00F0F84025990968B0EB816F07D1F3
:10260000FFE726980168C86E20F00040C866FFE723
:10261000FFE7FFE72698006808F0E2FD002840F099
:10262000CB82FFE726980068259A1168D26808F0E7
:102630006BFE2598C0680021C4F2FF71884240F00B
:102640005781FFE7269800681B9042F20001C4F210
:102650000201884240F0A480FFE72598006802212B
:10266000C0F23041884203D1FFE701201A9094E084
:10267000259800680421C0F66001884205D1FFE773
:102680004020C1F62010199084E0259800680821A8
:10269000C0F69041884205D1FFE78020C1F6505036
:1026A000189074E0259800681021C1F2C00188429A
:1026B00006D1FFE740F20010C2F28010179063E0ED
:1026C000259800682021C1F2F041884206D1FFE739
:1026D00040F20020C2F2B050169052E025980068F7
:1026E00040F20041C2F60021884206D1FFE740F6E1
:1026F0000000C2F63060159040E02598006840F672
:102700000001C2F63061884206D1FFE741F20000C5
:10271000C3F2602014902EE02598006841F2000179
:10272000C3F26021884206D1FFE742F20000C3F203
:10273000906013901CE0259800680021C4F22131BC
:10274000884205D1FFE70020C4F2527012900CE0DD
:10275000259801680022C4F684320020914204BF0B
:102760000020C4F6B8701290FFE712981390FFE7AC
:1027700013981490FFE714981590FFE7159816909A
:10278000FFE716981790FFE717981890FFE718983B
:102790001990FFE719981A90FFE71A981190A2E094
:1027A0002698006842F20011C4F20201884240F00B
:1027B0009480FFE7259800680221C0F230418842EA
:1027C00003D1FFE70120109084E0259800680421E0
:1027D000C0F66001884205D1FFE74020C1F6201015
:1027E0000F9074E0259800680821C0F69041884257
:1027F00005D1FFE78020C1F650500E9064E0259887
:1028000000681021C1F2C001884206D1FFE740F202
:102810000010C2F280100D9053E02598006820212E
:10282000C1F2F041884206D1FFE740F20020C2F237
:10283000B0500C9042E02598006840F20041C2F68A
:102840000021884206D1FFE740F60000C2F6306062
:102850000B9030E02598006840F60001C2F6306128
:10286000884206D1FFE741F20000C3F260200A90DF
:102870001EE02598006841F20001C3F26021884201
:1028800006D1FFE742F20000C3F2906009900CE02D
:10289000259801680022C4F684320020914204BFCA
:1028A0000020C4F6B8700990FFE709980A90FFE786
:1028B0000A980B90FFE70B980C90FFE70C980D908F
:1028C000FFE70D980E90FFE70E980F90FFE70F9827
:1028D0001090FFE71098089002E000200890FFE7B2
:1028E00008981190FFE71B98119908F0C1FCFFE7C9
:1028F0002598C0780006002840F15D81FFE7269802
:102900000168012042F20002C4F2020291420790E3
:102910000CD0FFE7269800684DF60071CBF6FD71EC
:102920000844B0FA80F040090790FFE70798C10714
:1029300046F20030C5F6020000291CBF42F200300A
:10294000C4F2020008F034FC2290269801684FF08F
:10295000010042F20002C4F20202914206900CD041
:10296000FFE7269800684DF60071CBF6FD7108442C
:10297000B0FA80F040090690FFE70698C10746F2DA
:102980000030C5F6020000291CBF42F20030C4F23C
:10299000020042F20031C4F20201884212D1FFE784
:1029A00042F20000C4F2020008F01AFC049042F265
:1029B0000010C4F2020008F013FC0146049808431A
:1029C000059007E046F20000C5F6020008F008FC9A
:1029D0000590FFE70598002840F0E380FFE7259881
:1029E00000680021CCF68431884255D1FFE79DF87C
:1029F0008A00000600284FD4FFE72698006846F2B8
:102A00000001C5F60201884245D1FFE7269801681A
:102A1000012042F20002C4F20202914203900CD063
:102A2000FFE7269800684DF60071CBF6FD7108446B
:102A3000B0FA80F040090390FFE70398C10746F21F
:102A40000030C5F6020000291CBF42F20030C4F27B
:102A50000200229941F4000108F082FC40F20400D7
:102A6000C2F2004000684FEA901042F66351C0F293
:102A70003E51A0FB01104FEA90114FF0020000EB15
:102A800041002190FFE7219820B1FFE7219801380C
:102A90002190F8E7FFE783E0259800680021CCF259
:102AA0005271884238D1FFE79DF88B00C00798BB70
:102AB000FFE72698006846F20001C5F60201884249
:102AC00029D1FFE726980168012042F20002C4F2F2
:102AD0000202914202900CD0FFE7269800684DF662
:102AE0000071CBF6FD710844B0FA80F04009029005
:102AF000FFE70298C10746F20030C5F60200002940
:102B00001CBF42F20030C4F20200229941F08071F1
:102B100008F026FCFFE742E0259800680021CCF68B
:102B2000B871884239D1FFE79DF88A004006002835
:102B300033D4FFE72698006846F20001C5F602018B
:102B4000884229D1FFE726980168012042F200025D
:102B5000C4F20202914201900CD0FFE7269800686F
:102B60004DF60071CBF6FD710844B0FA80F04009D3
:102B70000190FFE70198C10746F20030C5F6020058
:102B800000291CBF42F20030C4F20200229941F435
:102B9000800108F0E5FBFFE700E0FFE7FFE7FFE764
:102BA00008E02699486D40F02000486501208DF826
:102BB0009300FFE7FFE7FFE708E02699486D40F044
:102BC0002000486501208DF89300FFE7FFE7269974
:102BD000002081F85000FFE79DF893008DF89F00DA
:102BE000FFE79DF89F002AB080BD000000000000B4
:102BF00010B58CB00A9000208DF8270006900A9836
:102C000020B9FFE701208DF82F00D1E10A98C068B4
:102C100038B1FFE70A98007F012801D1FFE7FFE7FD
:102C2000FFE70A98406D50B9FFE70A9800F0C4F931
:102C30000A99002088650A9981F85000FFE70A98F0
:102C4000006808F0C5FA28B1FFE70A98006808F0A4
:102C500093FAFFE70A98006808F0D2FAE8B9FFE7AC
:102C60000A98006808F094FA40F20400C2F20040AA
:102C70000068800942F66351C0F23E51A0FB010199
:102C8000012000EB91100690FFE7069820B1FFE7C6
:102C9000069801380690F8E7FFE70A98006808F000
:102CA000AFFA70B9FFE70A99486D40F01000486527
:102CB0000A99886D40F00100886501208DF8270091
:102CC000FFE70A98006808F0A3FA07900A98406D99
:102CD000C006002800F15E81FFE70798002840F059
:102CE0005981FFE70A98406D40F0020020F480709F
:102CF0000A9948650A98006808F072FA002870D1AD
:102D0000FFE70A980168012042F20002C4F20202C1
:102D1000914203900CD0FFE70A9800684DF60071CD
:102D2000CBF6FD710844B0FA80F040090390FFE74C
:102D30000398C10746F20030C5F6020000291CBF07
:102D400042F20030C4F2020042F20031C4F2020149
:102D5000884212D1FFE742F20000C4F2020008F0FC
:102D60003FFA019042F20010C4F2020008F038FA73
:102D7000014601980843029007E046F20000C5F6BC
:102D8000020008F02DFA0290FFE7029840BBFFE72F
:102D90000A980168012042F20002C4F20202914244
:102DA00000900CD0FFE70A9800684DF60071CBF652
:102DB000FD710844B0FA80F040090090FFE70098E8
:102DC000C10746F20030C5F6020000291CBF42F2DE
:102DD0000030C4F202000A99496808F0B1FAFFE72E
:102DE000FFE702F0EDFE41F20401884213D3FFE752
:102DF0000A98806810280ED1FFE70A994A7D086B6F
:102E000040EA42308A681043097F40EA014040F0BE
:102E10000C0008900BE00A994A7D086B40EA4230AA
:102E20008A681043097F40EA01400890FFE70A984A
:102E3000007F01280BD1FFE70A98016A0020CFF636
:102E4000FE7000EB4141089808430890FFE70A989C
:102E5000406A50B1FFE70A99486A896A00F47870BD
:102E60000143089808430890FFE70A980068C06883
:102E70004CF20301CFF6F0710840089908430A9913
:102E80000968C8600A98006808F0C2F905900A98B5
:102E9000006808F095F904900598002859D1FFE7DB
:102EA0000498002855D1FFE70A98017DC06A40EADE
:102EB000813008900A980068C06844F20301884392
:102EC000089908430A990968C8600A9890F8380078
:102ED000012829D1FFE70A98406A20B1FFE70A9844
:102EE000806A08B9FFE7FFE70A98006800694FF6B3
:102EF0001E01CFF6004100EA01020A9B1968DC6B53
:102F0000D3F840E0D3F844C00020CFF6FF7000EBC8
:102F1000044040EA0E0040EA0C009B6C184310434A
:102F200040F00100086106E00A980168086920F095
:102F300001000861FFE70A980068006920F070400E
:102F40000A9A1168526B104308610A98FDF7A8FCB1
:102F5000FFE70A98C06801280CD1FFE70A980068CB
:102F6000006B20F00F000A9A11689269013A104331
:102F7000086306E00A980168086B20F00F000863F8
:102F8000FFE70A98406D40F0010020F002000A9926
:102F9000486508E00A99486D40F010004865012036
:102FA0008DF82700FFE79DF827008DF82F00FFE739
:102FB0009DF82F000CB010BD80B58EB00D90002094
:102FC0000C900B900A90099008900D98006842F2BE
:102FD0000001C4F20201884261D1FFE740F22400FF
:102FE000C2F200400168013101600068012810D17F
:102FF000FFE7FFE744F2D840C5F60200016841F060
:1030000020010160006800F0200007900798FFE7AA
:10301000FFE7FFE744F2E040C5F60200016841F037
:1030200001010160006800F0010006900698FFE7CA
:103030000120089003200990002002900A900020AF
:10304000C5F6020008A902F0A7FB029940F2C010E1
:10305000C2F2004003901022C4F202020260092270
:1030600042608160C1604FF48062026141618161B0
:103070004FF48072C2610162416201F00DFE18B12D
:10308000FFE7FEF7E1FCFFE7FFE70D9840F2C01114
:10309000C2F20041C1640D988863FFE76BE00D98B0
:1030A000006842F20011C4F20201884262D1FFE7D7
:1030B00040F22400C2F20040016801310160006862
:1030C000012810D1FFE7FFE744F2D840C5F602001F
:1030D000016841F020010160006800F020000590C7
:1030E0000598FFE7FFE7FFE744F2E040C5F602007E
:1030F000016841F004010160006800F004000490E0
:103100000498FFE702200890032009900020009017
:103110000A9040F60000C5F6020008A902F03CFB48
:10312000009940F23820C2F2004001902822C4F2F7
:10313000020202600A2242608160C1604FF4806234
:103140000261416181614FF48072C261016241623A
:1031500001F0A2FD18B1FFE7FEF776FCFFE7FFE7FD
:103160000D9840F23821C2F20041C1640D98886385
:10317000FFE7FFE7FFE70EB080BD000000000000A2
:1031800080B58AB008900791069200208DF817004C
:10319000089818B1FFE7079820B9FFE701208DF8DC
:1031A000270049E107980069012801D1FFE7FFE7FF
:1031B00007980068042801D1FFE706E007988068B7
:1031C000022801D1FFE7FFE7FFE7FFE70898407912
:1031D000012804D1FFE702208DF827002CE108998F
:1031E00001204871FFE7FFE708990220087107985E
:1031F000006804287ED1FFE702F0EAFC02900698FE
:1032000078BBFFE7FFE708980068406B48F20001D1
:10321000C2F2000108421ED0FFE702F0D9FC029979
:10322000401A022816D3FFE708980068406B48F25E
:103230000001C2F2000108420BD0FFE708990869BB
:1032400040F0080008610899032008718DF82700F4
:10325000F2E0FFE7D7E707988069089909680864F2
:1032600026E0FFE708980068406BC00FD0B1FFE789
:1032700002F0AEFC0299401A022812D3FFE7089828
:103280000068406BC00F58B1FFE70899086940F02B
:10329000080008610899032008718DF82700CBE029
:1032A000FFE7DFE707988069089909684864FFE746
:1032B00008980068806C069901F0100240F2FF3116
:1032C000914088430799C969914008430899096862
:1032D000886408980068C06C069901F01002FF210C
:1032E000914088430799096A914008430899096801
:1032F000C864FFE70798006901281ED1FFE7089816
:103300000068806B0490069800F010011F2000FAFE
:1033100001F104988843049007984069039003984A
:10332000069901F0100100FA01F104980843049095
:103330000498089909688863FFE708980068C06BDB
:103340000490069800F01001072000FA01F104989B
:10335000884304900798C068012803D1FFE7002044
:10336000019013E00798C068022803D1FFE701200D
:1033700001900AE00798806818B9FFE701200190E2
:1033800002E000200190FFE7FFE7FFE707990868E8
:10339000896808430199084303900398069901F04E
:1033A000100100FA01F10498084304900498089968
:1033B0000968C863069800F010014FF4804000FAD5
:1033C00001F208980168086890430860089800684E
:1033D00000680490069800F0100140F6FE7000FAB4
:1033E00001F104988843049007984068039003987B
:1033F000069901F0100100FA01F1049808430490C5
:103400000498089909680860069800F01001C02027
:1034100000FA01F20898016808689043086008996A
:1034200001200871FFE7089900204871FFE79DF827
:1034300017008DF82700FFE79DF827000AB080BD30
:1034400080B582B00090009820B9FFE701208DF888
:10345000070016E00098007938B9FFE700990020CE
:103460004871009800F014F8FFE7009902200871F5
:10347000009900200861009A012111718DF8070060
:10348000FFE79DF8070002B080BD000000000000CB
:1034900080B58CB00B9000200A900990089007909E
:1034A00006900B98006847F20041C4F20001884280
:1034B00040F08980FFE7FFE744F2E840C5F60200EC
:1034C000016841F000510160006800F00050059073
:1034D0000598FFE7FFE744F2E040C5F60200016807
:1034E00041F001010160006800F0010004900498BF
:1034F000FFE73020069003200790002002900890FC
:103500000020C5F6020006A902F046F9029940F231
:10351000B020C2F2004003904022C4F202020260D6
:103520004322426040228260C1604FF480620261A7
:103530004FF4006242614FF4005282614FF4807296
:10354000C2610162416201F0A7FB18B1FFE7FEF71B
:103550007BFAFFE7FFE70B9840F2B021C2F200418F
:1035600081600B988863FFE740F22830C2F2004088
:1035700001905821C4F202010160442141604021C0
:1035800081600021C1604FF4806202614FF40062EB
:1035900042614FF4005282614FF48072C261016255
:1035A000416201F079FB18B1FFE7FEF74DFAFFE742
:1035B000FFE70B9840F22831C2F20041C1600B983E
:1035C0008863FFE7FFE70CB080BD0000000000004B
:1035D00086B00490039104984068B0F5403F06D04F
:1035E000FFE70498406808B1FFE7FFE7FFE70398AB
:1035F00001280BD1FFE704980399C1EBC10100EB4F
:103600008100C06A0B2801D1FFE7FFE7FFE70498BC
:1036100090F86000012804D1FFE702208DF8170020
:103620009EE00499012081F86000FFE7FFE704991C
:10363000022081F8610004980399C1EBC10100EBFD
:10364000810028300290029948688B680A694969AC
:1036500040EA034040EA025040EA415000900F2007
:10366000CFF633700190029840680A2805D0FFE732
:1036700002984068092807D1FFE70298C17B0098AB
:1036800040EA0160009006E00298C168009840EAB4
:1036900001600090FFE7039810BBFFE70498006803
:1036A000406A01998843009908430499096848626F
:1036B00002980068049909688861029840680A289D
:1036C00005D0FFE702984068092808D1FFE7029873
:1036D000C06820F07F40049909688862FFE731E004
:1036E000029840680B280BD1FFE702988169009887
:1036F00040EA81400090019840F440200190FFE7AB
:1037000004980068C06901998843009908430499A6
:103710000968C861029800680499096808610298FC
:1037200040680A2805D0FFE702984068092808D1B8
:10373000FFE70298C06820F07F400499096808629A
:10374000FFE7FFE70499012081F86100FFE7049992
:10375000002081F86000FFE700208DF81700FFE7E8
:103760009DF8170006B0704780B582B000900098B1
:1037700020B9FFE701208DF807004FE0009890F88E
:10378000610040B9FFE70099002081F860000098CF
:1037900000F04AF8FFE70099022081F861000098E4
:1037A000006800684FF6BF71CFF6F8710840009BC3
:1037B00019685A68DB691A4310430860009800686A
:1037C000406B40F207118843009B19689A689B6917
:1037D0001A431043486300980068006C4FF6FF716D
:1037E0008843009A1168D268104308640098006802
:1037F000406B20F44010009B19681A695B69120540
:1038000042EA435210434863009900204866009AF8
:10381000012182F861108DF80700FFE79DF807008D
:1038200002B080BD0000000082B0019001980068E5
:1038300041F20001C5F20021884210D1FFE7FFE705
:1038400044F2D440C5F60200016841F01001016065
:10385000006800F0100000900098FFE7FFE702B05A
:10386000704700000000000080B586B0049003910E
:1038700000200090049800680068C007002860D00D
:10388000FFE702F0A5F90290FFE70498006840689E
:103890008007002854D4FFE704980068406800902F
:1038A000009810F0210F27D0FFE70098800600282D
:1038B00006D5FFE70499486E40F002004866FFE72E
:1038C0000098C00730B1FFE70499486E40F001004E
:1038D0004866FFE704980168212088600499042065
:1038E00081F86100FFE70499002081F86000FFE79C
:1038F00001208DF81700B3E003980130F8B1FFE71D
:1039000002F066F90299401A0399884203D8FFE74A
:10391000039898B9FFE70499486E40F02000486684
:103920000499032081F86100FFE70499002081F8E1
:103930006000FFE703208DF8170091E0FFE7A4E7A0
:10394000FFE704980068C06900F020000190049827
:103950000068406A00F02001019808430190019836
:1039600000286BD0FFE702F033F90290FFE70498DC
:1039700000684068C00600285FD4FFE7049800682C
:1039800040680090009810F0290F32D0FFE70098AF
:103990000007002806D5FFE70499486E40F00400B0
:1039A0004866FFE700988006002806D5FFE70499DF
:1039B000486E40F002004866FFE70098C00730B14B
:1039C000FFE70499486E40F001004866FFE704985D
:1039D0000168292088600499042081F86100FFE7CC
:1039E0000499002081F86000FFE701208DF817009E
:1039F00036E003980130F8B1FFE702F0E9F80299E8
:103A0000401A0399884203D8FFE7039898B9FFE763
:103A10000499486E40F0200048660499032081F81C
:103A20006100FFE70499002081F86000FFE70320B0
:103A30008DF8170014E0FFE799E7FFE704980168A5
:103A4000122088600499012081F86100FFE7049941
:103A5000002081F86000FFE700208DF81700FFE7E5
:103A60009DF8170006B080BD80B586B0DDF820C097
:103A70000490039102920193FFE7049890F860008C
:103A8000012804D1FFE702208DF817001EE00499F9
:103A9000012081F86000FFE7FFE70499022081F828
:103AA000610004980399029A019BDDF820C0EE465C
:103AB000CEF800C0FDF760FC04980168086840F08B
:103AC0000100086000208DF81700FFE79DF817003F
:103AD00006B080BD0000000080B590B00F900020BF
:103AE0000B9040F20400C2F20040006848F2B511A9
:103AF000C1F64E31A0FB0110800A0A900F98806D2C
:103B000009900F98806D0890099800680E900898A9
:103B100000680D900F98016801201022C4F2020283
:103B20009142079000F0A380FFE70F980168012001
:103B30002822C4F202029142079000F09880FFE729
:103B40000F98016801204022C4F2020291420790BE
:103B500000F08D80FFE70F98016801205822C4F221
:103B600002029142079000F08280FFE70F980168FF
:103B700001207022C4F202029142079077D0FFE741
:103B80000F98016801208822C4F202029142079036
:103B90006DD0FFE70F9801680120A022C4F2020255
:103BA0009142079063D0FFE70F9801680120B82287
:103BB000C4F202029142079059D0FFE70F980168C2
:103BC000012040F21042C4F20202914207904ED00E
:103BD000FFE70F980168012040F22842C4F2020278
:103BE0009142079043D0FFE70F980168012040F20F
:103BF0004042C4F202029142079038D0FFE70F988A
:103C00000168012040F25842C4F20202914207903A
:103C10002DD0FFE70F980168012040F27042C4F2F6
:103C200002029142079022D0FFE70F98016801201D
:103C300040F28842C4F202029142079017D0FFE797
:103C40000F980168012040F2A042C4F202029142A2
:103C500007900CD0FFE70F9800684FF64831CBF67D
:103C6000FD710844B0FA80F040090790FFE707981B
:103C7000C007002800F01385FFE70E980F99C96D63
:103C800001F01F01C8400007002840F1B080FFE7A5
:103C90000F9800681021C4F20201884200F0818070
:103CA000FFE70F9800682821C4F20201884278D00B
:103CB000FFE70F9800684021C4F20201884270D0EB
:103CC000FFE70F9800685821C4F20201884268D0CB
:103CD000FFE70F9800687021C4F20201884260D0AB
:103CE000FFE70F9800688821C4F20201884258D08B
:103CF000FFE70F980068A021C4F20201884250D06B
:103D0000FFE70F980068B821C4F20201884248D04A
:103D1000FFE70F98006840F21041C4F202018842A8
:103D20003FD0FFE70F98006840F22841C4F202013B
:103D3000884236D0FFE70F98006840F24041C4F255
:103D4000020188422DD0FFE70F98006840F25841E9
:103D5000C4F20201884224D0FFE70F98006840F2C5
:103D60007041C4F2020188421BD0FFE70F9800683F
:103D700040F28841C4F20201884212D0FFE70F9856
:103D8000006840F2A041C4F20201884209D0FFE776
:103D90000F98006840F2B841C4F20201884207D18E
:103DA000FFE70F980068006800F00400069006E046
:103DB0000F980068006800F008000690FFE706987A
:103DC000A0B1FFE70F980168086820F004000860C0
:103DD0000F98C06D00F01F01082088400999886085
:103DE0000F99486D40F001004865FFE7FFE70E9826
:103DF0000F99C96D01F01F01C840C007002800F0ED
:103E0000A980FFE70F9800681021C4F202018842E0
:103E100000F08180FFE70F9800682821C4F20201BA
:103E2000884278D0FFE70F9800684021C4F2020171
:103E3000884270D0FFE70F9800685821C4F2020151
:103E4000884268D0FFE70F9800687021C4F2020131
:103E5000884260D0FFE70F9800688821C4F2020111
:103E6000884258D0FFE70F980068A021C4F20201F1
:103E7000884250D0FFE70F980068B821C4F20201D1
:103E8000884248D0FFE70F98006840F21041C4F222
:103E9000020188423FD0FFE70F98006840F22841B6
:103EA000C4F20201884236D0FFE70F98006840F262
:103EB0004041C4F2020188422DD0FFE70F9800680C
:103EC00040F25841C4F20201884224D0FFE70F9823
:103ED000006840F27041C4F2020188421BD0FFE743
:103EE0000F98006840F28841C4F20201884212D063
:103EF000FFE70F98006840F2A041C4F20201884237
:103F000009D0FFE70F98006840F2B841C4F20201FF
:103F1000884207D1FFE70F980068406900F08000F1
:103F2000059005E00F980068006800200590FFE705
:103F3000059870B1FFE70F98C06D00F01F010120D8
:103F40008840099988600F99486D40F002004865E3
:103F5000FFE7FFE70E980F99C96D01F01F01C840F8
:103F60004007002840F1A980FFE70F980068102162
:103F7000C4F20201884200F08180FFE70F980068D8
:103F80002821C4F20201884278D0FFE70F98006828
:103F90004021C4F20201884270D0FFE70F98006808
:103FA0005821C4F20201884268D0FFE70F980068E8
:103FB0007021C4F20201884260D0FFE70F980068C8
:103FC0008821C4F20201884258D0FFE70F980068A8
:103FD000A021C4F20201884250D0FFE70F98006888
:103FE000B821C4F20201884248D0FFE70F98006868
:103FF00040F21041C4F2020188423FD0FFE70F981F
:10400000006840F22841C4F20201884236D0FFE73E
:104010000F98006840F24041C4F2020188422DD05E
:10402000FFE70F98006840F25841C4F2020188424D
:1040300024D0FFE70F98006840F27041C4F20201FB
:1040400088421BD0FFE70F98006840F28841C4F215
:104050000201884212D0FFE70F98006840F2A041A9
:10406000C4F20201884209D0FFE70F98006840F2CD
:10407000B841C4F20201884207D1FFE70F980068F7
:10408000006800F00200049005E00F9800680068E6
:1040900000200490FFE7049870B1FFE70F98C06D0F
:1040A00000F01F0104208840099988600F99486D2D
:1040B00040F004004865FFE7FFE70E980F99C96DCF
:1040C00001F01F01C840C006002840F1DE80FFE774
:1040D0000F9800681021C4F20201884200F081802C
:1040E000FFE70F9800682821C4F20201884278D0C7
:1040F000FFE70F9800684021C4F20201884270D0A7
:10410000FFE70F9800685821C4F20201884268D086
:10411000FFE70F9800687021C4F20201884260D066
:10412000FFE70F9800688821C4F20201884258D046
:10413000FFE70F980068A021C4F20201884250D026
:10414000FFE70F980068B821C4F20201884248D006
:10415000FFE70F98006840F21041C4F20201884264
:104160003FD0FFE70F98006840F22841C4F20201F7
:10417000884236D0FFE70F98006840F24041C4F211
:10418000020188422DD0FFE70F98006840F25841A5
:10419000C4F20201884224D0FFE70F98006840F281
:1041A0007041C4F2020188421BD0FFE70F980068FB
:1041B00040F28841C4F20201884212D0FFE70F9812
:1041C000006840F2A041C4F20201884209D0FFE732
:1041D0000F98006840F2B841C4F20201884207D14A
:1041E000FFE70F980068006800F00800039006E001
:1041F0000F980068006800F004000390FFE7039840
:10420000002841D0FFE70F98C06D00F01F0110207B
:104210008840099988600F9800680068400300286A
:104220001AD5FFE70F98006800680003002809D43A
:10423000FFE70F98006C20B1FFE70F98016C8847EB
:10424000FFE708E00F98806C20B1FFE70F98816CC2
:104250008847FFE7FFE716E00F9800680068C00591
:10426000002807D4FFE70F980168086820F00800CD
:104270000860FFE70F98006C20B1FFE70F98016C12
:104280008847FFE7FFE7FFE7FFE70E980F99C96D43
:1042900001F01F01C8408006002840F12681FFE799
:1042A0000F9800681021C4F20201884200F081805A
:1042B000FFE70F9800682821C4F20201884278D0F5
:1042C000FFE70F9800684021C4F20201884270D0D5
:1042D000FFE70F9800685821C4F20201884268D0B5
:1042E000FFE70F9800687021C4F20201884260D095
:1042F000FFE70F9800688821C4F20201884258D075
:10430000FFE70F980068A021C4F20201884250D054
:10431000FFE70F980068B821C4F20201884248D034
:10432000FFE70F98006840F21041C4F20201884292
:104330003FD0FFE70F98006840F22841C4F2020125
:10434000884236D0FFE70F98006840F24041C4F23F
:10435000020188422DD0FFE70F98006840F25841D3
:10436000C4F20201884224D0FFE70F98006840F2AF
:104370007041C4F2020188421BD0FFE70F98006829
:1043800040F28841C4F20201884212D0FFE70F9840
:10439000006840F2A041C4F20201884209D0FFE760
:1043A0000F98006840F2B841C4F20201884207D178
:1043B000FFE70F980068006800F01000029006E028
:1043C0000F980068006800F002000290FFE7029872
:1043D000002800F08980FFE70F98C06D00F01F01F2
:1043E00020208840099988600F9890F835000428AB
:1043F00037D1FFE70F980168086820F016000860C1
:104400000F980168486920F0800048610F98006C9F
:1044100020B9FFE70F98806C38B1FFE70F9801686B
:10442000086820F008000860FFE70F98C06D00F0F2
:104430001F013F208840099988600F99012081F869
:104440003500FFE70F99002081F83400FFE70F984F
:10445000006D20B1FFE70F98016D8847FFE700F07E
:1044600019BC0F9800680068400300281AD5FFE7C0
:104470000F98006800680003002809D4FFE70F9830
:10448000406C20B1FFE70F98416C8847FFE708E0D8
:104490000F98C06B20B1FFE70F98C16B8847FFE70B
:1044A000FFE720E00F9800680068C005002811D4DD
:1044B000FFE70F980168086820F0100008600F9966
:1044C000012081F83500FFE70F99002081F83400C2
:1044D000FFE7FFE70F98C06B20B1FFE70F98C16BB4
:1044E0008847FFE7FFE7FFE7FFE70F98406D0028E9
:1044F00000F0D480FFE70F98406DC007002800F05F
:10450000C480FFE70F99042081F835000F980068F8
:104510001021C4F20201884200F08180FFE70F9869
:1045200000682821C4F20201884278D0FFE70F9882
:1045300000684021C4F20201884270D0FFE70F9862
:1045400000685821C4F20201884268D0FFE70F9842
:1045500000687021C4F20201884260D0FFE70F9822
:1045600000688821C4F20201884258D0FFE70F9802
:104570000068A021C4F20201884250D0FFE70F98E2
:104580000068B821C4F20201884248D0FFE70F98C2
:10459000006840F21041C4F2020188423FD0FFE7B8
:1045A0000F98006840F22841C4F20201884236D0D8
:1045B000FFE70F98006840F24041C4F202018842D0
:1045C0002DD0FFE70F98006840F25841C4F2020175
:1045D000884224D0FFE70F98006840F27041C4F28F
:1045E000020188421BD0FFE70F98006840F2884123
:1045F000C4F20201884212D0FFE70F98006840F22F
:10460000A041C4F20201884209D0FFE70F98006878
:1046100040F2B841C4F20201884207D1FFE70F9887
:104620000168086820F00100086006E00F98016842
:10463000086820F001000860FFE7FFE70B980130F1
:104640000B900A99884201D9FFE707E0FFE70F982E
:1046500000680068C0070028F0D1FFE70F980068E5
:104660000068C00728B1FFE70F99032081F83500E3
:1046700004E00F99012081F83500FFE7FFE70F996B
:10468000002081F83400FFE7FFE70F98C06C20B1ED
:10469000FFE70F98C16C8847FFE7FFE7FAE20F9842
:1046A0000168012045F20842C5F6020291420190DC
:1046B0004ED0FFE70F980168012045F21C42C5F675
:1046C00002029142019043D0FFE70F980168012058
:1046D00045F23042C5F602029142019038D0FFE720
:1046E0000F980168012045F24442C5F6020291424A
:1046F00001902DD0FFE70F980168012045F2584244
:10470000C5F602029142019022D0FFE70F9801689E
:10471000012045F26C42C5F602029142019017D089
:10472000FFE70F980168012045F28042C5F60202BA
:10473000914201900CD0FFE70F9800684AF66C3167
:10474000CAF2FD710844B0FA80F040090190FFE719
:104750000198C007002800F09B82FFE70F980068CF
:1047600000680C900D980F99C96D01F01F01C840A9
:104770004007002840F1D780FFE79DF83000400750
:10478000002840F1D080FFE70F98C06D00F01F01B6
:1047900004208840089948609DF8310000060028F0
:1047A00018D5FFE79DF83200C00748B9FFE70F981A
:1047B000806C20B1FFE70F98816C8847FFE708E025
:1047C0000F98006C20B1FFE70F98016C8847FFE756
:1047D000FFE7A7E09DF830008006002800F19980EF
:1047E000FFE70F9800681021C4F20201884200F030
:1047F0008180FFE70F9800682821C4F202018842F7
:1048000078D0FFE70F9800684021C4F20201884287
:1048100070D0FFE70F9800685821C4F20201884267
:1048200068D0FFE70F9800687021C4F20201884247
:1048300060D0FFE70F9800688821C4F20201884227
:1048400058D0FFE70F980068A021C4F20201884207
:1048500050D0FFE70F980068B821C4F202018842E7
:1048600048D0FFE70F98006840F21041C4F20201FF
:1048700088423FD0FFE70F98006840F22841C4F219
:104880000201884236D0FFE70F98006840F24041AD
:10489000C4F2020188422DD0FFE70F98006840F271
:1048A0005841C4F20201884224D0FFE70F98006803
:1048B00040F27041C4F2020188421BD0FFE70F981A
:1048C000006840F28841C4F20201884212D0FFE73A
:1048D0000F98006840F2A041C4F20201884209D05A
:1048E000FFE70F98006840F2B841C4F20201884225
:1048F00007D1FFE70F980168086820F008000860FA
:1049000006E00F980168086820F004000860FFE7DF
:10491000FFE70F98006C20B1FFE70F98016C884704
:10492000FFE7FFE7B3E10D980F99C96D01F01F0193
:10493000C8408007002840F1E180FFE79DF8300083
:104940008007002840F1DA80FFE70F98C06D00F083
:104950001F0102208840089948609DF83100000638
:10496000002818D5FFE79DF83200C00748B9FFE7D7
:104970000F98406C20B1FFE70F98416C8847FFE724
:1049800008E00F98C06B20B1FFE70F98C16B884714
:10499000FFE7FFE7B1E09DF830008006002800F156
:1049A000A380FFE70F9800681021C4F2020188423B
:1049B00000F08180FFE70F9800682821C4F202010F
:1049C000884278D0FFE70F9800684021C4F20201C6
:1049D000884270D0FFE70F9800685821C4F20201A6
:1049E000884268D0FFE70F9800687021C4F2020186
:1049F000884260D0FFE70F9800688821C4F2020166
:104A0000884258D0FFE70F980068A021C4F2020145
:104A1000884250D0FFE70F980068B821C4F2020125
:104A2000884248D0FFE70F98006840F21041C4F276
:104A3000020188423FD0FFE70F98006840F228410A
:104A4000C4F20201884236D0FFE70F98006840F2B6
:104A50004041C4F2020188422DD0FFE70F98006860
:104A600040F25841C4F20201884224D0FFE70F9877
:104A7000006840F27041C4F2020188421BD0FFE797
:104A80000F98006840F28841C4F20201884212D0B7
:104A9000FFE70F98006840F2A041C4F2020188428B
:104AA00009D0FFE70F98006840F2B841C4F2020154
:104AB000884207D1FFE70F980168086820F01400CA
:104AC000086006E00F980168086820F00A00086096
:104AD000FFE70F99012081F83500FFE70F990020CB
:104AE00081F83400FFE7FFE70F98C06B20B1FFE7C4
:104AF0000F98C16B8847FFE7FFE7C7E00D980F9954
:104B0000C96D01F01F01C8400007002840F1BC80BA
:104B1000FFE79DF830000007002840F1B580FFE76F
:104B20000F9800681021C4F20201884200F08180D1
:104B3000FFE70F9800682821C4F20201884278D06C
:104B4000FFE70F9800684021C4F20201884270D04C
:104B5000FFE70F9800685821C4F20201884268D02C
:104B6000FFE70F9800687021C4F20201884260D00C
:104B7000FFE70F9800688821C4F20201884258D0EC
:104B8000FFE70F980068A021C4F20201884250D0CC
:104B9000FFE70F980068B821C4F20201884248D0AC
:104BA000FFE70F98006840F21041C4F2020188420A
:104BB0003FD0FFE70F98006840F22841C4F202019D
:104BC000884236D0FFE70F98006840F24041C4F2B7
:104BD000020188422DD0FFE70F98006840F258414B
:104BE000C4F20201884224D0FFE70F98006840F227
:104BF0007041C4F2020188421BD0FFE70F980068A1
:104C000040F28841C4F20201884212D0FFE70F98B7
:104C1000006840F2A041C4F20201884209D0FFE7D7
:104C20000F98006840F2B841C4F20201884207D1EF
:104C3000FFE70F980168086820F01C00086006E094
:104C40000F980168086820F00E000860FFE70F98D1
:104C5000C06D00F01F01012000FA01F1089A5160B7
:104C60000F9948650F9981F83500FFE70F990020EB
:104C700081F83400FFE70F98C06C20B1FFE70F9870
:104C8000C16C8847FFE700E0FFE7FFE7FFE700E0D0
:104C9000FFE7FFE710B080BD10B58EB00C9000F0BC
:104CA00097FF0A900C9828B9FFE701208DF837008C
:104CB00000F09FBC0C98016801201022C4F202028F
:104CC0009142079000F0A380FFE70C980168012053
:104CD0002822C4F202029142079000F09880FFE778
:104CE0000C98016801204022C4F202029142079010
:104CF00000F08D80FFE70C98016801205822C4F273
:104D000002029142079000F08280FFE70C98016850
:104D100001207022C4F202029142079077D0FFE78F
:104D20000C98016801208822C4F202029142079087
:104D30006DD0FFE70C9801680120A022C4F20202A6
:104D40009142079063D0FFE70C9801680120B822D8
:104D5000C4F202029142079059D0FFE70C98016813
:104D6000012040F21042C4F20202914207904ED05C
:104D7000FFE70C980168012040F22842C4F20202C9
:104D80009142079043D0FFE70C980168012040F260
:104D90004042C4F202029142079038D0FFE70C98DB
:104DA0000168012040F25842C4F202029142079089
:104DB0002DD0FFE70C980168012040F27042C4F248
:104DC00002029142079022D0FFE70C98016801206F
:104DD00040F28842C4F202029142079017D0FFE7E6
:104DE0000C980168012040F2A042C4F202029142F4
:104DF00007900CD0FFE70C9800684FF64831CBF6CF
:104E0000FD710844B0FA80F040090790FFE7079869
:104E1000C007002800F07981FFE70C98406A08B1CC
:104E2000FFE7FFE70C99022081F83500FFE70C99B6
:104E3000002081F83400FFE70C9800681021C4F2CC
:104E40000201884200F08180FFE70C980068282169
:104E5000C4F20201884278D0FFE70C980068402134
:104E6000C4F20201884270D0FFE70C980068582114
:104E7000C4F20201884268D0FFE70C9800687021F4
:104E8000C4F20201884260D0FFE70C9800688821D4
:104E9000C4F20201884258D0FFE70C980068A021B4
:104EA000C4F20201884250D0FFE70C980068B82194
:104EB000C4F20201884248D0FFE70C98006840F233
:104EC0001041C4F2020188423FD0FFE70C9800680D
:104ED00040F22841C4F20201884236D0FFE70C9824
:104EE000006840F24041C4F2020188422DD0FFE741
:104EF0000C98006840F25841C4F20201884224D064
:104F0000FFE70C98006840F27041C4F20201884249
:104F10001BD0FFE70C98006840F28841C4F2020100
:104F2000884212D0FFE70C98006840F2A041C4F21A
:104F30000201884209D0FFE70C98006840F2B841AE
:104F4000C4F20201884207D1FFE70C9801680868A3
:104F500020F00100086006E00C980168086820F065
:104F600001000860FFE7FFE70C9800680068C007D1
:104F700098B1FFE700F02CFE0A99401A06280BD3DF
:104F8000FFE70C99202048650C99032081F8350033
:104F900001208DF837002CE3E6E70C9800680068E4
:104FA0000B900B9848F23F01CFF6106108400B9030
:104FB0000C998868D1F80CC00B694A6940EA0C006A
:104FC000184310438A691043CA691043096A0143B0
:104FD0000B9808430B900C98406A042808D1FFE70F
:104FE0000C99C86A096B01430B9808430B90FFE7C3
:104FF00041F20000C5F6004000684FF6FF7188439B
:10500000B0F1005F40D3FFE70C984068292807D330
:10501000FFE70C98416801202F2906902AD3FFE76B
:105020000C9840683F2807D3FFE70C98416801209F
:10503000432906901ED3FFE70C984068472807D302
:10504000FFE70C98416801204929069012D3FFE739
:105050000C98416800204F29059008D3FFE70C9871
:1050600041680020532938BF01200590FFE70598CB
:105070000690FFE70698C00728B1FFE70B9840F4B9
:1050800080100B90FFE7FFE70B980C990968086008
:105090000C98006840690B900B9820F007000B906B
:1050A0000C98416A0B9808430B900C98406A0428AE
:1050B0001AD1FFE70C98816A0B9808430B900C9863
:1050C000C06A80B1FFE70C98FCF742FC50B1FFE7E3
:1050D0000C99402048650C99012081F835008DF825
:1050E000370086E2FFE7FFE70B980C9909684861F3
:1050F0000C98FCF7F1F909900C98C06D00F01F01B5
:105100003F2088400999886026E10C9801680120B9
:1051100045F20842C5F60202914204904ED0FFE7E4
:105120000C980168012045F21C42C5F6020291422A
:10513000049043D0FFE70C980168012045F230420B
:10514000C5F602029142049038D0FFE70C9801683E
:10515000012045F24442C5F60202914204902DD04E
:10516000FFE70C980168012045F25842C5F602029B
:105170009142049022D0FFE70C980168012045F28B
:105180006C42C5F602029142049017D0FFE70C98DA
:105190000168012045F28042C5F602029142049066
:1051A0000CD0FFE70C9800684AF66C31CAF2FD712A
:1051B0000844B0FA80F040090490FFE70498C00763
:1051C000002800F0BD80FFE70C980168012045F23F
:1051D0000842C5F60202914203904ED0FFE70C98B8
:1051E0000168012045F21C42C5F60202914203907B
:1051F00043D0FFE70C980168012045F23042C5F624
:1052000002029142039038D0FFE70C980168012018
:1052100045F24442C5F60202914203902DD0FFE7C9
:105220000C980168012045F25842C5F602029142ED
:10523000039022D0FFE70C980168012045F26C42F0
:10524000C5F602029142039017D0FFE70C9801685F
:10525000012045F28042C5F60202914203900CD033
:10526000FFE70C9800684AF66C31CAF2FD710844F9
:10527000B0FA80F040090390FFE70398C00708B137
:10528000FFE7FFE70C99022081F83500FFE70C9952
:10529000002081F83400FFE70C98006800680B904C
:1052A0000B986FF310100B900C988068402803D176
:1052B000FFE71020029008E00C9880688038B0FA70
:1052C00080F0400980030290FFE702980C99CA68B9
:1052D0000B69D1F814C0D1F818E0CC694EEA040E7D
:1052E0004CEA0E0C43EA0C031A4340EAD200096A66
:1052F00040EA11110B9808430B900B980C99096820
:1053000008600C9908684AF6F832CAF2FD72104437
:105310004CF6CD42CCF6CC42A0FB02026FF003006B
:1053200000EA9200C8650C98FCF7D6F808900C9833
:10533000C06D00F01F0101208840089948600AE014
:105340000C99402048650C99032081F83500012014
:105350008DF837004DE1FFE70C980168012010221D
:10536000C4F202029142019000F00381FFE70C9821
:10537000016801202822C4F202029142019000F04B
:10538000F880FFE70C98016801204022C4F2020275
:105390009142019000F0ED80FFE70C980168012038
:1053A0005822C4F202029142019000F0E280FFE72D
:1053B0000C98016801207022C4F20202914201900F
:1053C00000F0D780FFE70C98016801208822C4F222
:1053D00002029142019000F0CC80FFE70C98016836
:1053E0000120A022C4F202029142019000F0C1808B
:1053F000FFE70C9801680120B822C4F20202914232
:10540000019000F0B680FFE70C980168012040F29F
:105410001042C4F202029142019000F0AA80FFE71C
:105420000C980168012040F22842C4F20202914225
:10543000019000F09E80FFE70C980168012040F287
:105440004042C4F202029142019000F09280FFE7D4
:105450000C980168012040F25842C4F202029142C5
:10546000019000F08680FFE70C980168012040F26F
:105470007042C4F20202914201907AD0FFE70C9888
:105480000168012040F28842C4F202029142019078
:105490006FD0FFE70C980168012040F2A042C4F2EF
:1054A00002029142019064D0FFE70C98016801204C
:1054B00040F2B842C4F202029142019059D0FFE793
:1054C0000C980168012045F20842C5F6020291429B
:1054D00001904ED0FFE70C980168012045F21C4274
:1054E000C5F602029142019043D0FFE70C98016893
:1054F000012045F23042C5F602029142019038D0B7
:10550000FFE70C980168012045F24442C5F602020B
:10551000914201902DD0FFE70C980168012045F2DF
:105520005842C5F602029142019022D0FFE70C9842
:105530000168012045F26C42C5F6020291420190D9
:1055400017D0FFE70C980168012045F28042C5F6AC
:105550000202914201900CD0FFE70C9800684AF6D5
:105560006C31CAF2FD710844B0FA80F04009019034
:10557000FFE70198C00790B3FFE70C98FCF794F899
:105580000C988068802804D1FFE70C9900204860BF
:10559000FFE70C990879096E08600C98416E806EDF
:1055A00048600C98406888B1FFE70C98406808286C
:1055B0000CD8FFE70C98FCF733F90C98C16E00206B
:1055C00008600C98016F406F486007E00C9900205C
:1055D000C8660C9908670C994867FFE7FFE70C99C4
:1055E000002048650C9A012182F835108DF83700AB
:1055F000FFE79DF837000EB010BD0000000000006E
:1056000080B584B0039000F0E3FA02900398019013
:105610000198013048B1FFE740F20C00C2F20040AF
:105620000178019808440190FFE7FFE700F0D0FA05
:105630000299401A0199884201D2FFE7F6E704B0C7
:1056400080BD00000000000080B5BEB000203D908D
:105650003C903B903A90399040F22000C2F20040DA
:10566000006808B1FFE793E040F22001C2F2004178
:105670000120086008A80690C021FAF765FE069888
:10568000002109914FF0807208921A9102F064FA99
:1056900018B1FFE7FCF7D8F9FFE7FFE744F2D44081
:1056A000C5F60200016841F480510160006800F411
:1056B000805007900798FFE74FF63F00399002208F
:1056C00001903A90002002903B90032003903C9080
:1056D0000C2004903D9041F20040C5F6020039A92B
:1056E000059100F059F8DDF804C0029B039A049874
:1056F00005994FF02C0ECDF8E4E0CDF8E8C03B93CF
:105700003C923D9041F60040C5F6020000F044F89E
:10571000DDF804C0029B039A0498059948F2371EED
:10572000CDF8E4E0CDF8E8C03B933C923D9041F6E3
:105730000000C5F6020000F02FF8DDF804C0029B5F
:10574000039A049805994FF6837ECDF8E4E0CDF8EE
:10575000E8C03B933C923D9041F20000C5F6020048
:1057600000F01AF8DDF804C0029B039A049805992A
:105770004CF2037ECDF8E4E0CDF8E8C03B933C92D8
:105780003D9040F60040C5F6020000F005F8FFE746
:105790003EB080BD0000000090B00F900E91002040
:1057A0000D908020C5F600000A90FFE70E98006873
:1057B0000D99C840002800F0CF81FFE70E980068DF
:1057C0000D9A0121914008400C900C98002800F09F
:1057D000BF81FFE70E98406800F00300012807D062
:1057E000FFE70E98406800F0030002282FD1FFE782
:1057F0000F9880680B900D984100032000FA01F18A
:105800000B9888430B900E98C0680D99490000FAD8
:1058100001F10B9808430B900B980F9988600F9833
:1058200040680B900D99012000FA01F10B98884314
:105830000B900E984068C0F300100D9900FA01F12A
:105840000B9808430B900B980F994860FFE70E9850
:10585000406800F00300032818D0FFE70F98C068E5
:105860000B900D984100032000FA01F10B9888433A
:105870000B900E9880680D99490000FA01F10B9881
:1058800008430B900B980F99C860FFE70E9840688B
:1058900000F00300022826D1FFE70F980D996FF062
:1058A000030202EA51010844006A0B900D9800F0CF
:1058B000070081000F2000FA01F10B9888430B903C
:1058C0000E9800690D9901F00701890000FA01F1B5
:1058D0000B9808430B900B980F990D9B02EA53020B
:1058E00011440862FFE70F9800680B900D98410083
:1058F000032000FA01F10B9888430B900E98406842
:1059000000F003000D99490000FA01F10B980843DB
:105910000B900B980F9908600E98807980070028EB
:1059200000F01581FFE7FFE744F2F440C5F60200FE
:10593000016841F002010160006800F00200099076
:105940000998FFE70D9820F0030040F20841C5F6E2
:10595000000140580B900D9800F0030081000F20CB
:1059600000FA01F10B9888430B900F980021C5F6BF
:105970000201884203D1FFE7002008907AE00F98E7
:1059800040F20041C5F60201884203D1FFE7012041
:1059900007906CE00F9840F60001C5F602018842BE
:1059A00003D1FFE7022006905EE00F9840F6004129
:1059B000C5F60201884203D1FFE70320059050E0BD
:1059C0000F9841F20001C5F60201884203D1FFE7BA
:1059D0000420049042E00F9841F20041C5F6020114
:1059E000884203D1FFE70520039034E00F9841F689
:1059F0000001C5F60201884203D1FFE706200290AC
:105A000026E00F9841F60041C5F60201884203D115
:105A1000FFE70720019018E00F9842F20001C5F659
:105A20000201884203D1FFE7082000900AE00F99A5
:105A300042F20042C5F602020A20914208BF092044
:105A40000090FFE700980190FFE701980290FFE7C0
:105A500002980390FFE703980490FFE704980590ED
:105A6000FFE705980690FFE706980790FFE707987D
:105A70000890FFE708980D9901F00301890000FAEA
:105A800001F10B9808430B900B980D9921F003013D
:105A900040F20842C5F6000288504FF0B04000685E
:105AA0000B900C990B9888430B900E988079C00648
:105AB000002805D5FFE70C990B9808430B90FFE7EA
:105AC0000B984FF0B04108600420C5F60000006854
:105AD0000B900C990B9888430B900E988079800658
